{
	"contracts/2_variables.sol": {
		"variables": {
			"abi": [
				{
					"inputs": [],
					"name": "address1",
					"outputs": [
						{
							"internalType": "address",
							"name": "",
							"type": "address"
						}
					],
					"stateMutability": "view",
					"type": "function"
				},
				{
					"inputs": [],
					"name": "address2",
					"outputs": [
						{
							"internalType": "address",
							"name": "",
							"type": "address"
						}
					],
					"stateMutability": "view",
					"type": "function"
				},
				{
					"inputs": [],
					"name": "b",
					"outputs": [
						{
							"internalType": "uint8",
							"name": "",
							"type": "uint8"
						}
					],
					"stateMutability": "view",
					"type": "function"
				},
				{
					"inputs": [],
					"name": "boolean_true",
					"outputs": [
						{
							"internalType": "bool",
							"name": "",
							"type": "bool"
						}
					],
					"stateMutability": "view",
					"type": "function"
				},
				{
					"inputs": [],
					"name": "d",
					"outputs": [
						{
							"internalType": "int8",
							"name": "",
							"type": "int8"
						}
					],
					"stateMutability": "view",
					"type": "function"
				},
				{
					"inputs": [],
					"name": "displayState",
					"outputs": [
						{
							"internalType": "enum variables.options",
							"name": "",
							"type": "uint8"
						}
					],
					"stateMutability": "view",
					"type": "function"
				},
				{
					"inputs": [],
					"name": "hashing_keccak256",
					"outputs": [
						{
							"internalType": "bytes32",
							"name": "",
							"type": "bytes32"
						}
					],
					"stateMutability": "view",
					"type": "function"
				},
				{
					"inputs": [],
					"name": "hashing_ripemd160",
					"outputs": [
						{
							"internalType": "bytes20",
							"name": "",
							"type": "bytes20"
						}
					],
					"stateMutability": "view",
					"type": "function"
				},
				{
					"inputs": [],
					"name": "hashing_sha256",
					"outputs": [
						{
							"internalType": "bytes32",
							"name": "",
							"type": "bytes32"
						}
					],
					"stateMutability": "view",
					"type": "function"
				},
				{
					"inputs": [],
					"name": "str_public",
					"outputs": [
						{
							"internalType": "string",
							"name": "",
							"type": "string"
						}
					],
					"stateMutability": "view",
					"type": "function"
				},
				{
					"inputs": [],
					"name": "turnOff",
					"outputs": [],
					"stateMutability": "nonpayable",
					"type": "function"
				},
				{
					"inputs": [],
					"name": "turnOn",
					"outputs": [],
					"stateMutability": "nonpayable",
					"type": "function"
				}
			],
			"devdoc": {
				"kind": "dev",
				"methods": {},
				"version": 1
			},
			"evm": {
				"assembly": "    /* \"contracts/2_variables.sol\":62:1314  contract variables{\r... */\n  mstore(0x40, 0x80)\n    /* \"contracts/2_variables.sol\":155:156  3 */\n  0x03\n    /* \"contracts/2_variables.sol\":138:156  uint8 public b = 3 */\n  0x01\n  exp(0x0100, 0x00)\n  dup2\n  sload\n  dup2\n  0xff\n  mul\n  not\n  and\n  swap1\n  dup4\n  0xff\n  and\n  mul\n  or\n  swap1\n  sstore\n  pop\n    /* \"contracts/2_variables.sol\":223:226  -32 */\n  0xffffffffffffffffffffffffffffffffffffffffffffffffffffffffffffffe0\n    /* \"contracts/2_variables.sol\":207:226  int8 public d = -32 */\n  0x03\n  exp(0x0100, 0x00)\n  dup2\n  sload\n  dup2\n  0xff\n  mul\n  not\n  and\n  swap1\n  dup4\n  0x00\n  signextend\n  0xff\n  and\n  mul\n  or\n  swap1\n  sstore\n  pop\n    /* \"contracts/2_variables.sol\":237:239  65 */\n  0x41\n    /* \"contracts/2_variables.sol\":229:239  int e = 65 */\n  0x04\n  sstore\n    /* \"contracts/2_variables.sol\":276:320  string public str_public = \"Esto es publico\" */\n  mload(0x40)\n  dup1\n  0x40\n  add\n  0x40\n  mstore\n  dup1\n  0x0f\n  dup2\n  mstore\n  0x20\n  add\n  0x4573746f206573207075626c69636f0000000000000000000000000000000000\n  dup2\n  mstore\n  pop\n  0x06\n  swap1\n  dup1\n  mload\n  swap1\n  0x20\n  add\n  swap1\n  tag_1\n  swap3\n  swap2\n  swap1\n  tag_2\n  jump\t// in\ntag_1:\n  pop\n    /* \"contracts/2_variables.sol\":323:369  string private str_private = \"Esto es privado\" */\n  mload(0x40)\n  dup1\n  0x40\n  add\n  0x40\n  mstore\n  dup1\n  0x0f\n  dup2\n  mstore\n  0x20\n  add\n  0x4573746f206573207072697661646f0000000000000000000000000000000000\n  dup2\n  mstore\n  pop\n  0x07\n  swap1\n  dup1\n  mload\n  swap1\n  0x20\n  add\n  swap1\n  tag_3\n  swap3\n  swap2\n  swap1\n  tag_2\n  jump\t// in\ntag_3:\n  pop\n    /* \"contracts/2_variables.sol\":437:441  true */\n  0x01\n    /* \"contracts/2_variables.sol\":410:441  bool public boolean_true = true */\n  0x08\n  exp(0x0100, 0x01)\n  dup2\n  sload\n  dup2\n  0xff\n  mul\n  not\n  and\n  swap1\n  dup4\n  iszero\n  iszero\n  mul\n  or\n  swap1\n  sstore\n  pop\n    /* \"contracts/2_variables.sol\":473:478  false */\n  0x00\n    /* \"contracts/2_variables.sol\":444:478  bool private boolean_false = false */\n  0x08\n  exp(0x0100, 0x02)\n  dup2\n  sload\n  dup2\n  0xff\n  mul\n  not\n  and\n  swap1\n  dup4\n  iszero\n  iszero\n  mul\n  or\n  swap1\n  sstore\n  pop\n    /* \"contracts/2_variables.sol\":668:670  10 */\n  0x0a\n    /* \"contracts/2_variables.sol\":673:683  msg.sender */\n  caller\n    /* \"contracts/2_variables.sol\":632:684  abi.encodePacked(\"Hola mundo\", uint(10), msg.sender) */\n  add(0x20, mload(0x40))\n  tag_4\n  swap3\n  swap2\n  swap1\n  tag_5\n  jump\t// in\ntag_4:\n  mload(0x40)\n  0x20\n  dup2\n  dup4\n  sub\n  sub\n  dup2\n  mstore\n  swap1\n  0x40\n  mstore\n    /* \"contracts/2_variables.sol\":622:685  keccak256(abi.encodePacked(\"Hola mundo\", uint(10), msg.sender)) */\n  dup1\n  mload\n  swap1\n  0x20\n  add\n  keccak256\n    /* \"contracts/2_variables.sol\":587:685  bytes32 public hashing_keccak256 = keccak256(abi.encodePacked(\"Hola mundo\", uint(10), msg.sender)) */\n  0x0b\n  sstore\n    /* \"contracts/2_variables.sol\":720:758  sha256(abi.encodePacked(\"Hola mundo\")) */\n  0x02\n    /* \"contracts/2_variables.sol\":727:757  abi.encodePacked(\"Hola mundo\") */\n  add(0x20, mload(0x40))\n  tag_6\n  swap1\n  tag_7\n  jump\t// in\ntag_6:\n  mload(0x40)\n  0x20\n  dup2\n  dup4\n  sub\n  sub\n  dup2\n  mstore\n  swap1\n  0x40\n  mstore\n    /* \"contracts/2_variables.sol\":720:758  sha256(abi.encodePacked(\"Hola mundo\")) */\n  mload(0x40)\n  tag_8\n  swap2\n  swap1\n  tag_9\n  jump\t// in\ntag_8:\n  0x20\n  mload(0x40)\n  dup1\n  dup4\n  sub\n  dup2\n  dup6\n  gas\n  staticcall\n  iszero\n  dup1\n  iszero\n  tag_11\n  jumpi\n  returndatasize\n  0x00\n  dup1\n  returndatacopy\n  revert(0x00, returndatasize)\ntag_11:\n  pop\n  pop\n  pop\n  mload(0x40)\n  returndatasize\n  not(0x1f)\n  0x1f\n  dup3\n  add\n  and\n  dup3\n  add\n  dup1\n  0x40\n  mstore\n  pop\n  dup2\n  add\n  swap1\n  tag_12\n  swap2\n  swap1\n  tag_13\n  jump\t// in\ntag_12:\n    /* \"contracts/2_variables.sol\":688:758  bytes32 public hashing_sha256 = sha256(abi.encodePacked(\"Hola mundo\")) */\n  0x0c\n  sstore\n    /* \"contracts/2_variables.sol\":796:837  ripemd160(abi.encodePacked(\"Hola mundo\")) */\n  0x03\n    /* \"contracts/2_variables.sol\":806:836  abi.encodePacked(\"Hola mundo\") */\n  add(0x20, mload(0x40))\n  tag_14\n  swap1\n  tag_7\n  jump\t// in\ntag_14:\n  mload(0x40)\n  0x20\n  dup2\n  dup4\n  sub\n  sub\n  dup2\n  mstore\n  swap1\n  0x40\n  mstore\n    /* \"contracts/2_variables.sol\":796:837  ripemd160(abi.encodePacked(\"Hola mundo\")) */\n  mload(0x40)\n  tag_15\n  swap2\n  swap1\n  tag_9\n  jump\t// in\ntag_15:\n  0x20\n  mload(0x40)\n  dup1\n  dup4\n  sub\n  dup2\n  dup6\n  gas\n  staticcall\n  iszero\n  dup1\n  iszero\n  tag_17\n  jumpi\n  returndatasize\n  0x00\n  dup1\n  returndatacopy\n  revert(0x00, returndatasize)\ntag_17:\n  pop\n  pop\n  pop\n  shl(0x60, mload(mload(0x40)))\n    /* \"contracts/2_variables.sol\":761:837  bytes20 public hashing_ripemd160 = ripemd160(abi.encodePacked(\"Hola mundo\")) */\n  0x0d\n  exp(0x0100, 0x00)\n  dup2\n  sload\n  dup2\n  0xffffffffffffffffffffffffffffffffffffffff\n  mul\n  not\n  and\n  swap1\n  dup4\n  0x60\n  shr\n  mul\n  or\n  swap1\n  sstore\n  pop\n    /* \"contracts/2_variables.sol\":910:952  0x5B38Da6a701c568545dCfcB03FcB875f56beddC4 */\n  0x5b38da6a701c568545dcfcb03fcb875f56beddc4\n    /* \"contracts/2_variables.sol\":884:952  address public address1 = 0x5B38Da6a701c568545dCfcB03FcB875f56beddC4 */\n  0x0f\n  exp(0x0100, 0x00)\n  dup2\n  sload\n  dup2\n  0xffffffffffffffffffffffffffffffffffffffff\n  mul\n  not\n  and\n  swap1\n  dup4\n  0xffffffffffffffffffffffffffffffffffffffff\n  and\n  mul\n  or\n  swap1\n  sstore\n  pop\n    /* \"contracts/2_variables.sol\":981:991  msg.sender */\n  caller\n    /* \"contracts/2_variables.sol\":955:991  address public address2 = msg.sender */\n  0x10\n  exp(0x0100, 0x00)\n  dup2\n  sload\n  dup2\n  0xffffffffffffffffffffffffffffffffffffffff\n  mul\n  not\n  and\n  swap1\n  dup4\n  0xffffffffffffffffffffffffffffffffffffffff\n  and\n  mul\n  or\n  swap1\n  sstore\n  pop\n    /* \"contracts/2_variables.sol\":62:1314  contract variables{\r... */\n  callvalue\n  dup1\n  iszero\n  tag_18\n  jumpi\n  0x00\n  dup1\n  revert\ntag_18:\n  pop\n  jump(tag_19)\ntag_2:\n  dup3\n  dup1\n  sload\n  tag_20\n  swap1\n  tag_21\n  jump\t// in\ntag_20:\n  swap1\n  0x00\n  mstore\n  keccak256(0x00, 0x20)\n  swap1\n  0x1f\n  add\n  0x20\n  swap1\n  div\n  dup2\n  add\n  swap3\n  dup3\n  tag_23\n  jumpi\n  0x00\n  dup6\n  sstore\n  jump(tag_22)\ntag_23:\n  dup3\n  0x1f\n  lt\n  tag_24\n  jumpi\n  dup1\n  mload\n  not(0xff)\n  and\n  dup4\n  dup1\n  add\n  or\n  dup6\n  sstore\n  jump(tag_22)\ntag_24:\n  dup3\n  dup1\n  add\n  0x01\n  add\n  dup6\n  sstore\n  dup3\n  iszero\n  tag_22\n  jumpi\n  swap2\n  dup3\n  add\ntag_25:\n  dup3\n  dup2\n  gt\n  iszero\n  tag_26\n  jumpi\n  dup3\n  mload\n  dup3\n  sstore\n  swap2\n  0x20\n  add\n  swap2\n  swap1\n  0x01\n  add\n  swap1\n  jump(tag_25)\ntag_26:\ntag_22:\n  pop\n  swap1\n  pop\n  tag_27\n  swap2\n  swap1\n  tag_28\n  jump\t// in\ntag_27:\n  pop\n  swap1\n  jump\t// out\ntag_28:\ntag_29:\n  dup1\n  dup3\n  gt\n  iszero\n  tag_30\n  jumpi\n  0x00\n  dup2\n  0x00\n  swap1\n  sstore\n  pop\n  0x01\n  add\n  jump(tag_29)\ntag_30:\n  pop\n  swap1\n  jump\t// out\n    /* \"#utility.yul\":7:150   */\ntag_32:\n    /* \"#utility.yul\":64:69   */\n  0x00\n    /* \"#utility.yul\":95:101   */\n  dup2\n    /* \"#utility.yul\":89:102   */\n  mload\n    /* \"#utility.yul\":80:102   */\n  swap1\n  pop\n    /* \"#utility.yul\":111:144   */\n  tag_34\n    /* \"#utility.yul\":138:143   */\n  dup2\n    /* \"#utility.yul\":111:144   */\n  tag_35\n  jump\t// in\ntag_34:\n    /* \"#utility.yul\":7:150   */\n  swap3\n  swap2\n  pop\n  pop\n  jump\t// out\n    /* \"#utility.yul\":156:507   */\ntag_13:\n    /* \"#utility.yul\":226:232   */\n  0x00\n    /* \"#utility.yul\":275:277   */\n  0x20\n    /* \"#utility.yul\":263:272   */\n  dup3\n    /* \"#utility.yul\":254:261   */\n  dup5\n    /* \"#utility.yul\":250:273   */\n  sub\n    /* \"#utility.yul\":246:278   */\n  slt\n    /* \"#utility.yul\":243:362   */\n  iszero\n  tag_37\n  jumpi\n    /* \"#utility.yul\":281:360   */\n  tag_38\n  tag_39\n  jump\t// in\ntag_38:\n    /* \"#utility.yul\":243:362   */\ntag_37:\n    /* \"#utility.yul\":401:402   */\n  0x00\n    /* \"#utility.yul\":426:490   */\n  tag_40\n    /* \"#utility.yul\":482:489   */\n  dup5\n    /* \"#utility.yul\":473:479   */\n  dup3\n    /* \"#utility.yul\":462:471   */\n  dup6\n    /* \"#utility.yul\":458:480   */\n  add\n    /* \"#utility.yul\":426:490   */\n  tag_32\n  jump\t// in\ntag_40:\n    /* \"#utility.yul\":416:490   */\n  swap2\n  pop\n    /* \"#utility.yul\":372:500   */\n  pop\n    /* \"#utility.yul\":156:507   */\n  swap3\n  swap2\n  pop\n  pop\n  jump\t// out\n    /* \"#utility.yul\":513:670   */\ntag_41:\n    /* \"#utility.yul\":618:663   */\n  tag_43\n    /* \"#utility.yul\":638:662   */\n  tag_44\n    /* \"#utility.yul\":656:661   */\n  dup3\n    /* \"#utility.yul\":638:662   */\n  tag_45\n  jump\t// in\ntag_44:\n    /* \"#utility.yul\":618:663   */\n  tag_46\n  jump\t// in\ntag_43:\n    /* \"#utility.yul\":613:616   */\n  dup3\n    /* \"#utility.yul\":606:664   */\n  mstore\n    /* \"#utility.yul\":513:670   */\n  pop\n  pop\n  jump\t// out\n    /* \"#utility.yul\":676:1049   */\ntag_47:\n    /* \"#utility.yul\":780:783   */\n  0x00\n    /* \"#utility.yul\":808:846   */\n  tag_49\n    /* \"#utility.yul\":840:845   */\n  dup3\n    /* \"#utility.yul\":808:846   */\n  tag_50\n  jump\t// in\ntag_49:\n    /* \"#utility.yul\":862:950   */\n  tag_51\n    /* \"#utility.yul\":943:949   */\n  dup2\n    /* \"#utility.yul\":938:941   */\n  dup6\n    /* \"#utility.yul\":862:950   */\n  tag_52\n  jump\t// in\ntag_51:\n    /* \"#utility.yul\":855:950   */\n  swap4\n  pop\n    /* \"#utility.yul\":959:1011   */\n  tag_53\n    /* \"#utility.yul\":1004:1010   */\n  dup2\n    /* \"#utility.yul\":999:1002   */\n  dup6\n    /* \"#utility.yul\":992:996   */\n  0x20\n    /* \"#utility.yul\":985:990   */\n  dup7\n    /* \"#utility.yul\":981:997   */\n  add\n    /* \"#utility.yul\":959:1011   */\n  tag_54\n  jump\t// in\ntag_53:\n    /* \"#utility.yul\":1036:1042   */\n  dup1\n    /* \"#utility.yul\":1031:1034   */\n  dup5\n    /* \"#utility.yul\":1027:1043   */\n  add\n    /* \"#utility.yul\":1020:1043   */\n  swap2\n  pop\n    /* \"#utility.yul\":784:1049   */\n  pop\n    /* \"#utility.yul\":676:1049   */\n  swap3\n  swap2\n  pop\n  pop\n  jump\t// out\n    /* \"#utility.yul\":1055:1457   */\ntag_55:\n    /* \"#utility.yul\":1215:1218   */\n  0x00\n    /* \"#utility.yul\":1236:1321   */\n  tag_57\n    /* \"#utility.yul\":1318:1320   */\n  0x0a\n    /* \"#utility.yul\":1313:1316   */\n  dup4\n    /* \"#utility.yul\":1236:1321   */\n  tag_58\n  jump\t// in\ntag_57:\n    /* \"#utility.yul\":1229:1321   */\n  swap2\n  pop\n    /* \"#utility.yul\":1330:1423   */\n  tag_59\n    /* \"#utility.yul\":1419:1422   */\n  dup3\n    /* \"#utility.yul\":1330:1423   */\n  tag_60\n  jump\t// in\ntag_59:\n    /* \"#utility.yul\":1448:1450   */\n  0x0a\n    /* \"#utility.yul\":1443:1446   */\n  dup3\n    /* \"#utility.yul\":1439:1451   */\n  add\n    /* \"#utility.yul\":1432:1451   */\n  swap1\n  pop\n    /* \"#utility.yul\":1055:1457   */\n  swap2\n  swap1\n  pop\n  jump\t// out\n    /* \"#utility.yul\":1463:1620   */\ntag_61:\n    /* \"#utility.yul\":1568:1613   */\n  tag_63\n    /* \"#utility.yul\":1588:1612   */\n  tag_64\n    /* \"#utility.yul\":1606:1611   */\n  dup3\n    /* \"#utility.yul\":1588:1612   */\n  tag_65\n  jump\t// in\ntag_64:\n    /* \"#utility.yul\":1568:1613   */\n  tag_66\n  jump\t// in\ntag_63:\n    /* \"#utility.yul\":1563:1566   */\n  dup3\n    /* \"#utility.yul\":1556:1614   */\n  mstore\n    /* \"#utility.yul\":1463:1620   */\n  pop\n  pop\n  jump\t// out\n    /* \"#utility.yul\":1626:1897   */\ntag_9:\n    /* \"#utility.yul\":1756:1759   */\n  0x00\n    /* \"#utility.yul\":1778:1871   */\n  tag_68\n    /* \"#utility.yul\":1867:1870   */\n  dup3\n    /* \"#utility.yul\":1858:1864   */\n  dup5\n    /* \"#utility.yul\":1778:1871   */\n  tag_47\n  jump\t// in\ntag_68:\n    /* \"#utility.yul\":1771:1871   */\n  swap2\n  pop\n    /* \"#utility.yul\":1888:1891   */\n  dup2\n    /* \"#utility.yul\":1881:1891   */\n  swap1\n  pop\n    /* \"#utility.yul\":1626:1897   */\n  swap3\n  swap2\n  pop\n  pop\n  jump\t// out\n    /* \"#utility.yul\":1903:2284   */\ntag_7:\n    /* \"#utility.yul\":2088:2091   */\n  0x00\n    /* \"#utility.yul\":2110:2258   */\n  tag_70\n    /* \"#utility.yul\":2254:2257   */\n  dup3\n    /* \"#utility.yul\":2110:2258   */\n  tag_55\n  jump\t// in\ntag_70:\n    /* \"#utility.yul\":2103:2258   */\n  swap2\n  pop\n    /* \"#utility.yul\":2275:2278   */\n  dup2\n    /* \"#utility.yul\":2268:2278   */\n  swap1\n  pop\n    /* \"#utility.yul\":1903:2284   */\n  swap2\n  swap1\n  pop\n  jump\t// out\n    /* \"#utility.yul\":2290:2953   */\ntag_5:\n    /* \"#utility.yul\":2531:2534   */\n  0x00\n    /* \"#utility.yul\":2553:2701   */\n  tag_72\n    /* \"#utility.yul\":2697:2700   */\n  dup3\n    /* \"#utility.yul\":2553:2701   */\n  tag_55\n  jump\t// in\ntag_72:\n    /* \"#utility.yul\":2546:2701   */\n  swap2\n  pop\n    /* \"#utility.yul\":2711:2786   */\n  tag_73\n    /* \"#utility.yul\":2782:2785   */\n  dup3\n    /* \"#utility.yul\":2773:2779   */\n  dup6\n    /* \"#utility.yul\":2711:2786   */\n  tag_61\n  jump\t// in\ntag_73:\n    /* \"#utility.yul\":2811:2813   */\n  0x20\n    /* \"#utility.yul\":2806:2809   */\n  dup3\n    /* \"#utility.yul\":2802:2814   */\n  add\n    /* \"#utility.yul\":2795:2814   */\n  swap2\n  pop\n    /* \"#utility.yul\":2824:2899   */\n  tag_74\n    /* \"#utility.yul\":2895:2898   */\n  dup3\n    /* \"#utility.yul\":2886:2892   */\n  dup5\n    /* \"#utility.yul\":2824:2899   */\n  tag_41\n  jump\t// in\ntag_74:\n    /* \"#utility.yul\":2924:2926   */\n  0x14\n    /* \"#utility.yul\":2919:2922   */\n  dup3\n    /* \"#utility.yul\":2915:2927   */\n  add\n    /* \"#utility.yul\":2908:2927   */\n  swap2\n  pop\n    /* \"#utility.yul\":2944:2947   */\n  dup2\n    /* \"#utility.yul\":2937:2947   */\n  swap1\n  pop\n    /* \"#utility.yul\":2290:2953   */\n  swap4\n  swap3\n  pop\n  pop\n  pop\n  jump\t// out\n    /* \"#utility.yul\":3040:3138   */\ntag_50:\n    /* \"#utility.yul\":3091:3097   */\n  0x00\n    /* \"#utility.yul\":3125:3130   */\n  dup2\n    /* \"#utility.yul\":3119:3131   */\n  mload\n    /* \"#utility.yul\":3109:3131   */\n  swap1\n  pop\n    /* \"#utility.yul\":3040:3138   */\n  swap2\n  swap1\n  pop\n  jump\t// out\n    /* \"#utility.yul\":3144:3291   */\ntag_52:\n    /* \"#utility.yul\":3245:3256   */\n  0x00\n    /* \"#utility.yul\":3282:3285   */\n  dup2\n    /* \"#utility.yul\":3267:3285   */\n  swap1\n  pop\n    /* \"#utility.yul\":3144:3291   */\n  swap3\n  swap2\n  pop\n  pop\n  jump\t// out\n    /* \"#utility.yul\":3297:3445   */\ntag_58:\n    /* \"#utility.yul\":3399:3410   */\n  0x00\n    /* \"#utility.yul\":3436:3439   */\n  dup2\n    /* \"#utility.yul\":3421:3439   */\n  swap1\n  pop\n    /* \"#utility.yul\":3297:3445   */\n  swap3\n  swap2\n  pop\n  pop\n  jump\t// out\n    /* \"#utility.yul\":3451:3547   */\ntag_45:\n    /* \"#utility.yul\":3488:3495   */\n  0x00\n    /* \"#utility.yul\":3517:3541   */\n  tag_81\n    /* \"#utility.yul\":3535:3540   */\n  dup3\n    /* \"#utility.yul\":3517:3541   */\n  tag_82\n  jump\t// in\ntag_81:\n    /* \"#utility.yul\":3506:3541   */\n  swap1\n  pop\n    /* \"#utility.yul\":3451:3547   */\n  swap2\n  swap1\n  pop\n  jump\t// out\n    /* \"#utility.yul\":3553:3630   */\ntag_83:\n    /* \"#utility.yul\":3590:3597   */\n  0x00\n    /* \"#utility.yul\":3619:3624   */\n  dup2\n    /* \"#utility.yul\":3608:3624   */\n  swap1\n  pop\n    /* \"#utility.yul\":3553:3630   */\n  swap2\n  swap1\n  pop\n  jump\t// out\n    /* \"#utility.yul\":3636:3762   */\ntag_82:\n    /* \"#utility.yul\":3673:3680   */\n  0x00\n    /* \"#utility.yul\":3713:3755   */\n  0xffffffffffffffffffffffffffffffffffffffff\n    /* \"#utility.yul\":3706:3711   */\n  dup3\n    /* \"#utility.yul\":3702:3756   */\n  and\n    /* \"#utility.yul\":3691:3756   */\n  swap1\n  pop\n    /* \"#utility.yul\":3636:3762   */\n  swap2\n  swap1\n  pop\n  jump\t// out\n    /* \"#utility.yul\":3768:3845   */\ntag_65:\n    /* \"#utility.yul\":3805:3812   */\n  0x00\n    /* \"#utility.yul\":3834:3839   */\n  dup2\n    /* \"#utility.yul\":3823:3839   */\n  swap1\n  pop\n    /* \"#utility.yul\":3768:3845   */\n  swap2\n  swap1\n  pop\n  jump\t// out\n    /* \"#utility.yul\":3851:4158   */\ntag_54:\n    /* \"#utility.yul\":3919:3920   */\n  0x00\n    /* \"#utility.yul\":3929:4042   */\ntag_88:\n    /* \"#utility.yul\":3943:3949   */\n  dup4\n    /* \"#utility.yul\":3940:3941   */\n  dup2\n    /* \"#utility.yul\":3937:3950   */\n  lt\n    /* \"#utility.yul\":3929:4042   */\n  iszero\n  tag_90\n  jumpi\n    /* \"#utility.yul\":4028:4029   */\n  dup1\n    /* \"#utility.yul\":4023:4026   */\n  dup3\n    /* \"#utility.yul\":4019:4030   */\n  add\n    /* \"#utility.yul\":4013:4031   */\n  mload\n    /* \"#utility.yul\":4009:4010   */\n  dup2\n    /* \"#utility.yul\":4004:4007   */\n  dup5\n    /* \"#utility.yul\":4000:4011   */\n  add\n    /* \"#utility.yul\":3993:4032   */\n  mstore\n    /* \"#utility.yul\":3965:3967   */\n  0x20\n    /* \"#utility.yul\":3962:3963   */\n  dup2\n    /* \"#utility.yul\":3958:3968   */\n  add\n    /* \"#utility.yul\":3953:3968   */\n  swap1\n  pop\n    /* \"#utility.yul\":3929:4042   */\n  jump(tag_88)\ntag_90:\n    /* \"#utility.yul\":4060:4066   */\n  dup4\n    /* \"#utility.yul\":4057:4058   */\n  dup2\n    /* \"#utility.yul\":4054:4067   */\n  gt\n    /* \"#utility.yul\":4051:4152   */\n  iszero\n  tag_91\n  jumpi\n    /* \"#utility.yul\":4140:4141   */\n  0x00\n    /* \"#utility.yul\":4131:4137   */\n  dup5\n    /* \"#utility.yul\":4126:4129   */\n  dup5\n    /* \"#utility.yul\":4122:4138   */\n  add\n    /* \"#utility.yul\":4115:4142   */\n  mstore\n    /* \"#utility.yul\":4051:4152   */\ntag_91:\n    /* \"#utility.yul\":3900:4158   */\n  pop\n    /* \"#utility.yul\":3851:4158   */\n  pop\n  pop\n  pop\n  jump\t// out\n    /* \"#utility.yul\":4164:4484   */\ntag_21:\n    /* \"#utility.yul\":4208:4214   */\n  0x00\n    /* \"#utility.yul\":4245:4246   */\n  0x02\n    /* \"#utility.yul\":4239:4243   */\n  dup3\n    /* \"#utility.yul\":4235:4247   */\n  div\n    /* \"#utility.yul\":4225:4247   */\n  swap1\n  pop\n    /* \"#utility.yul\":4292:4293   */\n  0x01\n    /* \"#utility.yul\":4286:4290   */\n  dup3\n    /* \"#utility.yul\":4282:4294   */\n  and\n    /* \"#utility.yul\":4313:4331   */\n  dup1\n    /* \"#utility.yul\":4303:4384   */\n  tag_93\n  jumpi\n    /* \"#utility.yul\":4369:4373   */\n  0x7f\n    /* \"#utility.yul\":4361:4367   */\n  dup3\n    /* \"#utility.yul\":4357:4374   */\n  and\n    /* \"#utility.yul\":4347:4374   */\n  swap2\n  pop\n    /* \"#utility.yul\":4303:4384   */\ntag_93:\n    /* \"#utility.yul\":4431:4433   */\n  0x20\n    /* \"#utility.yul\":4423:4429   */\n  dup3\n    /* \"#utility.yul\":4420:4434   */\n  lt\n    /* \"#utility.yul\":4400:4418   */\n  dup2\n    /* \"#utility.yul\":4397:4435   */\n  eq\n    /* \"#utility.yul\":4394:4478   */\n  iszero\n  tag_94\n  jumpi\n    /* \"#utility.yul\":4450:4468   */\n  tag_95\n  tag_96\n  jump\t// in\ntag_95:\n    /* \"#utility.yul\":4394:4478   */\ntag_94:\n    /* \"#utility.yul\":4215:4484   */\n  pop\n    /* \"#utility.yul\":4164:4484   */\n  swap2\n  swap1\n  pop\n  jump\t// out\n    /* \"#utility.yul\":4490:4590   */\ntag_46:\n    /* \"#utility.yul\":4529:4536   */\n  0x00\n    /* \"#utility.yul\":4558:4584   */\n  tag_98\n    /* \"#utility.yul\":4578:4583   */\n  dup3\n    /* \"#utility.yul\":4558:4584   */\n  tag_99\n  jump\t// in\ntag_98:\n    /* \"#utility.yul\":4547:4584   */\n  swap1\n  pop\n    /* \"#utility.yul\":4490:4590   */\n  swap2\n  swap1\n  pop\n  jump\t// out\n    /* \"#utility.yul\":4596:4690   */\ntag_99:\n    /* \"#utility.yul\":4635:4642   */\n  0x00\n    /* \"#utility.yul\":4664:4684   */\n  tag_101\n    /* \"#utility.yul\":4678:4683   */\n  dup3\n    /* \"#utility.yul\":4664:4684   */\n  tag_102\n  jump\t// in\ntag_101:\n    /* \"#utility.yul\":4653:4684   */\n  swap1\n  pop\n    /* \"#utility.yul\":4596:4690   */\n  swap2\n  swap1\n  pop\n  jump\t// out\n    /* \"#utility.yul\":4696:4775   */\ntag_66:\n    /* \"#utility.yul\":4735:4742   */\n  0x00\n    /* \"#utility.yul\":4764:4769   */\n  dup2\n    /* \"#utility.yul\":4753:4769   */\n  swap1\n  pop\n    /* \"#utility.yul\":4696:4775   */\n  swap2\n  swap1\n  pop\n  jump\t// out\n    /* \"#utility.yul\":4781:4961   */\ntag_96:\n    /* \"#utility.yul\":4829:4906   */\n  0x4e487b7100000000000000000000000000000000000000000000000000000000\n    /* \"#utility.yul\":4826:4827   */\n  0x00\n    /* \"#utility.yul\":4819:4907   */\n  mstore\n    /* \"#utility.yul\":4926:4930   */\n  0x22\n    /* \"#utility.yul\":4923:4924   */\n  0x04\n    /* \"#utility.yul\":4916:4931   */\n  mstore\n    /* \"#utility.yul\":4950:4954   */\n  0x24\n    /* \"#utility.yul\":4947:4948   */\n  0x00\n    /* \"#utility.yul\":4940:4955   */\n  revert\n    /* \"#utility.yul\":5090:5207   */\ntag_39:\n    /* \"#utility.yul\":5199:5200   */\n  0x00\n    /* \"#utility.yul\":5196:5197   */\n  dup1\n    /* \"#utility.yul\":5189:5201   */\n  revert\n    /* \"#utility.yul\":5213:5307   */\ntag_102:\n    /* \"#utility.yul\":5246:5254   */\n  0x00\n    /* \"#utility.yul\":5294:5299   */\n  dup2\n    /* \"#utility.yul\":5290:5292   */\n  0x60\n    /* \"#utility.yul\":5286:5300   */\n  shl\n    /* \"#utility.yul\":5265:5300   */\n  swap1\n  pop\n    /* \"#utility.yul\":5213:5307   */\n  swap2\n  swap1\n  pop\n  jump\t// out\n    /* \"#utility.yul\":5313:5473   */\ntag_60:\n    /* \"#utility.yul\":5453:5465   */\n  0x486f6c61206d756e646f00000000000000000000000000000000000000000000\n    /* \"#utility.yul\":5449:5450   */\n  0x00\n    /* \"#utility.yul\":5441:5447   */\n  dup3\n    /* \"#utility.yul\":5437:5451   */\n  add\n    /* \"#utility.yul\":5430:5466   */\n  mstore\n    /* \"#utility.yul\":5313:5473   */\n  pop\n  jump\t// out\n    /* \"#utility.yul\":5479:5601   */\ntag_35:\n    /* \"#utility.yul\":5552:5576   */\n  tag_111\n    /* \"#utility.yul\":5570:5575   */\n  dup2\n    /* \"#utility.yul\":5552:5576   */\n  tag_83\n  jump\t// in\ntag_111:\n    /* \"#utility.yul\":5545:5550   */\n  dup2\n    /* \"#utility.yul\":5542:5577   */\n  eq\n    /* \"#utility.yul\":5532:5595   */\n  tag_112\n  jumpi\n    /* \"#utility.yul\":5591:5592   */\n  0x00\n    /* \"#utility.yul\":5588:5589   */\n  dup1\n    /* \"#utility.yul\":5581:5593   */\n  revert\n    /* \"#utility.yul\":5532:5595   */\ntag_112:\n    /* \"#utility.yul\":5479:5601   */\n  pop\n  jump\t// out\n    /* \"contracts/2_variables.sol\":62:1314  contract variables{\r... */\ntag_19:\n  dataSize(sub_0)\n  dup1\n  dataOffset(sub_0)\n  0x00\n  codecopy\n  0x00\n  return\nstop\n\nsub_0: assembly {\n        /* \"contracts/2_variables.sol\":62:1314  contract variables{\r... */\n      mstore(0x40, 0x80)\n      callvalue\n      dup1\n      iszero\n      tag_1\n      jumpi\n      0x00\n      dup1\n      revert\n    tag_1:\n      pop\n      jumpi(tag_2, lt(calldatasize, 0x04))\n      shr(0xe0, calldataload(0x00))\n      dup1\n      0x8a054ac2\n      gt\n      tag_15\n      jumpi\n      dup1\n      0x8a054ac2\n      eq\n      tag_9\n      jumpi\n      dup1\n      0x9eea4a3a\n      eq\n      tag_10\n      jumpi\n      dup1\n      0xaf10c810\n      eq\n      tag_11\n      jumpi\n      dup1\n      0xb83d07b7\n      eq\n      tag_12\n      jumpi\n      dup1\n      0xba33ed7d\n      eq\n      tag_13\n      jumpi\n      dup1\n      0xc7109d04\n      eq\n      tag_14\n      jumpi\n      jump(tag_2)\n    tag_15:\n      dup1\n      0x2b73648d\n      eq\n      tag_3\n      jumpi\n      dup1\n      0x312eef29\n      eq\n      tag_4\n      jumpi\n      dup1\n      0x3a36399e\n      eq\n      tag_5\n      jumpi\n      dup1\n      0x4df7e3d0\n      eq\n      tag_6\n      jumpi\n      dup1\n      0x7272eea1\n      eq\n      tag_7\n      jumpi\n      dup1\n      0x7a68ef7f\n      eq\n      tag_8\n      jumpi\n    tag_2:\n      0x00\n      dup1\n      revert\n        /* \"contracts/2_variables.sol\":587:685  bytes32 public hashing_keccak256 = keccak256(abi.encodePacked(\"Hola mundo\", uint(10), msg.sender)) */\n    tag_3:\n      tag_16\n      tag_17\n      jump\t// in\n    tag_16:\n      mload(0x40)\n      tag_18\n      swap2\n      swap1\n      tag_19\n      jump\t// in\n    tag_18:\n      mload(0x40)\n      dup1\n      swap2\n      sub\n      swap1\n      return\n        /* \"contracts/2_variables.sol\":410:441  bool public boolean_true = true */\n    tag_4:\n      tag_20\n      tag_21\n      jump\t// in\n    tag_20:\n      mload(0x40)\n      tag_22\n      swap2\n      swap1\n      tag_23\n      jump\t// in\n    tag_22:\n      mload(0x40)\n      dup1\n      swap2\n      sub\n      swap1\n      return\n        /* \"contracts/2_variables.sol\":884:952  address public address1 = 0x5B38Da6a701c568545dCfcB03FcB875f56beddC4 */\n    tag_5:\n      tag_24\n      tag_25\n      jump\t// in\n    tag_24:\n      mload(0x40)\n      tag_26\n      swap2\n      swap1\n      tag_27\n      jump\t// in\n    tag_26:\n      mload(0x40)\n      dup1\n      swap2\n      sub\n      swap1\n      return\n        /* \"contracts/2_variables.sol\":138:156  uint8 public b = 3 */\n    tag_6:\n      tag_28\n      tag_29\n      jump\t// in\n    tag_28:\n      mload(0x40)\n      tag_30\n      swap2\n      swap1\n      tag_31\n      jump\t// in\n    tag_30:\n      mload(0x40)\n      dup1\n      swap2\n      sub\n      swap1\n      return\n        /* \"contracts/2_variables.sol\":1227:1305  function displayState() public view returns (options){\r... */\n    tag_7:\n      tag_32\n      tag_33\n      jump\t// in\n    tag_32:\n      mload(0x40)\n      tag_34\n      swap2\n      swap1\n      tag_35\n      jump\t// in\n    tag_34:\n      mload(0x40)\n      dup1\n      swap2\n      sub\n      swap1\n      return\n        /* \"contracts/2_variables.sol\":761:837  bytes20 public hashing_ripemd160 = ripemd160(abi.encodePacked(\"Hola mundo\")) */\n    tag_8:\n      tag_36\n      tag_37\n      jump\t// in\n    tag_36:\n      mload(0x40)\n      tag_38\n      swap2\n      swap1\n      tag_39\n      jump\t// in\n    tag_38:\n      mload(0x40)\n      dup1\n      swap2\n      sub\n      swap1\n      return\n        /* \"contracts/2_variables.sol\":207:226  int8 public d = -32 */\n    tag_9:\n      tag_40\n      tag_41\n      jump\t// in\n    tag_40:\n      mload(0x40)\n      tag_42\n      swap2\n      swap1\n      tag_43\n      jump\t// in\n    tag_42:\n      mload(0x40)\n      dup1\n      swap2\n      sub\n      swap1\n      return\n        /* \"contracts/2_variables.sol\":955:991  address public address2 = msg.sender */\n    tag_10:\n      tag_44\n      tag_45\n      jump\t// in\n    tag_44:\n      mload(0x40)\n      tag_46\n      swap2\n      swap1\n      tag_27\n      jump\t// in\n    tag_46:\n      mload(0x40)\n      dup1\n      swap2\n      sub\n      swap1\n      return\n        /* \"contracts/2_variables.sol\":1169:1225  function turnOff() public {\r... */\n    tag_11:\n      tag_47\n      tag_48\n      jump\t// in\n    tag_47:\n      stop\n        /* \"contracts/2_variables.sol\":276:320  string public str_public = \"Esto es publico\" */\n    tag_12:\n      tag_49\n      tag_50\n      jump\t// in\n    tag_49:\n      mload(0x40)\n      tag_51\n      swap2\n      swap1\n      tag_52\n      jump\t// in\n    tag_51:\n      mload(0x40)\n      dup1\n      swap2\n      sub\n      swap1\n      return\n        /* \"contracts/2_variables.sol\":1112:1165  function turnOn() public{\r... */\n    tag_13:\n      tag_53\n      tag_54\n      jump\t// in\n    tag_53:\n      stop\n        /* \"contracts/2_variables.sol\":688:758  bytes32 public hashing_sha256 = sha256(abi.encodePacked(\"Hola mundo\")) */\n    tag_14:\n      tag_55\n      tag_56\n      jump\t// in\n    tag_55:\n      mload(0x40)\n      tag_57\n      swap2\n      swap1\n      tag_19\n      jump\t// in\n    tag_57:\n      mload(0x40)\n      dup1\n      swap2\n      sub\n      swap1\n      return\n        /* \"contracts/2_variables.sol\":587:685  bytes32 public hashing_keccak256 = keccak256(abi.encodePacked(\"Hola mundo\", uint(10), msg.sender)) */\n    tag_17:\n      sload(0x0b)\n      dup2\n      jump\t// out\n        /* \"contracts/2_variables.sol\":410:441  bool public boolean_true = true */\n    tag_21:\n      0x08\n      0x01\n      swap1\n      sload\n      swap1\n      0x0100\n      exp\n      swap1\n      div\n      0xff\n      and\n      dup2\n      jump\t// out\n        /* \"contracts/2_variables.sol\":884:952  address public address1 = 0x5B38Da6a701c568545dCfcB03FcB875f56beddC4 */\n    tag_25:\n      0x0f\n      0x00\n      swap1\n      sload\n      swap1\n      0x0100\n      exp\n      swap1\n      div\n      0xffffffffffffffffffffffffffffffffffffffff\n      and\n      dup2\n      jump\t// out\n        /* \"contracts/2_variables.sol\":138:156  uint8 public b = 3 */\n    tag_29:\n      0x01\n      0x00\n      swap1\n      sload\n      swap1\n      0x0100\n      exp\n      swap1\n      div\n      0xff\n      and\n      dup2\n      jump\t// out\n        /* \"contracts/2_variables.sol\":1227:1305  function displayState() public view returns (options){\r... */\n    tag_33:\n        /* \"contracts/2_variables.sol\":1272:1279  options */\n      0x00\n        /* \"contracts/2_variables.sol\":1294:1299  state */\n      0x10\n      0x14\n      swap1\n      sload\n      swap1\n      0x0100\n      exp\n      swap1\n      div\n      0xff\n      and\n        /* \"contracts/2_variables.sol\":1287:1299  return state */\n      swap1\n      pop\n        /* \"contracts/2_variables.sol\":1227:1305  function displayState() public view returns (options){\r... */\n      swap1\n      jump\t// out\n        /* \"contracts/2_variables.sol\":761:837  bytes20 public hashing_ripemd160 = ripemd160(abi.encodePacked(\"Hola mundo\")) */\n    tag_37:\n      0x0d\n      0x00\n      swap1\n      sload\n      swap1\n      0x0100\n      exp\n      swap1\n      div\n      0x60\n      shl\n      dup2\n      jump\t// out\n        /* \"contracts/2_variables.sol\":207:226  int8 public d = -32 */\n    tag_41:\n      0x03\n      0x00\n      swap1\n      sload\n      swap1\n      0x0100\n      exp\n      swap1\n      div\n      0x00\n      signextend\n      dup2\n      jump\t// out\n        /* \"contracts/2_variables.sol\":955:991  address public address2 = msg.sender */\n    tag_45:\n      0x10\n      0x00\n      swap1\n      sload\n      swap1\n      0x0100\n      exp\n      swap1\n      div\n      0xffffffffffffffffffffffffffffffffffffffff\n      and\n      dup2\n      jump\t// out\n        /* \"contracts/2_variables.sol\":1169:1225  function turnOff() public {\r... */\n    tag_48:\n        /* \"contracts/2_variables.sol\":1210:1221  options.OFF */\n      0x01\n        /* \"contracts/2_variables.sol\":1202:1207  state */\n      0x10\n      0x14\n        /* \"contracts/2_variables.sol\":1202:1221  state = options.OFF */\n      0x0100\n      exp\n      dup2\n      sload\n      dup2\n      0xff\n      mul\n      not\n      and\n      swap1\n      dup4\n      0x01\n      dup2\n      gt\n      iszero\n      tag_60\n      jumpi\n      tag_61\n      tag_62\n      jump\t// in\n    tag_61:\n    tag_60:\n      mul\n      or\n      swap1\n      sstore\n      pop\n        /* \"contracts/2_variables.sol\":1169:1225  function turnOff() public {\r... */\n      jump\t// out\n        /* \"contracts/2_variables.sol\":276:320  string public str_public = \"Esto es publico\" */\n    tag_50:\n      0x06\n      dup1\n      sload\n      tag_63\n      swap1\n      tag_64\n      jump\t// in\n    tag_63:\n      dup1\n      0x1f\n      add\n      0x20\n      dup1\n      swap2\n      div\n      mul\n      0x20\n      add\n      mload(0x40)\n      swap1\n      dup2\n      add\n      0x40\n      mstore\n      dup1\n      swap3\n      swap2\n      swap1\n      dup2\n      dup2\n      mstore\n      0x20\n      add\n      dup3\n      dup1\n      sload\n      tag_65\n      swap1\n      tag_64\n      jump\t// in\n    tag_65:\n      dup1\n      iszero\n      tag_66\n      jumpi\n      dup1\n      0x1f\n      lt\n      tag_67\n      jumpi\n      0x0100\n      dup1\n      dup4\n      sload\n      div\n      mul\n      dup4\n      mstore\n      swap2\n      0x20\n      add\n      swap2\n      jump(tag_66)\n    tag_67:\n      dup3\n      add\n      swap2\n      swap1\n      0x00\n      mstore\n      keccak256(0x00, 0x20)\n      swap1\n    tag_68:\n      dup2\n      sload\n      dup2\n      mstore\n      swap1\n      0x01\n      add\n      swap1\n      0x20\n      add\n      dup1\n      dup4\n      gt\n      tag_68\n      jumpi\n      dup3\n      swap1\n      sub\n      0x1f\n      and\n      dup3\n      add\n      swap2\n    tag_66:\n      pop\n      pop\n      pop\n      pop\n      pop\n      dup2\n      jump\t// out\n        /* \"contracts/2_variables.sol\":1112:1165  function turnOn() public{\r... */\n    tag_54:\n        /* \"contracts/2_variables.sol\":1151:1161  options.ON */\n      0x00\n        /* \"contracts/2_variables.sol\":1143:1148  state */\n      0x10\n      0x14\n        /* \"contracts/2_variables.sol\":1143:1161  state = options.ON */\n      0x0100\n      exp\n      dup2\n      sload\n      dup2\n      0xff\n      mul\n      not\n      and\n      swap1\n      dup4\n      0x01\n      dup2\n      gt\n      iszero\n      tag_70\n      jumpi\n      tag_71\n      tag_62\n      jump\t// in\n    tag_71:\n    tag_70:\n      mul\n      or\n      swap1\n      sstore\n      pop\n        /* \"contracts/2_variables.sol\":1112:1165  function turnOn() public{\r... */\n      jump\t// out\n        /* \"contracts/2_variables.sol\":688:758  bytes32 public hashing_sha256 = sha256(abi.encodePacked(\"Hola mundo\")) */\n    tag_56:\n      sload(0x0c)\n      dup2\n      jump\t// out\n        /* \"#utility.yul\":7:125   */\n    tag_73:\n        /* \"#utility.yul\":94:118   */\n      tag_75\n        /* \"#utility.yul\":112:117   */\n      dup2\n        /* \"#utility.yul\":94:118   */\n      tag_76\n      jump\t// in\n    tag_75:\n        /* \"#utility.yul\":89:92   */\n      dup3\n        /* \"#utility.yul\":82:119   */\n      mstore\n        /* \"#utility.yul\":7:125   */\n      pop\n      pop\n      jump\t// out\n        /* \"#utility.yul\":131:240   */\n    tag_77:\n        /* \"#utility.yul\":212:233   */\n      tag_79\n        /* \"#utility.yul\":227:232   */\n      dup2\n        /* \"#utility.yul\":212:233   */\n      tag_80\n      jump\t// in\n    tag_79:\n        /* \"#utility.yul\":207:210   */\n      dup3\n        /* \"#utility.yul\":200:234   */\n      mstore\n        /* \"#utility.yul\":131:240   */\n      pop\n      pop\n      jump\t// out\n        /* \"#utility.yul\":246:364   */\n    tag_81:\n        /* \"#utility.yul\":333:357   */\n      tag_83\n        /* \"#utility.yul\":351:356   */\n      dup2\n        /* \"#utility.yul\":333:357   */\n      tag_84\n      jump\t// in\n    tag_83:\n        /* \"#utility.yul\":328:331   */\n      dup3\n        /* \"#utility.yul\":321:358   */\n      mstore\n        /* \"#utility.yul\":246:364   */\n      pop\n      pop\n      jump\t// out\n        /* \"#utility.yul\":370:488   */\n    tag_85:\n        /* \"#utility.yul\":457:481   */\n      tag_87\n        /* \"#utility.yul\":475:480   */\n      dup2\n        /* \"#utility.yul\":457:481   */\n      tag_88\n      jump\t// in\n    tag_87:\n        /* \"#utility.yul\":452:455   */\n      dup3\n        /* \"#utility.yul\":445:482   */\n      mstore\n        /* \"#utility.yul\":370:488   */\n      pop\n      pop\n      jump\t// out\n        /* \"#utility.yul\":494:641   */\n    tag_89:\n        /* \"#utility.yul\":589:634   */\n      tag_91\n        /* \"#utility.yul\":628:633   */\n      dup2\n        /* \"#utility.yul\":589:634   */\n      tag_92\n      jump\t// in\n    tag_91:\n        /* \"#utility.yul\":584:587   */\n      dup3\n        /* \"#utility.yul\":577:635   */\n      mstore\n        /* \"#utility.yul\":494:641   */\n      pop\n      pop\n      jump\t// out\n        /* \"#utility.yul\":647:756   */\n    tag_93:\n        /* \"#utility.yul\":728:749   */\n      tag_95\n        /* \"#utility.yul\":743:748   */\n      dup2\n        /* \"#utility.yul\":728:749   */\n      tag_96\n      jump\t// in\n    tag_95:\n        /* \"#utility.yul\":723:726   */\n      dup3\n        /* \"#utility.yul\":716:750   */\n      mstore\n        /* \"#utility.yul\":647:756   */\n      pop\n      pop\n      jump\t// out\n        /* \"#utility.yul\":762:1126   */\n    tag_97:\n        /* \"#utility.yul\":850:853   */\n      0x00\n        /* \"#utility.yul\":878:917   */\n      tag_99\n        /* \"#utility.yul\":911:916   */\n      dup3\n        /* \"#utility.yul\":878:917   */\n      tag_100\n      jump\t// in\n    tag_99:\n        /* \"#utility.yul\":933:1004   */\n      tag_101\n        /* \"#utility.yul\":997:1003   */\n      dup2\n        /* \"#utility.yul\":992:995   */\n      dup6\n        /* \"#utility.yul\":933:1004   */\n      tag_102\n      jump\t// in\n    tag_101:\n        /* \"#utility.yul\":926:1004   */\n      swap4\n      pop\n        /* \"#utility.yul\":1013:1065   */\n      tag_103\n        /* \"#utility.yul\":1058:1064   */\n      dup2\n        /* \"#utility.yul\":1053:1056   */\n      dup6\n        /* \"#utility.yul\":1046:1050   */\n      0x20\n        /* \"#utility.yul\":1039:1044   */\n      dup7\n        /* \"#utility.yul\":1035:1051   */\n      add\n        /* \"#utility.yul\":1013:1065   */\n      tag_104\n      jump\t// in\n    tag_103:\n        /* \"#utility.yul\":1090:1119   */\n      tag_105\n        /* \"#utility.yul\":1112:1118   */\n      dup2\n        /* \"#utility.yul\":1090:1119   */\n      tag_106\n      jump\t// in\n    tag_105:\n        /* \"#utility.yul\":1085:1088   */\n      dup5\n        /* \"#utility.yul\":1081:1120   */\n      add\n        /* \"#utility.yul\":1074:1120   */\n      swap2\n      pop\n        /* \"#utility.yul\":854:1126   */\n      pop\n        /* \"#utility.yul\":762:1126   */\n      swap3\n      swap2\n      pop\n      pop\n      jump\t// out\n        /* \"#utility.yul\":1132:1244   */\n    tag_107:\n        /* \"#utility.yul\":1215:1237   */\n      tag_109\n        /* \"#utility.yul\":1231:1236   */\n      dup2\n        /* \"#utility.yul\":1215:1237   */\n      tag_110\n      jump\t// in\n    tag_109:\n        /* \"#utility.yul\":1210:1213   */\n      dup3\n        /* \"#utility.yul\":1203:1238   */\n      mstore\n        /* \"#utility.yul\":1132:1244   */\n      pop\n      pop\n      jump\t// out\n        /* \"#utility.yul\":1250:1472   */\n    tag_27:\n        /* \"#utility.yul\":1343:1347   */\n      0x00\n        /* \"#utility.yul\":1381:1383   */\n      0x20\n        /* \"#utility.yul\":1370:1379   */\n      dup3\n        /* \"#utility.yul\":1366:1384   */\n      add\n        /* \"#utility.yul\":1358:1384   */\n      swap1\n      pop\n        /* \"#utility.yul\":1394:1465   */\n      tag_112\n        /* \"#utility.yul\":1462:1463   */\n      0x00\n        /* \"#utility.yul\":1451:1460   */\n      dup4\n        /* \"#utility.yul\":1447:1464   */\n      add\n        /* \"#utility.yul\":1438:1444   */\n      dup5\n        /* \"#utility.yul\":1394:1465   */\n      tag_73\n      jump\t// in\n    tag_112:\n        /* \"#utility.yul\":1250:1472   */\n      swap3\n      swap2\n      pop\n      pop\n      jump\t// out\n        /* \"#utility.yul\":1478:1688   */\n    tag_23:\n        /* \"#utility.yul\":1565:1569   */\n      0x00\n        /* \"#utility.yul\":1603:1605   */\n      0x20\n        /* \"#utility.yul\":1592:1601   */\n      dup3\n        /* \"#utility.yul\":1588:1606   */\n      add\n        /* \"#utility.yul\":1580:1606   */\n      swap1\n      pop\n        /* \"#utility.yul\":1616:1681   */\n      tag_114\n        /* \"#utility.yul\":1678:1679   */\n      0x00\n        /* \"#utility.yul\":1667:1676   */\n      dup4\n        /* \"#utility.yul\":1663:1680   */\n      add\n        /* \"#utility.yul\":1654:1660   */\n      dup5\n        /* \"#utility.yul\":1616:1681   */\n      tag_77\n      jump\t// in\n    tag_114:\n        /* \"#utility.yul\":1478:1688   */\n      swap3\n      swap2\n      pop\n      pop\n      jump\t// out\n        /* \"#utility.yul\":1694:1916   */\n    tag_39:\n        /* \"#utility.yul\":1787:1791   */\n      0x00\n        /* \"#utility.yul\":1825:1827   */\n      0x20\n        /* \"#utility.yul\":1814:1823   */\n      dup3\n        /* \"#utility.yul\":1810:1828   */\n      add\n        /* \"#utility.yul\":1802:1828   */\n      swap1\n      pop\n        /* \"#utility.yul\":1838:1909   */\n      tag_116\n        /* \"#utility.yul\":1906:1907   */\n      0x00\n        /* \"#utility.yul\":1895:1904   */\n      dup4\n        /* \"#utility.yul\":1891:1908   */\n      add\n        /* \"#utility.yul\":1882:1888   */\n      dup5\n        /* \"#utility.yul\":1838:1909   */\n      tag_81\n      jump\t// in\n    tag_116:\n        /* \"#utility.yul\":1694:1916   */\n      swap3\n      swap2\n      pop\n      pop\n      jump\t// out\n        /* \"#utility.yul\":1922:2144   */\n    tag_19:\n        /* \"#utility.yul\":2015:2019   */\n      0x00\n        /* \"#utility.yul\":2053:2055   */\n      0x20\n        /* \"#utility.yul\":2042:2051   */\n      dup3\n        /* \"#utility.yul\":2038:2056   */\n      add\n        /* \"#utility.yul\":2030:2056   */\n      swap1\n      pop\n        /* \"#utility.yul\":2066:2137   */\n      tag_118\n        /* \"#utility.yul\":2134:2135   */\n      0x00\n        /* \"#utility.yul\":2123:2132   */\n      dup4\n        /* \"#utility.yul\":2119:2136   */\n      add\n        /* \"#utility.yul\":2110:2116   */\n      dup5\n        /* \"#utility.yul\":2066:2137   */\n      tag_85\n      jump\t// in\n    tag_118:\n        /* \"#utility.yul\":1922:2144   */\n      swap3\n      swap2\n      pop\n      pop\n      jump\t// out\n        /* \"#utility.yul\":2150:2388   */\n    tag_35:\n        /* \"#utility.yul\":2251:2255   */\n      0x00\n        /* \"#utility.yul\":2289:2291   */\n      0x20\n        /* \"#utility.yul\":2278:2287   */\n      dup3\n        /* \"#utility.yul\":2274:2292   */\n      add\n        /* \"#utility.yul\":2266:2292   */\n      swap1\n      pop\n        /* \"#utility.yul\":2302:2381   */\n      tag_120\n        /* \"#utility.yul\":2378:2379   */\n      0x00\n        /* \"#utility.yul\":2367:2376   */\n      dup4\n        /* \"#utility.yul\":2363:2380   */\n      add\n        /* \"#utility.yul\":2354:2360   */\n      dup5\n        /* \"#utility.yul\":2302:2381   */\n      tag_89\n      jump\t// in\n    tag_120:\n        /* \"#utility.yul\":2150:2388   */\n      swap3\n      swap2\n      pop\n      pop\n      jump\t// out\n        /* \"#utility.yul\":2394:2604   */\n    tag_43:\n        /* \"#utility.yul\":2481:2485   */\n      0x00\n        /* \"#utility.yul\":2519:2521   */\n      0x20\n        /* \"#utility.yul\":2508:2517   */\n      dup3\n        /* \"#utility.yul\":2504:2522   */\n      add\n        /* \"#utility.yul\":2496:2522   */\n      swap1\n      pop\n        /* \"#utility.yul\":2532:2597   */\n      tag_122\n        /* \"#utility.yul\":2594:2595   */\n      0x00\n        /* \"#utility.yul\":2583:2592   */\n      dup4\n        /* \"#utility.yul\":2579:2596   */\n      add\n        /* \"#utility.yul\":2570:2576   */\n      dup5\n        /* \"#utility.yul\":2532:2597   */\n      tag_93\n      jump\t// in\n    tag_122:\n        /* \"#utility.yul\":2394:2604   */\n      swap3\n      swap2\n      pop\n      pop\n      jump\t// out\n        /* \"#utility.yul\":2610:2923   */\n    tag_52:\n        /* \"#utility.yul\":2723:2727   */\n      0x00\n        /* \"#utility.yul\":2761:2763   */\n      0x20\n        /* \"#utility.yul\":2750:2759   */\n      dup3\n        /* \"#utility.yul\":2746:2764   */\n      add\n        /* \"#utility.yul\":2738:2764   */\n      swap1\n      pop\n        /* \"#utility.yul\":2810:2819   */\n      dup2\n        /* \"#utility.yul\":2804:2808   */\n      dup2\n        /* \"#utility.yul\":2800:2820   */\n      sub\n        /* \"#utility.yul\":2796:2797   */\n      0x00\n        /* \"#utility.yul\":2785:2794   */\n      dup4\n        /* \"#utility.yul\":2781:2798   */\n      add\n        /* \"#utility.yul\":2774:2821   */\n      mstore\n        /* \"#utility.yul\":2838:2916   */\n      tag_124\n        /* \"#utility.yul\":2911:2915   */\n      dup2\n        /* \"#utility.yul\":2902:2908   */\n      dup5\n        /* \"#utility.yul\":2838:2916   */\n      tag_97\n      jump\t// in\n    tag_124:\n        /* \"#utility.yul\":2830:2916   */\n      swap1\n      pop\n        /* \"#utility.yul\":2610:2923   */\n      swap3\n      swap2\n      pop\n      pop\n      jump\t// out\n        /* \"#utility.yul\":2929:3143   */\n    tag_31:\n        /* \"#utility.yul\":3018:3022   */\n      0x00\n        /* \"#utility.yul\":3056:3058   */\n      0x20\n        /* \"#utility.yul\":3045:3054   */\n      dup3\n        /* \"#utility.yul\":3041:3059   */\n      add\n        /* \"#utility.yul\":3033:3059   */\n      swap1\n      pop\n        /* \"#utility.yul\":3069:3136   */\n      tag_126\n        /* \"#utility.yul\":3133:3134   */\n      0x00\n        /* \"#utility.yul\":3122:3131   */\n      dup4\n        /* \"#utility.yul\":3118:3135   */\n      add\n        /* \"#utility.yul\":3109:3115   */\n      dup5\n        /* \"#utility.yul\":3069:3136   */\n      tag_107\n      jump\t// in\n    tag_126:\n        /* \"#utility.yul\":2929:3143   */\n      swap3\n      swap2\n      pop\n      pop\n      jump\t// out\n        /* \"#utility.yul\":3149:3248   */\n    tag_100:\n        /* \"#utility.yul\":3201:3207   */\n      0x00\n        /* \"#utility.yul\":3235:3240   */\n      dup2\n        /* \"#utility.yul\":3229:3241   */\n      mload\n        /* \"#utility.yul\":3219:3241   */\n      swap1\n      pop\n        /* \"#utility.yul\":3149:3248   */\n      swap2\n      swap1\n      pop\n      jump\t// out\n        /* \"#utility.yul\":3254:3423   */\n    tag_102:\n        /* \"#utility.yul\":3338:3349   */\n      0x00\n        /* \"#utility.yul\":3372:3378   */\n      dup3\n        /* \"#utility.yul\":3367:3370   */\n      dup3\n        /* \"#utility.yul\":3360:3379   */\n      mstore\n        /* \"#utility.yul\":3412:3416   */\n      0x20\n        /* \"#utility.yul\":3407:3410   */\n      dup3\n        /* \"#utility.yul\":3403:3417   */\n      add\n        /* \"#utility.yul\":3388:3417   */\n      swap1\n      pop\n        /* \"#utility.yul\":3254:3423   */\n      swap3\n      swap2\n      pop\n      pop\n      jump\t// out\n        /* \"#utility.yul\":3429:3525   */\n    tag_76:\n        /* \"#utility.yul\":3466:3473   */\n      0x00\n        /* \"#utility.yul\":3495:3519   */\n      tag_130\n        /* \"#utility.yul\":3513:3518   */\n      dup3\n        /* \"#utility.yul\":3495:3519   */\n      tag_131\n      jump\t// in\n    tag_130:\n        /* \"#utility.yul\":3484:3519   */\n      swap1\n      pop\n        /* \"#utility.yul\":3429:3525   */\n      swap2\n      swap1\n      pop\n      jump\t// out\n        /* \"#utility.yul\":3531:3621   */\n    tag_80:\n        /* \"#utility.yul\":3565:3572   */\n      0x00\n        /* \"#utility.yul\":3608:3613   */\n      dup2\n        /* \"#utility.yul\":3601:3614   */\n      iszero\n        /* \"#utility.yul\":3594:3615   */\n      iszero\n        /* \"#utility.yul\":3583:3615   */\n      swap1\n      pop\n        /* \"#utility.yul\":3531:3621   */\n      swap2\n      swap1\n      pop\n      jump\t// out\n        /* \"#utility.yul\":3627:3777   */\n    tag_84:\n        /* \"#utility.yul\":3664:3671   */\n      0x00\n        /* \"#utility.yul\":3704:3770   */\n      0xffffffffffffffffffffffffffffffffffffffff000000000000000000000000\n        /* \"#utility.yul\":3697:3702   */\n      dup3\n        /* \"#utility.yul\":3693:3771   */\n      and\n        /* \"#utility.yul\":3682:3771   */\n      swap1\n      pop\n        /* \"#utility.yul\":3627:3777   */\n      swap2\n      swap1\n      pop\n      jump\t// out\n        /* \"#utility.yul\":3783:3860   */\n    tag_88:\n        /* \"#utility.yul\":3820:3827   */\n      0x00\n        /* \"#utility.yul\":3849:3854   */\n      dup2\n        /* \"#utility.yul\":3838:3854   */\n      swap1\n      pop\n        /* \"#utility.yul\":3783:3860   */\n      swap2\n      swap1\n      pop\n      jump\t// out\n        /* \"#utility.yul\":3866:3997   */\n    tag_135:\n        /* \"#utility.yul\":3913:3920   */\n      0x00\n        /* \"#utility.yul\":3942:3947   */\n      dup2\n        /* \"#utility.yul\":3931:3947   */\n      swap1\n      pop\n        /* \"#utility.yul\":3948:3991   */\n      tag_137\n        /* \"#utility.yul\":3985:3990   */\n      dup3\n        /* \"#utility.yul\":3948:3991   */\n      tag_138\n      jump\t// in\n    tag_137:\n        /* \"#utility.yul\":3866:3997   */\n      swap2\n      swap1\n      pop\n      jump\t// out\n        /* \"#utility.yul\":4003:4092   */\n    tag_96:\n        /* \"#utility.yul\":4037:4044   */\n      0x00\n        /* \"#utility.yul\":4080:4085   */\n      dup2\n        /* \"#utility.yul\":4077:4078   */\n      0x00\n        /* \"#utility.yul\":4066:4086   */\n      signextend\n        /* \"#utility.yul\":4055:4086   */\n      swap1\n      pop\n        /* \"#utility.yul\":4003:4092   */\n      swap2\n      swap1\n      pop\n      jump\t// out\n        /* \"#utility.yul\":4098:4224   */\n    tag_131:\n        /* \"#utility.yul\":4135:4142   */\n      0x00\n        /* \"#utility.yul\":4175:4217   */\n      0xffffffffffffffffffffffffffffffffffffffff\n        /* \"#utility.yul\":4168:4173   */\n      dup3\n        /* \"#utility.yul\":4164:4218   */\n      and\n        /* \"#utility.yul\":4153:4218   */\n      swap1\n      pop\n        /* \"#utility.yul\":4098:4224   */\n      swap2\n      swap1\n      pop\n      jump\t// out\n        /* \"#utility.yul\":4230:4316   */\n    tag_110:\n        /* \"#utility.yul\":4265:4272   */\n      0x00\n        /* \"#utility.yul\":4305:4309   */\n      0xff\n        /* \"#utility.yul\":4298:4303   */\n      dup3\n        /* \"#utility.yul\":4294:4310   */\n      and\n        /* \"#utility.yul\":4283:4310   */\n      swap1\n      pop\n        /* \"#utility.yul\":4230:4316   */\n      swap2\n      swap1\n      pop\n      jump\t// out\n        /* \"#utility.yul\":4322:4453   */\n    tag_92:\n        /* \"#utility.yul\":4380:4389   */\n      0x00\n        /* \"#utility.yul\":4413:4447   */\n      tag_143\n        /* \"#utility.yul\":4441:4446   */\n      dup3\n        /* \"#utility.yul\":4413:4447   */\n      tag_135\n      jump\t// in\n    tag_143:\n        /* \"#utility.yul\":4400:4447   */\n      swap1\n      pop\n        /* \"#utility.yul\":4322:4453   */\n      swap2\n      swap1\n      pop\n      jump\t// out\n        /* \"#utility.yul\":4459:4766   */\n    tag_104:\n        /* \"#utility.yul\":4527:4528   */\n      0x00\n        /* \"#utility.yul\":4537:4650   */\n    tag_145:\n        /* \"#utility.yul\":4551:4557   */\n      dup4\n        /* \"#utility.yul\":4548:4549   */\n      dup2\n        /* \"#utility.yul\":4545:4558   */\n      lt\n        /* \"#utility.yul\":4537:4650   */\n      iszero\n      tag_147\n      jumpi\n        /* \"#utility.yul\":4636:4637   */\n      dup1\n        /* \"#utility.yul\":4631:4634   */\n      dup3\n        /* \"#utility.yul\":4627:4638   */\n      add\n        /* \"#utility.yul\":4621:4639   */\n      mload\n        /* \"#utility.yul\":4617:4618   */\n      dup2\n        /* \"#utility.yul\":4612:4615   */\n      dup5\n        /* \"#utility.yul\":4608:4619   */\n      add\n        /* \"#utility.yul\":4601:4640   */\n      mstore\n        /* \"#utility.yul\":4573:4575   */\n      0x20\n        /* \"#utility.yul\":4570:4571   */\n      dup2\n        /* \"#utility.yul\":4566:4576   */\n      add\n        /* \"#utility.yul\":4561:4576   */\n      swap1\n      pop\n        /* \"#utility.yul\":4537:4650   */\n      jump(tag_145)\n    tag_147:\n        /* \"#utility.yul\":4668:4674   */\n      dup4\n        /* \"#utility.yul\":4665:4666   */\n      dup2\n        /* \"#utility.yul\":4662:4675   */\n      gt\n        /* \"#utility.yul\":4659:4760   */\n      iszero\n      tag_148\n      jumpi\n        /* \"#utility.yul\":4748:4749   */\n      0x00\n        /* \"#utility.yul\":4739:4745   */\n      dup5\n        /* \"#utility.yul\":4734:4737   */\n      dup5\n        /* \"#utility.yul\":4730:4746   */\n      add\n        /* \"#utility.yul\":4723:4750   */\n      mstore\n        /* \"#utility.yul\":4659:4760   */\n    tag_148:\n        /* \"#utility.yul\":4508:4766   */\n      pop\n        /* \"#utility.yul\":4459:4766   */\n      pop\n      pop\n      pop\n      jump\t// out\n        /* \"#utility.yul\":4772:5092   */\n    tag_64:\n        /* \"#utility.yul\":4816:4822   */\n      0x00\n        /* \"#utility.yul\":4853:4854   */\n      0x02\n        /* \"#utility.yul\":4847:4851   */\n      dup3\n        /* \"#utility.yul\":4843:4855   */\n      div\n        /* \"#utility.yul\":4833:4855   */\n      swap1\n      pop\n        /* \"#utility.yul\":4900:4901   */\n      0x01\n        /* \"#utility.yul\":4894:4898   */\n      dup3\n        /* \"#utility.yul\":4890:4902   */\n      and\n        /* \"#utility.yul\":4921:4939   */\n      dup1\n        /* \"#utility.yul\":4911:4992   */\n      tag_150\n      jumpi\n        /* \"#utility.yul\":4977:4981   */\n      0x7f\n        /* \"#utility.yul\":4969:4975   */\n      dup3\n        /* \"#utility.yul\":4965:4982   */\n      and\n        /* \"#utility.yul\":4955:4982   */\n      swap2\n      pop\n        /* \"#utility.yul\":4911:4992   */\n    tag_150:\n        /* \"#utility.yul\":5039:5041   */\n      0x20\n        /* \"#utility.yul\":5031:5037   */\n      dup3\n        /* \"#utility.yul\":5028:5042   */\n      lt\n        /* \"#utility.yul\":5008:5026   */\n      dup2\n        /* \"#utility.yul\":5005:5043   */\n      eq\n        /* \"#utility.yul\":5002:5086   */\n      iszero\n      tag_151\n      jumpi\n        /* \"#utility.yul\":5058:5076   */\n      tag_152\n      tag_153\n      jump\t// in\n    tag_152:\n        /* \"#utility.yul\":5002:5086   */\n    tag_151:\n        /* \"#utility.yul\":4823:5092   */\n      pop\n        /* \"#utility.yul\":4772:5092   */\n      swap2\n      swap1\n      pop\n      jump\t// out\n        /* \"#utility.yul\":5098:5278   */\n    tag_62:\n        /* \"#utility.yul\":5146:5223   */\n      0x4e487b7100000000000000000000000000000000000000000000000000000000\n        /* \"#utility.yul\":5143:5144   */\n      0x00\n        /* \"#utility.yul\":5136:5224   */\n      mstore\n        /* \"#utility.yul\":5243:5247   */\n      0x21\n        /* \"#utility.yul\":5240:5241   */\n      0x04\n        /* \"#utility.yul\":5233:5248   */\n      mstore\n        /* \"#utility.yul\":5267:5271   */\n      0x24\n        /* \"#utility.yul\":5264:5265   */\n      0x00\n        /* \"#utility.yul\":5257:5272   */\n      revert\n        /* \"#utility.yul\":5284:5464   */\n    tag_153:\n        /* \"#utility.yul\":5332:5409   */\n      0x4e487b7100000000000000000000000000000000000000000000000000000000\n        /* \"#utility.yul\":5329:5330   */\n      0x00\n        /* \"#utility.yul\":5322:5410   */\n      mstore\n        /* \"#utility.yul\":5429:5433   */\n      0x22\n        /* \"#utility.yul\":5426:5427   */\n      0x04\n        /* \"#utility.yul\":5419:5434   */\n      mstore\n        /* \"#utility.yul\":5453:5457   */\n      0x24\n        /* \"#utility.yul\":5450:5451   */\n      0x00\n        /* \"#utility.yul\":5443:5458   */\n      revert\n        /* \"#utility.yul\":5470:5572   */\n    tag_106:\n        /* \"#utility.yul\":5511:5517   */\n      0x00\n        /* \"#utility.yul\":5562:5564   */\n      0x1f\n        /* \"#utility.yul\":5558:5565   */\n      not\n        /* \"#utility.yul\":5553:5555   */\n      0x1f\n        /* \"#utility.yul\":5546:5551   */\n      dup4\n        /* \"#utility.yul\":5542:5556   */\n      add\n        /* \"#utility.yul\":5538:5566   */\n      and\n        /* \"#utility.yul\":5528:5566   */\n      swap1\n      pop\n        /* \"#utility.yul\":5470:5572   */\n      swap2\n      swap1\n      pop\n      jump\t// out\n        /* \"#utility.yul\":5578:5693   */\n    tag_138:\n        /* \"#utility.yul\":5661:5662   */\n      0x02\n        /* \"#utility.yul\":5654:5659   */\n      dup2\n        /* \"#utility.yul\":5651:5663   */\n      lt\n        /* \"#utility.yul\":5641:5687   */\n      tag_158\n      jumpi\n        /* \"#utility.yul\":5667:5685   */\n      tag_159\n      tag_62\n      jump\t// in\n    tag_159:\n        /* \"#utility.yul\":5641:5687   */\n    tag_158:\n        /* \"#utility.yul\":5578:5693   */\n      pop\n      jump\t// out\n\n    auxdata: 0xa26469706673582212208b01a32b630b9bf5dab2cd80f61338970e2d096ad0f287a56ab171df4af3397764736f6c63430008070033\n}\n",
				"bytecode": {
					"linkReferences": {},
					"object": "60806040526003600160006101000a81548160ff021916908360ff1602179055507fffffffffffffffffffffffffffffffffffffffffffffffffffffffffffffffe0600360006101000a81548160ff021916908360000b60ff16021790555060416004556040518060400160405280600f81526020017f4573746f206573207075626c69636f000000000000000000000000000000000081525060069080519060200190620000b09291906200030b565b506040518060400160405280600f81526020017f4573746f206573207072697661646f000000000000000000000000000000000081525060079080519060200190620000fe9291906200030b565b506001600860016101000a81548160ff0219169083151502179055506000600860026101000a81548160ff021916908315150217905550600a336040516020016200014b929190620004c8565b60405160208183030381529060405280519060200120600b5560026040516020016200017790620004b1565b60405160208183030381529060405260405162000195919062000498565b602060405180830381855afa158015620001b3573d6000803e3d6000fd5b5050506040513d601f19601f82011682018060405250810190620001d89190620003d2565b600c556003604051602001620001ee90620004b1565b6040516020818303038152906040526040516200020c919062000498565b602060405180830381855afa1580156200022a573d6000803e3d6000fd5b5050506040515160601b600d60006101000a81548173ffffffffffffffffffffffffffffffffffffffff021916908360601c0217905550735b38da6a701c568545dcfcb03fcb875f56beddc4600f60006101000a81548173ffffffffffffffffffffffffffffffffffffffff021916908373ffffffffffffffffffffffffffffffffffffffff16021790555033601060006101000a81548173ffffffffffffffffffffffffffffffffffffffff021916908373ffffffffffffffffffffffffffffffffffffffff1602179055503480156200030457600080fd5b5062000690565b8280546200031990620005a4565b90600052602060002090601f0160209004810192826200033d576000855562000389565b82601f106200035857805160ff191683800117855562000389565b8280016001018555821562000389579182015b82811115620003885782518255916020019190600101906200036b565b5b5090506200039891906200039c565b5090565b5b80821115620003b75760008160009055506001016200039d565b5090565b600081519050620003cc8162000676565b92915050565b600060208284031215620003eb57620003ea6200063b565b5b6000620003fb84828501620003bb565b91505092915050565b62000419620004138262000526565b620005da565b82525050565b60006200042c8262000505565b62000438818562000510565b93506200044a8185602086016200056e565b80840191505092915050565b600062000465600a836200051b565b915062000472826200064d565b600a82019050919050565b620004926200048c8262000564565b62000602565b82525050565b6000620004a682846200041f565b915081905092915050565b6000620004be8262000456565b9150819050919050565b6000620004d58262000456565b9150620004e382856200047d565b602082019150620004f5828462000404565b6014820191508190509392505050565b600081519050919050565b600081905092915050565b600081905092915050565b6000620005338262000544565b9050919050565b6000819050919050565b600073ffffffffffffffffffffffffffffffffffffffff82169050919050565b6000819050919050565b60005b838110156200058e57808201518184015260208101905062000571565b838111156200059e576000848401525b50505050565b60006002820490506001821680620005bd57607f821691505b60208210811415620005d457620005d36200060c565b5b50919050565b6000620005e782620005ee565b9050919050565b6000620005fb8262000640565b9050919050565b6000819050919050565b7f4e487b7100000000000000000000000000000000000000000000000000000000600052602260045260246000fd5b600080fd5b60008160601b9050919050565b7f486f6c61206d756e646f00000000000000000000000000000000000000000000600082015250565b62000681816200053a565b81146200068d57600080fd5b50565b61070a80620006a06000396000f3fe608060405234801561001057600080fd5b50600436106100b45760003560e01c80638a054ac2116100715780638a054ac21461016d5780639eea4a3a1461018b578063af10c810146101a9578063b83d07b7146101b3578063ba33ed7d146101d1578063c7109d04146101db576100b4565b80632b73648d146100b9578063312eef29146100d75780633a36399e146100f55780634df7e3d0146101135780637272eea1146101315780637a68ef7f1461014f575b600080fd5b6100c16101f9565b6040516100ce919061048f565b60405180910390f35b6100df6101ff565b6040516100ec9190610459565b60405180910390f35b6100fd610212565b60405161010a919061043e565b60405180910390f35b61011b610238565b6040516101289190610502565b60405180910390f35b61013961024b565b60405161014691906104aa565b60405180910390f35b610157610262565b6040516101649190610474565b60405180910390f35b610175610275565b60405161018291906104c5565b60405180910390f35b610193610288565b6040516101a0919061043e565b60405180910390f35b6101b16102ae565b005b6101bb6102db565b6040516101c891906104e0565b60405180910390f35b6101d9610369565b005b6101e3610396565b6040516101f0919061048f565b60405180910390f35b600b5481565b600860019054906101000a900460ff1681565b600f60009054906101000a900473ffffffffffffffffffffffffffffffffffffffff1681565b600160009054906101000a900460ff1681565b6000601060149054906101000a900460ff16905090565b600d60009054906101000a900460601b81565b600360009054906101000a900460000b81565b601060009054906101000a900473ffffffffffffffffffffffffffffffffffffffff1681565b6001601060146101000a81548160ff021916908360018111156102d4576102d3610651565b5b0217905550565b600680546102e89061061f565b80601f01602080910402602001604051908101604052809291908181526020018280546103149061061f565b80156103615780601f1061033657610100808354040283529160200191610361565b820191906000526020600020905b81548152906001019060200180831161034457829003601f168201915b505050505081565b6000601060146101000a81548160ff0219169083600181111561038f5761038e610651565b5b0217905550565b600c5481565b6103a581610539565b82525050565b6103b48161054b565b82525050565b6103c381610557565b82525050565b6103d281610583565b82525050565b6103e1816105da565b82525050565b6103f0816105a0565b82525050565b60006104018261051d565b61040b8185610528565b935061041b8185602086016105ec565b610424816106af565b840191505092915050565b610438816105cd565b82525050565b6000602082019050610453600083018461039c565b92915050565b600060208201905061046e60008301846103ab565b92915050565b600060208201905061048960008301846103ba565b92915050565b60006020820190506104a460008301846103c9565b92915050565b60006020820190506104bf60008301846103d8565b92915050565b60006020820190506104da60008301846103e7565b92915050565b600060208201905081810360008301526104fa81846103f6565b905092915050565b6000602082019050610517600083018461042f565b92915050565b600081519050919050565b600082825260208201905092915050565b6000610544826105ad565b9050919050565b60008115159050919050565b60007fffffffffffffffffffffffffffffffffffffffff00000000000000000000000082169050919050565b6000819050919050565b600081905061059b826106c0565b919050565b60008160000b9050919050565b600073ffffffffffffffffffffffffffffffffffffffff82169050919050565b600060ff82169050919050565b60006105e58261058d565b9050919050565b60005b8381101561060a5780820151818401526020810190506105ef565b83811115610619576000848401525b50505050565b6000600282049050600182168061063757607f821691505b6020821081141561064b5761064a610680565b5b50919050565b7f4e487b7100000000000000000000000000000000000000000000000000000000600052602160045260246000fd5b7f4e487b7100000000000000000000000000000000000000000000000000000000600052602260045260246000fd5b6000601f19601f8301169050919050565b600281106106d1576106d0610651565b5b5056fea26469706673582212208b01a32b630b9bf5dab2cd80f61338970e2d096ad0f287a56ab171df4af3397764736f6c63430008070033",
					"opcodes": "PUSH1 0x80 PUSH1 0x40 MSTORE PUSH1 0x3 PUSH1 0x1 PUSH1 0x0 PUSH2 0x100 EXP DUP2 SLOAD DUP2 PUSH1 0xFF MUL NOT AND SWAP1 DUP4 PUSH1 0xFF AND MUL OR SWAP1 SSTORE POP PUSH32 0xFFFFFFFFFFFFFFFFFFFFFFFFFFFFFFFFFFFFFFFFFFFFFFFFFFFFFFFFFFFFFFE0 PUSH1 0x3 PUSH1 0x0 PUSH2 0x100 EXP DUP2 SLOAD DUP2 PUSH1 0xFF MUL NOT AND SWAP1 DUP4 PUSH1 0x0 SIGNEXTEND PUSH1 0xFF AND MUL OR SWAP1 SSTORE POP PUSH1 0x41 PUSH1 0x4 SSTORE PUSH1 0x40 MLOAD DUP1 PUSH1 0x40 ADD PUSH1 0x40 MSTORE DUP1 PUSH1 0xF DUP2 MSTORE PUSH1 0x20 ADD PUSH32 0x4573746F206573207075626C69636F0000000000000000000000000000000000 DUP2 MSTORE POP PUSH1 0x6 SWAP1 DUP1 MLOAD SWAP1 PUSH1 0x20 ADD SWAP1 PUSH3 0xB0 SWAP3 SWAP2 SWAP1 PUSH3 0x30B JUMP JUMPDEST POP PUSH1 0x40 MLOAD DUP1 PUSH1 0x40 ADD PUSH1 0x40 MSTORE DUP1 PUSH1 0xF DUP2 MSTORE PUSH1 0x20 ADD PUSH32 0x4573746F206573207072697661646F0000000000000000000000000000000000 DUP2 MSTORE POP PUSH1 0x7 SWAP1 DUP1 MLOAD SWAP1 PUSH1 0x20 ADD SWAP1 PUSH3 0xFE SWAP3 SWAP2 SWAP1 PUSH3 0x30B JUMP JUMPDEST POP PUSH1 0x1 PUSH1 0x8 PUSH1 0x1 PUSH2 0x100 EXP DUP2 SLOAD DUP2 PUSH1 0xFF MUL NOT AND SWAP1 DUP4 ISZERO ISZERO MUL OR SWAP1 SSTORE POP PUSH1 0x0 PUSH1 0x8 PUSH1 0x2 PUSH2 0x100 EXP DUP2 SLOAD DUP2 PUSH1 0xFF MUL NOT AND SWAP1 DUP4 ISZERO ISZERO MUL OR SWAP1 SSTORE POP PUSH1 0xA CALLER PUSH1 0x40 MLOAD PUSH1 0x20 ADD PUSH3 0x14B SWAP3 SWAP2 SWAP1 PUSH3 0x4C8 JUMP JUMPDEST PUSH1 0x40 MLOAD PUSH1 0x20 DUP2 DUP4 SUB SUB DUP2 MSTORE SWAP1 PUSH1 0x40 MSTORE DUP1 MLOAD SWAP1 PUSH1 0x20 ADD KECCAK256 PUSH1 0xB SSTORE PUSH1 0x2 PUSH1 0x40 MLOAD PUSH1 0x20 ADD PUSH3 0x177 SWAP1 PUSH3 0x4B1 JUMP JUMPDEST PUSH1 0x40 MLOAD PUSH1 0x20 DUP2 DUP4 SUB SUB DUP2 MSTORE SWAP1 PUSH1 0x40 MSTORE PUSH1 0x40 MLOAD PUSH3 0x195 SWAP2 SWAP1 PUSH3 0x498 JUMP JUMPDEST PUSH1 0x20 PUSH1 0x40 MLOAD DUP1 DUP4 SUB DUP2 DUP6 GAS STATICCALL ISZERO DUP1 ISZERO PUSH3 0x1B3 JUMPI RETURNDATASIZE PUSH1 0x0 DUP1 RETURNDATACOPY RETURNDATASIZE PUSH1 0x0 REVERT JUMPDEST POP POP POP PUSH1 0x40 MLOAD RETURNDATASIZE PUSH1 0x1F NOT PUSH1 0x1F DUP3 ADD AND DUP3 ADD DUP1 PUSH1 0x40 MSTORE POP DUP2 ADD SWAP1 PUSH3 0x1D8 SWAP2 SWAP1 PUSH3 0x3D2 JUMP JUMPDEST PUSH1 0xC SSTORE PUSH1 0x3 PUSH1 0x40 MLOAD PUSH1 0x20 ADD PUSH3 0x1EE SWAP1 PUSH3 0x4B1 JUMP JUMPDEST PUSH1 0x40 MLOAD PUSH1 0x20 DUP2 DUP4 SUB SUB DUP2 MSTORE SWAP1 PUSH1 0x40 MSTORE PUSH1 0x40 MLOAD PUSH3 0x20C SWAP2 SWAP1 PUSH3 0x498 JUMP JUMPDEST PUSH1 0x20 PUSH1 0x40 MLOAD DUP1 DUP4 SUB DUP2 DUP6 GAS STATICCALL ISZERO DUP1 ISZERO PUSH3 0x22A JUMPI RETURNDATASIZE PUSH1 0x0 DUP1 RETURNDATACOPY RETURNDATASIZE PUSH1 0x0 REVERT JUMPDEST POP POP POP PUSH1 0x40 MLOAD MLOAD PUSH1 0x60 SHL PUSH1 0xD PUSH1 0x0 PUSH2 0x100 EXP DUP2 SLOAD DUP2 PUSH20 0xFFFFFFFFFFFFFFFFFFFFFFFFFFFFFFFFFFFFFFFF MUL NOT AND SWAP1 DUP4 PUSH1 0x60 SHR MUL OR SWAP1 SSTORE POP PUSH20 0x5B38DA6A701C568545DCFCB03FCB875F56BEDDC4 PUSH1 0xF PUSH1 0x0 PUSH2 0x100 EXP DUP2 SLOAD DUP2 PUSH20 0xFFFFFFFFFFFFFFFFFFFFFFFFFFFFFFFFFFFFFFFF MUL NOT AND SWAP1 DUP4 PUSH20 0xFFFFFFFFFFFFFFFFFFFFFFFFFFFFFFFFFFFFFFFF AND MUL OR SWAP1 SSTORE POP CALLER PUSH1 0x10 PUSH1 0x0 PUSH2 0x100 EXP DUP2 SLOAD DUP2 PUSH20 0xFFFFFFFFFFFFFFFFFFFFFFFFFFFFFFFFFFFFFFFF MUL NOT AND SWAP1 DUP4 PUSH20 0xFFFFFFFFFFFFFFFFFFFFFFFFFFFFFFFFFFFFFFFF AND MUL OR SWAP1 SSTORE POP CALLVALUE DUP1 ISZERO PUSH3 0x304 JUMPI PUSH1 0x0 DUP1 REVERT JUMPDEST POP PUSH3 0x690 JUMP JUMPDEST DUP3 DUP1 SLOAD PUSH3 0x319 SWAP1 PUSH3 0x5A4 JUMP JUMPDEST SWAP1 PUSH1 0x0 MSTORE PUSH1 0x20 PUSH1 0x0 KECCAK256 SWAP1 PUSH1 0x1F ADD PUSH1 0x20 SWAP1 DIV DUP2 ADD SWAP3 DUP3 PUSH3 0x33D JUMPI PUSH1 0x0 DUP6 SSTORE PUSH3 0x389 JUMP JUMPDEST DUP3 PUSH1 0x1F LT PUSH3 0x358 JUMPI DUP1 MLOAD PUSH1 0xFF NOT AND DUP4 DUP1 ADD OR DUP6 SSTORE PUSH3 0x389 JUMP JUMPDEST DUP3 DUP1 ADD PUSH1 0x1 ADD DUP6 SSTORE DUP3 ISZERO PUSH3 0x389 JUMPI SWAP2 DUP3 ADD JUMPDEST DUP3 DUP2 GT ISZERO PUSH3 0x388 JUMPI DUP3 MLOAD DUP3 SSTORE SWAP2 PUSH1 0x20 ADD SWAP2 SWAP1 PUSH1 0x1 ADD SWAP1 PUSH3 0x36B JUMP JUMPDEST JUMPDEST POP SWAP1 POP PUSH3 0x398 SWAP2 SWAP1 PUSH3 0x39C JUMP JUMPDEST POP SWAP1 JUMP JUMPDEST JUMPDEST DUP1 DUP3 GT ISZERO PUSH3 0x3B7 JUMPI PUSH1 0x0 DUP2 PUSH1 0x0 SWAP1 SSTORE POP PUSH1 0x1 ADD PUSH3 0x39D JUMP JUMPDEST POP SWAP1 JUMP JUMPDEST PUSH1 0x0 DUP2 MLOAD SWAP1 POP PUSH3 0x3CC DUP2 PUSH3 0x676 JUMP JUMPDEST SWAP3 SWAP2 POP POP JUMP JUMPDEST PUSH1 0x0 PUSH1 0x20 DUP3 DUP5 SUB SLT ISZERO PUSH3 0x3EB JUMPI PUSH3 0x3EA PUSH3 0x63B JUMP JUMPDEST JUMPDEST PUSH1 0x0 PUSH3 0x3FB DUP5 DUP3 DUP6 ADD PUSH3 0x3BB JUMP JUMPDEST SWAP2 POP POP SWAP3 SWAP2 POP POP JUMP JUMPDEST PUSH3 0x419 PUSH3 0x413 DUP3 PUSH3 0x526 JUMP JUMPDEST PUSH3 0x5DA JUMP JUMPDEST DUP3 MSTORE POP POP JUMP JUMPDEST PUSH1 0x0 PUSH3 0x42C DUP3 PUSH3 0x505 JUMP JUMPDEST PUSH3 0x438 DUP2 DUP6 PUSH3 0x510 JUMP JUMPDEST SWAP4 POP PUSH3 0x44A DUP2 DUP6 PUSH1 0x20 DUP7 ADD PUSH3 0x56E JUMP JUMPDEST DUP1 DUP5 ADD SWAP2 POP POP SWAP3 SWAP2 POP POP JUMP JUMPDEST PUSH1 0x0 PUSH3 0x465 PUSH1 0xA DUP4 PUSH3 0x51B JUMP JUMPDEST SWAP2 POP PUSH3 0x472 DUP3 PUSH3 0x64D JUMP JUMPDEST PUSH1 0xA DUP3 ADD SWAP1 POP SWAP2 SWAP1 POP JUMP JUMPDEST PUSH3 0x492 PUSH3 0x48C DUP3 PUSH3 0x564 JUMP JUMPDEST PUSH3 0x602 JUMP JUMPDEST DUP3 MSTORE POP POP JUMP JUMPDEST PUSH1 0x0 PUSH3 0x4A6 DUP3 DUP5 PUSH3 0x41F JUMP JUMPDEST SWAP2 POP DUP2 SWAP1 POP SWAP3 SWAP2 POP POP JUMP JUMPDEST PUSH1 0x0 PUSH3 0x4BE DUP3 PUSH3 0x456 JUMP JUMPDEST SWAP2 POP DUP2 SWAP1 POP SWAP2 SWAP1 POP JUMP JUMPDEST PUSH1 0x0 PUSH3 0x4D5 DUP3 PUSH3 0x456 JUMP JUMPDEST SWAP2 POP PUSH3 0x4E3 DUP3 DUP6 PUSH3 0x47D JUMP JUMPDEST PUSH1 0x20 DUP3 ADD SWAP2 POP PUSH3 0x4F5 DUP3 DUP5 PUSH3 0x404 JUMP JUMPDEST PUSH1 0x14 DUP3 ADD SWAP2 POP DUP2 SWAP1 POP SWAP4 SWAP3 POP POP POP JUMP JUMPDEST PUSH1 0x0 DUP2 MLOAD SWAP1 POP SWAP2 SWAP1 POP JUMP JUMPDEST PUSH1 0x0 DUP2 SWAP1 POP SWAP3 SWAP2 POP POP JUMP JUMPDEST PUSH1 0x0 DUP2 SWAP1 POP SWAP3 SWAP2 POP POP JUMP JUMPDEST PUSH1 0x0 PUSH3 0x533 DUP3 PUSH3 0x544 JUMP JUMPDEST SWAP1 POP SWAP2 SWAP1 POP JUMP JUMPDEST PUSH1 0x0 DUP2 SWAP1 POP SWAP2 SWAP1 POP JUMP JUMPDEST PUSH1 0x0 PUSH20 0xFFFFFFFFFFFFFFFFFFFFFFFFFFFFFFFFFFFFFFFF DUP3 AND SWAP1 POP SWAP2 SWAP1 POP JUMP JUMPDEST PUSH1 0x0 DUP2 SWAP1 POP SWAP2 SWAP1 POP JUMP JUMPDEST PUSH1 0x0 JUMPDEST DUP4 DUP2 LT ISZERO PUSH3 0x58E JUMPI DUP1 DUP3 ADD MLOAD DUP2 DUP5 ADD MSTORE PUSH1 0x20 DUP2 ADD SWAP1 POP PUSH3 0x571 JUMP JUMPDEST DUP4 DUP2 GT ISZERO PUSH3 0x59E JUMPI PUSH1 0x0 DUP5 DUP5 ADD MSTORE JUMPDEST POP POP POP POP JUMP JUMPDEST PUSH1 0x0 PUSH1 0x2 DUP3 DIV SWAP1 POP PUSH1 0x1 DUP3 AND DUP1 PUSH3 0x5BD JUMPI PUSH1 0x7F DUP3 AND SWAP2 POP JUMPDEST PUSH1 0x20 DUP3 LT DUP2 EQ ISZERO PUSH3 0x5D4 JUMPI PUSH3 0x5D3 PUSH3 0x60C JUMP JUMPDEST JUMPDEST POP SWAP2 SWAP1 POP JUMP JUMPDEST PUSH1 0x0 PUSH3 0x5E7 DUP3 PUSH3 0x5EE JUMP JUMPDEST SWAP1 POP SWAP2 SWAP1 POP JUMP JUMPDEST PUSH1 0x0 PUSH3 0x5FB DUP3 PUSH3 0x640 JUMP JUMPDEST SWAP1 POP SWAP2 SWAP1 POP JUMP JUMPDEST PUSH1 0x0 DUP2 SWAP1 POP SWAP2 SWAP1 POP JUMP JUMPDEST PUSH32 0x4E487B7100000000000000000000000000000000000000000000000000000000 PUSH1 0x0 MSTORE PUSH1 0x22 PUSH1 0x4 MSTORE PUSH1 0x24 PUSH1 0x0 REVERT JUMPDEST PUSH1 0x0 DUP1 REVERT JUMPDEST PUSH1 0x0 DUP2 PUSH1 0x60 SHL SWAP1 POP SWAP2 SWAP1 POP JUMP JUMPDEST PUSH32 0x486F6C61206D756E646F00000000000000000000000000000000000000000000 PUSH1 0x0 DUP3 ADD MSTORE POP JUMP JUMPDEST PUSH3 0x681 DUP2 PUSH3 0x53A JUMP JUMPDEST DUP2 EQ PUSH3 0x68D JUMPI PUSH1 0x0 DUP1 REVERT JUMPDEST POP JUMP JUMPDEST PUSH2 0x70A DUP1 PUSH3 0x6A0 PUSH1 0x0 CODECOPY PUSH1 0x0 RETURN INVALID PUSH1 0x80 PUSH1 0x40 MSTORE CALLVALUE DUP1 ISZERO PUSH2 0x10 JUMPI PUSH1 0x0 DUP1 REVERT JUMPDEST POP PUSH1 0x4 CALLDATASIZE LT PUSH2 0xB4 JUMPI PUSH1 0x0 CALLDATALOAD PUSH1 0xE0 SHR DUP1 PUSH4 0x8A054AC2 GT PUSH2 0x71 JUMPI DUP1 PUSH4 0x8A054AC2 EQ PUSH2 0x16D JUMPI DUP1 PUSH4 0x9EEA4A3A EQ PUSH2 0x18B JUMPI DUP1 PUSH4 0xAF10C810 EQ PUSH2 0x1A9 JUMPI DUP1 PUSH4 0xB83D07B7 EQ PUSH2 0x1B3 JUMPI DUP1 PUSH4 0xBA33ED7D EQ PUSH2 0x1D1 JUMPI DUP1 PUSH4 0xC7109D04 EQ PUSH2 0x1DB JUMPI PUSH2 0xB4 JUMP JUMPDEST DUP1 PUSH4 0x2B73648D EQ PUSH2 0xB9 JUMPI DUP1 PUSH4 0x312EEF29 EQ PUSH2 0xD7 JUMPI DUP1 PUSH4 0x3A36399E EQ PUSH2 0xF5 JUMPI DUP1 PUSH4 0x4DF7E3D0 EQ PUSH2 0x113 JUMPI DUP1 PUSH4 0x7272EEA1 EQ PUSH2 0x131 JUMPI DUP1 PUSH4 0x7A68EF7F EQ PUSH2 0x14F JUMPI JUMPDEST PUSH1 0x0 DUP1 REVERT JUMPDEST PUSH2 0xC1 PUSH2 0x1F9 JUMP JUMPDEST PUSH1 0x40 MLOAD PUSH2 0xCE SWAP2 SWAP1 PUSH2 0x48F JUMP JUMPDEST PUSH1 0x40 MLOAD DUP1 SWAP2 SUB SWAP1 RETURN JUMPDEST PUSH2 0xDF PUSH2 0x1FF JUMP JUMPDEST PUSH1 0x40 MLOAD PUSH2 0xEC SWAP2 SWAP1 PUSH2 0x459 JUMP JUMPDEST PUSH1 0x40 MLOAD DUP1 SWAP2 SUB SWAP1 RETURN JUMPDEST PUSH2 0xFD PUSH2 0x212 JUMP JUMPDEST PUSH1 0x40 MLOAD PUSH2 0x10A SWAP2 SWAP1 PUSH2 0x43E JUMP JUMPDEST PUSH1 0x40 MLOAD DUP1 SWAP2 SUB SWAP1 RETURN JUMPDEST PUSH2 0x11B PUSH2 0x238 JUMP JUMPDEST PUSH1 0x40 MLOAD PUSH2 0x128 SWAP2 SWAP1 PUSH2 0x502 JUMP JUMPDEST PUSH1 0x40 MLOAD DUP1 SWAP2 SUB SWAP1 RETURN JUMPDEST PUSH2 0x139 PUSH2 0x24B JUMP JUMPDEST PUSH1 0x40 MLOAD PUSH2 0x146 SWAP2 SWAP1 PUSH2 0x4AA JUMP JUMPDEST PUSH1 0x40 MLOAD DUP1 SWAP2 SUB SWAP1 RETURN JUMPDEST PUSH2 0x157 PUSH2 0x262 JUMP JUMPDEST PUSH1 0x40 MLOAD PUSH2 0x164 SWAP2 SWAP1 PUSH2 0x474 JUMP JUMPDEST PUSH1 0x40 MLOAD DUP1 SWAP2 SUB SWAP1 RETURN JUMPDEST PUSH2 0x175 PUSH2 0x275 JUMP JUMPDEST PUSH1 0x40 MLOAD PUSH2 0x182 SWAP2 SWAP1 PUSH2 0x4C5 JUMP JUMPDEST PUSH1 0x40 MLOAD DUP1 SWAP2 SUB SWAP1 RETURN JUMPDEST PUSH2 0x193 PUSH2 0x288 JUMP JUMPDEST PUSH1 0x40 MLOAD PUSH2 0x1A0 SWAP2 SWAP1 PUSH2 0x43E JUMP JUMPDEST PUSH1 0x40 MLOAD DUP1 SWAP2 SUB SWAP1 RETURN JUMPDEST PUSH2 0x1B1 PUSH2 0x2AE JUMP JUMPDEST STOP JUMPDEST PUSH2 0x1BB PUSH2 0x2DB JUMP JUMPDEST PUSH1 0x40 MLOAD PUSH2 0x1C8 SWAP2 SWAP1 PUSH2 0x4E0 JUMP JUMPDEST PUSH1 0x40 MLOAD DUP1 SWAP2 SUB SWAP1 RETURN JUMPDEST PUSH2 0x1D9 PUSH2 0x369 JUMP JUMPDEST STOP JUMPDEST PUSH2 0x1E3 PUSH2 0x396 JUMP JUMPDEST PUSH1 0x40 MLOAD PUSH2 0x1F0 SWAP2 SWAP1 PUSH2 0x48F JUMP JUMPDEST PUSH1 0x40 MLOAD DUP1 SWAP2 SUB SWAP1 RETURN JUMPDEST PUSH1 0xB SLOAD DUP2 JUMP JUMPDEST PUSH1 0x8 PUSH1 0x1 SWAP1 SLOAD SWAP1 PUSH2 0x100 EXP SWAP1 DIV PUSH1 0xFF AND DUP2 JUMP JUMPDEST PUSH1 0xF PUSH1 0x0 SWAP1 SLOAD SWAP1 PUSH2 0x100 EXP SWAP1 DIV PUSH20 0xFFFFFFFFFFFFFFFFFFFFFFFFFFFFFFFFFFFFFFFF AND DUP2 JUMP JUMPDEST PUSH1 0x1 PUSH1 0x0 SWAP1 SLOAD SWAP1 PUSH2 0x100 EXP SWAP1 DIV PUSH1 0xFF AND DUP2 JUMP JUMPDEST PUSH1 0x0 PUSH1 0x10 PUSH1 0x14 SWAP1 SLOAD SWAP1 PUSH2 0x100 EXP SWAP1 DIV PUSH1 0xFF AND SWAP1 POP SWAP1 JUMP JUMPDEST PUSH1 0xD PUSH1 0x0 SWAP1 SLOAD SWAP1 PUSH2 0x100 EXP SWAP1 DIV PUSH1 0x60 SHL DUP2 JUMP JUMPDEST PUSH1 0x3 PUSH1 0x0 SWAP1 SLOAD SWAP1 PUSH2 0x100 EXP SWAP1 DIV PUSH1 0x0 SIGNEXTEND DUP2 JUMP JUMPDEST PUSH1 0x10 PUSH1 0x0 SWAP1 SLOAD SWAP1 PUSH2 0x100 EXP SWAP1 DIV PUSH20 0xFFFFFFFFFFFFFFFFFFFFFFFFFFFFFFFFFFFFFFFF AND DUP2 JUMP JUMPDEST PUSH1 0x1 PUSH1 0x10 PUSH1 0x14 PUSH2 0x100 EXP DUP2 SLOAD DUP2 PUSH1 0xFF MUL NOT AND SWAP1 DUP4 PUSH1 0x1 DUP2 GT ISZERO PUSH2 0x2D4 JUMPI PUSH2 0x2D3 PUSH2 0x651 JUMP JUMPDEST JUMPDEST MUL OR SWAP1 SSTORE POP JUMP JUMPDEST PUSH1 0x6 DUP1 SLOAD PUSH2 0x2E8 SWAP1 PUSH2 0x61F JUMP JUMPDEST DUP1 PUSH1 0x1F ADD PUSH1 0x20 DUP1 SWAP2 DIV MUL PUSH1 0x20 ADD PUSH1 0x40 MLOAD SWAP1 DUP2 ADD PUSH1 0x40 MSTORE DUP1 SWAP3 SWAP2 SWAP1 DUP2 DUP2 MSTORE PUSH1 0x20 ADD DUP3 DUP1 SLOAD PUSH2 0x314 SWAP1 PUSH2 0x61F JUMP JUMPDEST DUP1 ISZERO PUSH2 0x361 JUMPI DUP1 PUSH1 0x1F LT PUSH2 0x336 JUMPI PUSH2 0x100 DUP1 DUP4 SLOAD DIV MUL DUP4 MSTORE SWAP2 PUSH1 0x20 ADD SWAP2 PUSH2 0x361 JUMP JUMPDEST DUP3 ADD SWAP2 SWAP1 PUSH1 0x0 MSTORE PUSH1 0x20 PUSH1 0x0 KECCAK256 SWAP1 JUMPDEST DUP2 SLOAD DUP2 MSTORE SWAP1 PUSH1 0x1 ADD SWAP1 PUSH1 0x20 ADD DUP1 DUP4 GT PUSH2 0x344 JUMPI DUP3 SWAP1 SUB PUSH1 0x1F AND DUP3 ADD SWAP2 JUMPDEST POP POP POP POP POP DUP2 JUMP JUMPDEST PUSH1 0x0 PUSH1 0x10 PUSH1 0x14 PUSH2 0x100 EXP DUP2 SLOAD DUP2 PUSH1 0xFF MUL NOT AND SWAP1 DUP4 PUSH1 0x1 DUP2 GT ISZERO PUSH2 0x38F JUMPI PUSH2 0x38E PUSH2 0x651 JUMP JUMPDEST JUMPDEST MUL OR SWAP1 SSTORE POP JUMP JUMPDEST PUSH1 0xC SLOAD DUP2 JUMP JUMPDEST PUSH2 0x3A5 DUP2 PUSH2 0x539 JUMP JUMPDEST DUP3 MSTORE POP POP JUMP JUMPDEST PUSH2 0x3B4 DUP2 PUSH2 0x54B JUMP JUMPDEST DUP3 MSTORE POP POP JUMP JUMPDEST PUSH2 0x3C3 DUP2 PUSH2 0x557 JUMP JUMPDEST DUP3 MSTORE POP POP JUMP JUMPDEST PUSH2 0x3D2 DUP2 PUSH2 0x583 JUMP JUMPDEST DUP3 MSTORE POP POP JUMP JUMPDEST PUSH2 0x3E1 DUP2 PUSH2 0x5DA JUMP JUMPDEST DUP3 MSTORE POP POP JUMP JUMPDEST PUSH2 0x3F0 DUP2 PUSH2 0x5A0 JUMP JUMPDEST DUP3 MSTORE POP POP JUMP JUMPDEST PUSH1 0x0 PUSH2 0x401 DUP3 PUSH2 0x51D JUMP JUMPDEST PUSH2 0x40B DUP2 DUP6 PUSH2 0x528 JUMP JUMPDEST SWAP4 POP PUSH2 0x41B DUP2 DUP6 PUSH1 0x20 DUP7 ADD PUSH2 0x5EC JUMP JUMPDEST PUSH2 0x424 DUP2 PUSH2 0x6AF JUMP JUMPDEST DUP5 ADD SWAP2 POP POP SWAP3 SWAP2 POP POP JUMP JUMPDEST PUSH2 0x438 DUP2 PUSH2 0x5CD JUMP JUMPDEST DUP3 MSTORE POP POP JUMP JUMPDEST PUSH1 0x0 PUSH1 0x20 DUP3 ADD SWAP1 POP PUSH2 0x453 PUSH1 0x0 DUP4 ADD DUP5 PUSH2 0x39C JUMP JUMPDEST SWAP3 SWAP2 POP POP JUMP JUMPDEST PUSH1 0x0 PUSH1 0x20 DUP3 ADD SWAP1 POP PUSH2 0x46E PUSH1 0x0 DUP4 ADD DUP5 PUSH2 0x3AB JUMP JUMPDEST SWAP3 SWAP2 POP POP JUMP JUMPDEST PUSH1 0x0 PUSH1 0x20 DUP3 ADD SWAP1 POP PUSH2 0x489 PUSH1 0x0 DUP4 ADD DUP5 PUSH2 0x3BA JUMP JUMPDEST SWAP3 SWAP2 POP POP JUMP JUMPDEST PUSH1 0x0 PUSH1 0x20 DUP3 ADD SWAP1 POP PUSH2 0x4A4 PUSH1 0x0 DUP4 ADD DUP5 PUSH2 0x3C9 JUMP JUMPDEST SWAP3 SWAP2 POP POP JUMP JUMPDEST PUSH1 0x0 PUSH1 0x20 DUP3 ADD SWAP1 POP PUSH2 0x4BF PUSH1 0x0 DUP4 ADD DUP5 PUSH2 0x3D8 JUMP JUMPDEST SWAP3 SWAP2 POP POP JUMP JUMPDEST PUSH1 0x0 PUSH1 0x20 DUP3 ADD SWAP1 POP PUSH2 0x4DA PUSH1 0x0 DUP4 ADD DUP5 PUSH2 0x3E7 JUMP JUMPDEST SWAP3 SWAP2 POP POP JUMP JUMPDEST PUSH1 0x0 PUSH1 0x20 DUP3 ADD SWAP1 POP DUP2 DUP2 SUB PUSH1 0x0 DUP4 ADD MSTORE PUSH2 0x4FA DUP2 DUP5 PUSH2 0x3F6 JUMP JUMPDEST SWAP1 POP SWAP3 SWAP2 POP POP JUMP JUMPDEST PUSH1 0x0 PUSH1 0x20 DUP3 ADD SWAP1 POP PUSH2 0x517 PUSH1 0x0 DUP4 ADD DUP5 PUSH2 0x42F JUMP JUMPDEST SWAP3 SWAP2 POP POP JUMP JUMPDEST PUSH1 0x0 DUP2 MLOAD SWAP1 POP SWAP2 SWAP1 POP JUMP JUMPDEST PUSH1 0x0 DUP3 DUP3 MSTORE PUSH1 0x20 DUP3 ADD SWAP1 POP SWAP3 SWAP2 POP POP JUMP JUMPDEST PUSH1 0x0 PUSH2 0x544 DUP3 PUSH2 0x5AD JUMP JUMPDEST SWAP1 POP SWAP2 SWAP1 POP JUMP JUMPDEST PUSH1 0x0 DUP2 ISZERO ISZERO SWAP1 POP SWAP2 SWAP1 POP JUMP JUMPDEST PUSH1 0x0 PUSH32 0xFFFFFFFFFFFFFFFFFFFFFFFFFFFFFFFFFFFFFFFF000000000000000000000000 DUP3 AND SWAP1 POP SWAP2 SWAP1 POP JUMP JUMPDEST PUSH1 0x0 DUP2 SWAP1 POP SWAP2 SWAP1 POP JUMP JUMPDEST PUSH1 0x0 DUP2 SWAP1 POP PUSH2 0x59B DUP3 PUSH2 0x6C0 JUMP JUMPDEST SWAP2 SWAP1 POP JUMP JUMPDEST PUSH1 0x0 DUP2 PUSH1 0x0 SIGNEXTEND SWAP1 POP SWAP2 SWAP1 POP JUMP JUMPDEST PUSH1 0x0 PUSH20 0xFFFFFFFFFFFFFFFFFFFFFFFFFFFFFFFFFFFFFFFF DUP3 AND SWAP1 POP SWAP2 SWAP1 POP JUMP JUMPDEST PUSH1 0x0 PUSH1 0xFF DUP3 AND SWAP1 POP SWAP2 SWAP1 POP JUMP JUMPDEST PUSH1 0x0 PUSH2 0x5E5 DUP3 PUSH2 0x58D JUMP JUMPDEST SWAP1 POP SWAP2 SWAP1 POP JUMP JUMPDEST PUSH1 0x0 JUMPDEST DUP4 DUP2 LT ISZERO PUSH2 0x60A JUMPI DUP1 DUP3 ADD MLOAD DUP2 DUP5 ADD MSTORE PUSH1 0x20 DUP2 ADD SWAP1 POP PUSH2 0x5EF JUMP JUMPDEST DUP4 DUP2 GT ISZERO PUSH2 0x619 JUMPI PUSH1 0x0 DUP5 DUP5 ADD MSTORE JUMPDEST POP POP POP POP JUMP JUMPDEST PUSH1 0x0 PUSH1 0x2 DUP3 DIV SWAP1 POP PUSH1 0x1 DUP3 AND DUP1 PUSH2 0x637 JUMPI PUSH1 0x7F DUP3 AND SWAP2 POP JUMPDEST PUSH1 0x20 DUP3 LT DUP2 EQ ISZERO PUSH2 0x64B JUMPI PUSH2 0x64A PUSH2 0x680 JUMP JUMPDEST JUMPDEST POP SWAP2 SWAP1 POP JUMP JUMPDEST PUSH32 0x4E487B7100000000000000000000000000000000000000000000000000000000 PUSH1 0x0 MSTORE PUSH1 0x21 PUSH1 0x4 MSTORE PUSH1 0x24 PUSH1 0x0 REVERT JUMPDEST PUSH32 0x4E487B7100000000000000000000000000000000000000000000000000000000 PUSH1 0x0 MSTORE PUSH1 0x22 PUSH1 0x4 MSTORE PUSH1 0x24 PUSH1 0x0 REVERT JUMPDEST PUSH1 0x0 PUSH1 0x1F NOT PUSH1 0x1F DUP4 ADD AND SWAP1 POP SWAP2 SWAP1 POP JUMP JUMPDEST PUSH1 0x2 DUP2 LT PUSH2 0x6D1 JUMPI PUSH2 0x6D0 PUSH2 0x651 JUMP JUMPDEST JUMPDEST POP JUMP INVALID LOG2 PUSH5 0x6970667358 0x22 SLT KECCAK256 DUP12 ADD LOG3 0x2B PUSH4 0xB9BF5DA 0xB2 0xCD DUP1 0xF6 SGT CODESIZE SWAP8 0xE 0x2D MULMOD PUSH11 0xD0F287A56AB171DF4AF339 PUSH24 0x64736F6C6343000807003300000000000000000000000000 "
				},
				"gasEstimates": {
					"creation": {
						"codeDepositCost": "360400",
						"executionCost": "infinite",
						"totalCost": "infinite"
					},
					"external": {
						"address1()": "2559",
						"address2()": "2536",
						"b()": "2538",
						"boolean_true()": "2544",
						"d()": "2475",
						"displayState()": "2707",
						"hashing_keccak256()": "2430",
						"hashing_ripemd160()": "2582",
						"hashing_sha256()": "2539",
						"str_public()": "infinite",
						"turnOff()": "24525",
						"turnOn()": "24569"
					}
				},
				"methodIdentifiers": {
					"address1()": "3a36399e",
					"address2()": "9eea4a3a",
					"b()": "4df7e3d0",
					"boolean_true()": "312eef29",
					"d()": "8a054ac2",
					"displayState()": "7272eea1",
					"hashing_keccak256()": "2b73648d",
					"hashing_ripemd160()": "7a68ef7f",
					"hashing_sha256()": "c7109d04",
					"str_public()": "b83d07b7",
					"turnOff()": "af10c810",
					"turnOn()": "ba33ed7d"
				}
			},
			"storageLayout": {
				"storage": [
					{
						"astId": 3,
						"contract": "contracts/2_variables.sol:variables",
						"label": "a",
						"offset": 0,
						"slot": "0",
						"type": "t_uint256"
					},
					{
						"astId": 6,
						"contract": "contracts/2_variables.sol:variables",
						"label": "b",
						"offset": 0,
						"slot": "1",
						"type": "t_uint8"
					},
					{
						"astId": 8,
						"contract": "contracts/2_variables.sol:variables",
						"label": "c",
						"offset": 0,
						"slot": "2",
						"type": "t_int256"
					},
					{
						"astId": 12,
						"contract": "contracts/2_variables.sol:variables",
						"label": "d",
						"offset": 0,
						"slot": "3",
						"type": "t_int8"
					},
					{
						"astId": 15,
						"contract": "contracts/2_variables.sol:variables",
						"label": "e",
						"offset": 0,
						"slot": "4",
						"type": "t_int256"
					},
					{
						"astId": 17,
						"contract": "contracts/2_variables.sol:variables",
						"label": "str",
						"offset": 0,
						"slot": "5",
						"type": "t_string_storage"
					},
					{
						"astId": 20,
						"contract": "contracts/2_variables.sol:variables",
						"label": "str_public",
						"offset": 0,
						"slot": "6",
						"type": "t_string_storage"
					},
					{
						"astId": 23,
						"contract": "contracts/2_variables.sol:variables",
						"label": "str_private",
						"offset": 0,
						"slot": "7",
						"type": "t_string_storage"
					},
					{
						"astId": 25,
						"contract": "contracts/2_variables.sol:variables",
						"label": "boolean",
						"offset": 0,
						"slot": "8",
						"type": "t_bool"
					},
					{
						"astId": 28,
						"contract": "contracts/2_variables.sol:variables",
						"label": "boolean_true",
						"offset": 1,
						"slot": "8",
						"type": "t_bool"
					},
					{
						"astId": 31,
						"contract": "contracts/2_variables.sol:variables",
						"label": "boolean_false",
						"offset": 2,
						"slot": "8",
						"type": "t_bool"
					},
					{
						"astId": 33,
						"contract": "contracts/2_variables.sol:variables",
						"label": "first_bytes",
						"offset": 0,
						"slot": "9",
						"type": "t_bytes32"
					},
					{
						"astId": 35,
						"contract": "contracts/2_variables.sol:variables",
						"label": "second_bytes",
						"offset": 0,
						"slot": "10",
						"type": "t_bytes4"
					},
					{
						"astId": 37,
						"contract": "contracts/2_variables.sol:variables",
						"label": "bytes_1",
						"offset": 4,
						"slot": "10",
						"type": "t_bytes1"
					},
					{
						"astId": 51,
						"contract": "contracts/2_variables.sol:variables",
						"label": "hashing_keccak256",
						"offset": 0,
						"slot": "11",
						"type": "t_bytes32"
					},
					{
						"astId": 59,
						"contract": "contracts/2_variables.sol:variables",
						"label": "hashing_sha256",
						"offset": 0,
						"slot": "12",
						"type": "t_bytes32"
					},
					{
						"astId": 67,
						"contract": "contracts/2_variables.sol:variables",
						"label": "hashing_ripemd160",
						"offset": 0,
						"slot": "13",
						"type": "t_bytes20"
					},
					{
						"astId": 69,
						"contract": "contracts/2_variables.sol:variables",
						"label": "my_address",
						"offset": 0,
						"slot": "14",
						"type": "t_address"
					},
					{
						"astId": 72,
						"contract": "contracts/2_variables.sol:variables",
						"label": "address1",
						"offset": 0,
						"slot": "15",
						"type": "t_address"
					},
					{
						"astId": 76,
						"contract": "contracts/2_variables.sol:variables",
						"label": "address2",
						"offset": 0,
						"slot": "16",
						"type": "t_address"
					},
					{
						"astId": 82,
						"contract": "contracts/2_variables.sol:variables",
						"label": "state",
						"offset": 20,
						"slot": "16",
						"type": "t_enum(options)79"
					}
				],
				"types": {
					"t_address": {
						"encoding": "inplace",
						"label": "address",
						"numberOfBytes": "20"
					},
					"t_bool": {
						"encoding": "inplace",
						"label": "bool",
						"numberOfBytes": "1"
					},
					"t_bytes1": {
						"encoding": "inplace",
						"label": "bytes1",
						"numberOfBytes": "1"
					},
					"t_bytes20": {
						"encoding": "inplace",
						"label": "bytes20",
						"numberOfBytes": "20"
					},
					"t_bytes32": {
						"encoding": "inplace",
						"label": "bytes32",
						"numberOfBytes": "32"
					},
					"t_bytes4": {
						"encoding": "inplace",
						"label": "bytes4",
						"numberOfBytes": "4"
					},
					"t_enum(options)79": {
						"encoding": "inplace",
						"label": "enum variables.options",
						"numberOfBytes": "1"
					},
					"t_int256": {
						"encoding": "inplace",
						"label": "int256",
						"numberOfBytes": "32"
					},
					"t_int8": {
						"encoding": "inplace",
						"label": "int8",
						"numberOfBytes": "1"
					},
					"t_string_storage": {
						"encoding": "bytes",
						"label": "string",
						"numberOfBytes": "32"
					},
					"t_uint256": {
						"encoding": "inplace",
						"label": "uint256",
						"numberOfBytes": "32"
					},
					"t_uint8": {
						"encoding": "inplace",
						"label": "uint8",
						"numberOfBytes": "1"
					}
				}
			},
			"userdoc": {
				"kind": "user",
				"methods": {},
				"version": 1
			}
		}
	}
}