{
	"contracts/7_maths.sol": {
		"maths": {
			"abi": [
				{
					"inputs": [
						{
							"internalType": "uint256",
							"name": "x",
							"type": "uint256"
						},
						{
							"internalType": "uint256",
							"name": "y",
							"type": "uint256"
						},
						{
							"internalType": "uint256",
							"name": "k",
							"type": "uint256"
						}
					],
					"name": "_addmod",
					"outputs": [
						{
							"internalType": "uint256",
							"name": "",
							"type": "uint256"
						},
						{
							"internalType": "uint256",
							"name": "",
							"type": "uint256"
						}
					],
					"stateMutability": "pure",
					"type": "function"
				},
				{
					"inputs": [
						{
							"internalType": "uint256",
							"name": "x",
							"type": "uint256"
						},
						{
							"internalType": "uint256",
							"name": "y",
							"type": "uint256"
						},
						{
							"internalType": "uint256",
							"name": "k",
							"type": "uint256"
						}
					],
					"name": "_mulmod",
					"outputs": [
						{
							"internalType": "uint256",
							"name": "",
							"type": "uint256"
						},
						{
							"internalType": "uint256",
							"name": "",
							"type": "uint256"
						}
					],
					"stateMutability": "pure",
					"type": "function"
				},
				{
					"inputs": [
						{
							"internalType": "uint256",
							"name": "a",
							"type": "uint256"
						},
						{
							"internalType": "uint256",
							"name": "b",
							"type": "uint256"
						}
					],
					"name": "expon",
					"outputs": [
						{
							"internalType": "uint256",
							"name": "",
							"type": "uint256"
						}
					],
					"stateMutability": "pure",
					"type": "function"
				},
				{
					"inputs": [
						{
							"internalType": "uint256",
							"name": "a",
							"type": "uint256"
						},
						{
							"internalType": "uint256",
							"name": "b",
							"type": "uint256"
						}
					],
					"name": "mod",
					"outputs": [
						{
							"internalType": "uint256",
							"name": "",
							"type": "uint256"
						}
					],
					"stateMutability": "pure",
					"type": "function"
				},
				{
					"inputs": [
						{
							"internalType": "uint256",
							"name": "a",
							"type": "uint256"
						},
						{
							"internalType": "uint256",
							"name": "b",
							"type": "uint256"
						}
					],
					"name": "multiplicacion",
					"outputs": [
						{
							"internalType": "uint256",
							"name": "",
							"type": "uint256"
						}
					],
					"stateMutability": "pure",
					"type": "function"
				},
				{
					"inputs": [
						{
							"internalType": "int256",
							"name": "a",
							"type": "int256"
						},
						{
							"internalType": "int256",
							"name": "b",
							"type": "int256"
						}
					],
					"name": "resta",
					"outputs": [
						{
							"internalType": "int256",
							"name": "",
							"type": "int256"
						}
					],
					"stateMutability": "pure",
					"type": "function"
				},
				{
					"inputs": [
						{
							"internalType": "uint256",
							"name": "a",
							"type": "uint256"
						},
						{
							"internalType": "uint256",
							"name": "b",
							"type": "uint256"
						}
					],
					"name": "suma",
					"outputs": [
						{
							"internalType": "uint256",
							"name": "",
							"type": "uint256"
						}
					],
					"stateMutability": "pure",
					"type": "function"
				}
			],
			"devdoc": {
				"kind": "dev",
				"methods": {},
				"version": 1
			},
			"evm": {
				"assembly": "    /* \"contracts/7_maths.sol\":60:935  contract maths {\r... */\n  mstore(0x40, 0x80)\n  callvalue\n  dup1\n  iszero\n  tag_1\n  jumpi\n  0x00\n  dup1\n  revert\ntag_1:\n  pop\n  dataSize(sub_0)\n  dup1\n  dataOffset(sub_0)\n  0x00\n  codecopy\n  0x00\n  return\nstop\n\nsub_0: assembly {\n        /* \"contracts/7_maths.sol\":60:935  contract maths {\r... */\n      mstore(0x40, 0x80)\n      callvalue\n      dup1\n      iszero\n      tag_1\n      jumpi\n      0x00\n      dup1\n      revert\n    tag_1:\n      pop\n      jumpi(tag_2, lt(calldatasize, 0x04))\n      shr(0xe0, calldataload(0x00))\n      dup1\n      0xd17fb9ea\n      gt\n      tag_10\n      jumpi\n      dup1\n      0xd17fb9ea\n      eq\n      tag_6\n      jumpi\n      dup1\n      0xdd125e37\n      eq\n      tag_7\n      jumpi\n      dup1\n      0xe989d9cc\n      eq\n      tag_8\n      jumpi\n      dup1\n      0xf43f523a\n      eq\n      tag_9\n      jumpi\n      jump(tag_2)\n    tag_10:\n      dup1\n      0x4c627bad\n      eq\n      tag_3\n      jumpi\n      dup1\n      0x871f9af4\n      eq\n      tag_4\n      jumpi\n      dup1\n      0xb1b45b1b\n      eq\n      tag_5\n      jumpi\n    tag_2:\n      0x00\n      dup1\n      revert\n        /* \"contracts/7_maths.sol\":197:280  function resta(int a, int b) public pure returns (int){\r... */\n    tag_3:\n      tag_11\n      0x04\n      dup1\n      calldatasize\n      sub\n      dup2\n      add\n      swap1\n      tag_12\n      swap2\n      swap1\n      tag_13\n      jump\t// in\n    tag_12:\n      tag_14\n      jump\t// in\n    tag_11:\n      mload(0x40)\n      tag_15\n      swap2\n      swap1\n      tag_16\n      jump\t// in\n    tag_15:\n      mload(0x40)\n      dup1\n      swap2\n      sub\n      swap1\n      return\n        /* \"contracts/7_maths.sol\":803:926  function _mulmod(uint x, uint y, uint k) public pure returns (uint, uint){\r... */\n    tag_4:\n      tag_17\n      0x04\n      dup1\n      calldatasize\n      sub\n      dup2\n      add\n      swap1\n      tag_18\n      swap2\n      swap1\n      tag_19\n      jump\t// in\n    tag_18:\n      tag_20\n      jump\t// in\n    tag_17:\n      mload(0x40)\n      tag_21\n      swap3\n      swap2\n      swap1\n      tag_22\n      jump\t// in\n    tag_21:\n      mload(0x40)\n      dup1\n      swap2\n      sub\n      swap1\n      return\n        /* \"contracts/7_maths.sol\":92:177  function suma(uint a, uint b) public pure returns (uint){\r... */\n    tag_5:\n      tag_23\n      0x04\n      dup1\n      calldatasize\n      sub\n      dup2\n      add\n      swap1\n      tag_24\n      swap2\n      swap1\n      tag_25\n      jump\t// in\n    tag_24:\n      tag_26\n      jump\t// in\n    tag_23:\n      mload(0x40)\n      tag_27\n      swap2\n      swap1\n      tag_28\n      jump\t// in\n    tag_27:\n      mload(0x40)\n      dup1\n      swap2\n      sub\n      swap1\n      return\n        /* \"contracts/7_maths.sol\":310:405  function multiplicacion(uint a, uint b) public pure returns (uint){\r... */\n    tag_6:\n      tag_29\n      0x04\n      dup1\n      calldatasize\n      sub\n      dup2\n      add\n      swap1\n      tag_30\n      swap2\n      swap1\n      tag_25\n      jump\t// in\n    tag_30:\n      tag_31\n      jump\t// in\n    tag_29:\n      mload(0x40)\n      tag_32\n      swap2\n      swap1\n      tag_28\n      jump\t// in\n    tag_32:\n      mload(0x40)\n      dup1\n      swap2\n      sub\n      swap1\n      return\n        /* \"contracts/7_maths.sol\":654:777  function _addmod(uint x, uint y, uint k) public pure returns (uint, uint){\r... */\n    tag_7:\n      tag_33\n      0x04\n      dup1\n      calldatasize\n      sub\n      dup2\n      add\n      swap1\n      tag_34\n      swap2\n      swap1\n      tag_19\n      jump\t// in\n    tag_34:\n      tag_35\n      jump\t// in\n    tag_33:\n      mload(0x40)\n      tag_36\n      swap3\n      swap2\n      swap1\n      tag_22\n      jump\t// in\n    tag_36:\n      mload(0x40)\n      dup1\n      swap2\n      sub\n      swap1\n      return\n        /* \"contracts/7_maths.sol\":435:522  function expon(uint a, uint b) public pure returns (uint){\r... */\n    tag_8:\n      tag_37\n      0x04\n      dup1\n      calldatasize\n      sub\n      dup2\n      add\n      swap1\n      tag_38\n      swap2\n      swap1\n      tag_25\n      jump\t// in\n    tag_38:\n      tag_39\n      jump\t// in\n    tag_37:\n      mload(0x40)\n      tag_40\n      swap2\n      swap1\n      tag_28\n      jump\t// in\n    tag_40:\n      mload(0x40)\n      dup1\n      swap2\n      sub\n      swap1\n      return\n        /* \"contracts/7_maths.sol\":544:628  function mod(uint a, uint b) public pure returns (uint){\r... */\n    tag_9:\n      tag_41\n      0x04\n      dup1\n      calldatasize\n      sub\n      dup2\n      add\n      swap1\n      tag_42\n      swap2\n      swap1\n      tag_25\n      jump\t// in\n    tag_42:\n      tag_43\n      jump\t// in\n    tag_41:\n      mload(0x40)\n      tag_44\n      swap2\n      swap1\n      tag_28\n      jump\t// in\n    tag_44:\n      mload(0x40)\n      dup1\n      swap2\n      sub\n      swap1\n      return\n        /* \"contracts/7_maths.sol\":197:280  function resta(int a, int b) public pure returns (int){\r... */\n    tag_14:\n        /* \"contracts/7_maths.sol\":247:250  int */\n      0x00\n        /* \"contracts/7_maths.sol\":271:272  b */\n      dup2\n        /* \"contracts/7_maths.sol\":269:270  a */\n      dup4\n        /* \"contracts/7_maths.sol\":269:272  a-b */\n      tag_46\n      swap2\n      swap1\n      tag_47\n      jump\t// in\n    tag_46:\n        /* \"contracts/7_maths.sol\":262:272  return a-b */\n      swap1\n      pop\n        /* \"contracts/7_maths.sol\":197:280  function resta(int a, int b) public pure returns (int){\r... */\n      swap3\n      swap2\n      pop\n      pop\n      jump\t// out\n        /* \"contracts/7_maths.sol\":803:926  function _mulmod(uint x, uint y, uint k) public pure returns (uint, uint){\r... */\n    tag_20:\n        /* \"contracts/7_maths.sol\":865:869  uint */\n      0x00\n        /* \"contracts/7_maths.sol\":871:875  uint */\n      dup1\n        /* \"contracts/7_maths.sol\":906:907  k */\n      dup3\n        /* \"contracts/7_maths.sol\":895:908  mulmod(x,y,k) */\n      dup1\n      tag_49\n      jumpi\n      tag_50\n      tag_51\n      jump\t// in\n    tag_50:\n    tag_49:\n        /* \"contracts/7_maths.sol\":904:905  y */\n      dup5\n        /* \"contracts/7_maths.sol\":902:903  x */\n      dup7\n        /* \"contracts/7_maths.sol\":895:908  mulmod(x,y,k) */\n      mulmod\n        /* \"contracts/7_maths.sol\":916:917  k */\n      dup4\n        /* \"contracts/7_maths.sol\":913:914  y */\n      dup6\n        /* \"contracts/7_maths.sol\":911:912  x */\n      dup8\n        /* \"contracts/7_maths.sol\":911:914  x*y */\n      tag_52\n      swap2\n      swap1\n      tag_53\n      jump\t// in\n    tag_52:\n        /* \"contracts/7_maths.sol\":910:917  (x*y)%k */\n      tag_54\n      swap2\n      swap1\n      tag_55\n      jump\t// in\n    tag_54:\n        /* \"contracts/7_maths.sol\":887:918  return (mulmod(x,y,k), (x*y)%k) */\n      swap2\n      pop\n      swap2\n      pop\n        /* \"contracts/7_maths.sol\":803:926  function _mulmod(uint x, uint y, uint k) public pure returns (uint, uint){\r... */\n      swap4\n      pop\n      swap4\n      swap2\n      pop\n      pop\n      jump\t// out\n        /* \"contracts/7_maths.sol\":92:177  function suma(uint a, uint b) public pure returns (uint){\r... */\n    tag_26:\n        /* \"contracts/7_maths.sol\":143:147  uint */\n      0x00\n        /* \"contracts/7_maths.sol\":168:169  b */\n      dup2\n        /* \"contracts/7_maths.sol\":164:165  a */\n      dup4\n        /* \"contracts/7_maths.sol\":164:169  a + b */\n      tag_57\n      swap2\n      swap1\n      tag_58\n      jump\t// in\n    tag_57:\n        /* \"contracts/7_maths.sol\":157:169  return a + b */\n      swap1\n      pop\n        /* \"contracts/7_maths.sol\":92:177  function suma(uint a, uint b) public pure returns (uint){\r... */\n      swap3\n      swap2\n      pop\n      pop\n      jump\t// out\n        /* \"contracts/7_maths.sol\":310:405  function multiplicacion(uint a, uint b) public pure returns (uint){\r... */\n    tag_31:\n        /* \"contracts/7_maths.sol\":371:375  uint */\n      0x00\n        /* \"contracts/7_maths.sol\":396:397  b */\n      dup2\n        /* \"contracts/7_maths.sol\":394:395  a */\n      dup4\n        /* \"contracts/7_maths.sol\":394:397  a*b */\n      tag_60\n      swap2\n      swap1\n      tag_53\n      jump\t// in\n    tag_60:\n        /* \"contracts/7_maths.sol\":387:397  return a*b */\n      swap1\n      pop\n        /* \"contracts/7_maths.sol\":310:405  function multiplicacion(uint a, uint b) public pure returns (uint){\r... */\n      swap3\n      swap2\n      pop\n      pop\n      jump\t// out\n        /* \"contracts/7_maths.sol\":654:777  function _addmod(uint x, uint y, uint k) public pure returns (uint, uint){\r... */\n    tag_35:\n        /* \"contracts/7_maths.sol\":716:720  uint */\n      0x00\n        /* \"contracts/7_maths.sol\":722:726  uint */\n      dup1\n        /* \"contracts/7_maths.sol\":757:758  k */\n      dup3\n        /* \"contracts/7_maths.sol\":746:759  addmod(x,y,k) */\n      dup1\n      tag_62\n      jumpi\n      tag_63\n      tag_51\n      jump\t// in\n    tag_63:\n    tag_62:\n        /* \"contracts/7_maths.sol\":755:756  y */\n      dup5\n        /* \"contracts/7_maths.sol\":753:754  x */\n      dup7\n        /* \"contracts/7_maths.sol\":746:759  addmod(x,y,k) */\n      addmod\n        /* \"contracts/7_maths.sol\":767:768  k */\n      dup4\n        /* \"contracts/7_maths.sol\":764:765  y */\n      dup6\n        /* \"contracts/7_maths.sol\":762:763  x */\n      dup8\n        /* \"contracts/7_maths.sol\":762:765  x+y */\n      tag_64\n      swap2\n      swap1\n      tag_58\n      jump\t// in\n    tag_64:\n        /* \"contracts/7_maths.sol\":761:768  (x+y)%k */\n      tag_65\n      swap2\n      swap1\n      tag_55\n      jump\t// in\n    tag_65:\n        /* \"contracts/7_maths.sol\":738:769  return (addmod(x,y,k), (x+y)%k) */\n      swap2\n      pop\n      swap2\n      pop\n        /* \"contracts/7_maths.sol\":654:777  function _addmod(uint x, uint y, uint k) public pure returns (uint, uint){\r... */\n      swap4\n      pop\n      swap4\n      swap2\n      pop\n      pop\n      jump\t// out\n        /* \"contracts/7_maths.sol\":435:522  function expon(uint a, uint b) public pure returns (uint){\r... */\n    tag_39:\n        /* \"contracts/7_maths.sol\":487:491  uint */\n      0x00\n        /* \"contracts/7_maths.sol\":513:514  b */\n      dup2\n        /* \"contracts/7_maths.sol\":510:511  a */\n      dup4\n        /* \"contracts/7_maths.sol\":510:514  a**b */\n      tag_67\n      swap2\n      swap1\n      tag_68\n      jump\t// in\n    tag_67:\n        /* \"contracts/7_maths.sol\":503:514  return a**b */\n      swap1\n      pop\n        /* \"contracts/7_maths.sol\":435:522  function expon(uint a, uint b) public pure returns (uint){\r... */\n      swap3\n      swap2\n      pop\n      pop\n      jump\t// out\n        /* \"contracts/7_maths.sol\":544:628  function mod(uint a, uint b) public pure returns (uint){\r... */\n    tag_43:\n        /* \"contracts/7_maths.sol\":594:598  uint */\n      0x00\n        /* \"contracts/7_maths.sol\":619:620  b */\n      dup2\n        /* \"contracts/7_maths.sol\":617:618  a */\n      dup4\n        /* \"contracts/7_maths.sol\":617:620  a%b */\n      tag_70\n      swap2\n      swap1\n      tag_55\n      jump\t// in\n    tag_70:\n        /* \"contracts/7_maths.sol\":610:620  return a%b */\n      swap1\n      pop\n        /* \"contracts/7_maths.sol\":544:628  function mod(uint a, uint b) public pure returns (uint){\r... */\n      swap3\n      swap2\n      pop\n      pop\n      jump\t// out\n        /* \"#utility.yul\":7:144   */\n    tag_72:\n        /* \"#utility.yul\":52:57   */\n      0x00\n        /* \"#utility.yul\":90:96   */\n      dup2\n        /* \"#utility.yul\":77:97   */\n      calldataload\n        /* \"#utility.yul\":68:97   */\n      swap1\n      pop\n        /* \"#utility.yul\":106:138   */\n      tag_74\n        /* \"#utility.yul\":132:137   */\n      dup2\n        /* \"#utility.yul\":106:138   */\n      tag_75\n      jump\t// in\n    tag_74:\n        /* \"#utility.yul\":7:144   */\n      swap3\n      swap2\n      pop\n      pop\n      jump\t// out\n        /* \"#utility.yul\":150:289   */\n    tag_76:\n        /* \"#utility.yul\":196:201   */\n      0x00\n        /* \"#utility.yul\":234:240   */\n      dup2\n        /* \"#utility.yul\":221:241   */\n      calldataload\n        /* \"#utility.yul\":212:241   */\n      swap1\n      pop\n        /* \"#utility.yul\":250:283   */\n      tag_78\n        /* \"#utility.yul\":277:282   */\n      dup2\n        /* \"#utility.yul\":250:283   */\n      tag_79\n      jump\t// in\n    tag_78:\n        /* \"#utility.yul\":150:289   */\n      swap3\n      swap2\n      pop\n      pop\n      jump\t// out\n        /* \"#utility.yul\":295:765   */\n    tag_13:\n        /* \"#utility.yul\":361:367   */\n      0x00\n        /* \"#utility.yul\":369:375   */\n      dup1\n        /* \"#utility.yul\":418:420   */\n      0x40\n        /* \"#utility.yul\":406:415   */\n      dup4\n        /* \"#utility.yul\":397:404   */\n      dup6\n        /* \"#utility.yul\":393:416   */\n      sub\n        /* \"#utility.yul\":389:421   */\n      slt\n        /* \"#utility.yul\":386:505   */\n      iszero\n      tag_81\n      jumpi\n        /* \"#utility.yul\":424:503   */\n      tag_82\n      tag_83\n      jump\t// in\n    tag_82:\n        /* \"#utility.yul\":386:505   */\n    tag_81:\n        /* \"#utility.yul\":544:545   */\n      0x00\n        /* \"#utility.yul\":569:621   */\n      tag_84\n        /* \"#utility.yul\":613:620   */\n      dup6\n        /* \"#utility.yul\":604:610   */\n      dup3\n        /* \"#utility.yul\":593:602   */\n      dup7\n        /* \"#utility.yul\":589:611   */\n      add\n        /* \"#utility.yul\":569:621   */\n      tag_72\n      jump\t// in\n    tag_84:\n        /* \"#utility.yul\":559:621   */\n      swap3\n      pop\n        /* \"#utility.yul\":515:631   */\n      pop\n        /* \"#utility.yul\":670:672   */\n      0x20\n        /* \"#utility.yul\":696:748   */\n      tag_85\n        /* \"#utility.yul\":740:747   */\n      dup6\n        /* \"#utility.yul\":731:737   */\n      dup3\n        /* \"#utility.yul\":720:729   */\n      dup7\n        /* \"#utility.yul\":716:738   */\n      add\n        /* \"#utility.yul\":696:748   */\n      tag_72\n      jump\t// in\n    tag_85:\n        /* \"#utility.yul\":686:748   */\n      swap2\n      pop\n        /* \"#utility.yul\":641:758   */\n      pop\n        /* \"#utility.yul\":295:765   */\n      swap3\n      pop\n      swap3\n      swap1\n      pop\n      jump\t// out\n        /* \"#utility.yul\":771:1245   */\n    tag_25:\n        /* \"#utility.yul\":839:845   */\n      0x00\n        /* \"#utility.yul\":847:853   */\n      dup1\n        /* \"#utility.yul\":896:898   */\n      0x40\n        /* \"#utility.yul\":884:893   */\n      dup4\n        /* \"#utility.yul\":875:882   */\n      dup6\n        /* \"#utility.yul\":871:894   */\n      sub\n        /* \"#utility.yul\":867:899   */\n      slt\n        /* \"#utility.yul\":864:983   */\n      iszero\n      tag_87\n      jumpi\n        /* \"#utility.yul\":902:981   */\n      tag_88\n      tag_83\n      jump\t// in\n    tag_88:\n        /* \"#utility.yul\":864:983   */\n    tag_87:\n        /* \"#utility.yul\":1022:1023   */\n      0x00\n        /* \"#utility.yul\":1047:1100   */\n      tag_89\n        /* \"#utility.yul\":1092:1099   */\n      dup6\n        /* \"#utility.yul\":1083:1089   */\n      dup3\n        /* \"#utility.yul\":1072:1081   */\n      dup7\n        /* \"#utility.yul\":1068:1090   */\n      add\n        /* \"#utility.yul\":1047:1100   */\n      tag_76\n      jump\t// in\n    tag_89:\n        /* \"#utility.yul\":1037:1100   */\n      swap3\n      pop\n        /* \"#utility.yul\":993:1110   */\n      pop\n        /* \"#utility.yul\":1149:1151   */\n      0x20\n        /* \"#utility.yul\":1175:1228   */\n      tag_90\n        /* \"#utility.yul\":1220:1227   */\n      dup6\n        /* \"#utility.yul\":1211:1217   */\n      dup3\n        /* \"#utility.yul\":1200:1209   */\n      dup7\n        /* \"#utility.yul\":1196:1218   */\n      add\n        /* \"#utility.yul\":1175:1228   */\n      tag_76\n      jump\t// in\n    tag_90:\n        /* \"#utility.yul\":1165:1228   */\n      swap2\n      pop\n        /* \"#utility.yul\":1120:1238   */\n      pop\n        /* \"#utility.yul\":771:1245   */\n      swap3\n      pop\n      swap3\n      swap1\n      pop\n      jump\t// out\n        /* \"#utility.yul\":1251:1870   */\n    tag_19:\n        /* \"#utility.yul\":1328:1334   */\n      0x00\n        /* \"#utility.yul\":1336:1342   */\n      dup1\n        /* \"#utility.yul\":1344:1350   */\n      0x00\n        /* \"#utility.yul\":1393:1395   */\n      0x60\n        /* \"#utility.yul\":1381:1390   */\n      dup5\n        /* \"#utility.yul\":1372:1379   */\n      dup7\n        /* \"#utility.yul\":1368:1391   */\n      sub\n        /* \"#utility.yul\":1364:1396   */\n      slt\n        /* \"#utility.yul\":1361:1480   */\n      iszero\n      tag_92\n      jumpi\n        /* \"#utility.yul\":1399:1478   */\n      tag_93\n      tag_83\n      jump\t// in\n    tag_93:\n        /* \"#utility.yul\":1361:1480   */\n    tag_92:\n        /* \"#utility.yul\":1519:1520   */\n      0x00\n        /* \"#utility.yul\":1544:1597   */\n      tag_94\n        /* \"#utility.yul\":1589:1596   */\n      dup7\n        /* \"#utility.yul\":1580:1586   */\n      dup3\n        /* \"#utility.yul\":1569:1578   */\n      dup8\n        /* \"#utility.yul\":1565:1587   */\n      add\n        /* \"#utility.yul\":1544:1597   */\n      tag_76\n      jump\t// in\n    tag_94:\n        /* \"#utility.yul\":1534:1597   */\n      swap4\n      pop\n        /* \"#utility.yul\":1490:1607   */\n      pop\n        /* \"#utility.yul\":1646:1648   */\n      0x20\n        /* \"#utility.yul\":1672:1725   */\n      tag_95\n        /* \"#utility.yul\":1717:1724   */\n      dup7\n        /* \"#utility.yul\":1708:1714   */\n      dup3\n        /* \"#utility.yul\":1697:1706   */\n      dup8\n        /* \"#utility.yul\":1693:1715   */\n      add\n        /* \"#utility.yul\":1672:1725   */\n      tag_76\n      jump\t// in\n    tag_95:\n        /* \"#utility.yul\":1662:1725   */\n      swap3\n      pop\n        /* \"#utility.yul\":1617:1735   */\n      pop\n        /* \"#utility.yul\":1774:1776   */\n      0x40\n        /* \"#utility.yul\":1800:1853   */\n      tag_96\n        /* \"#utility.yul\":1845:1852   */\n      dup7\n        /* \"#utility.yul\":1836:1842   */\n      dup3\n        /* \"#utility.yul\":1825:1834   */\n      dup8\n        /* \"#utility.yul\":1821:1843   */\n      add\n        /* \"#utility.yul\":1800:1853   */\n      tag_76\n      jump\t// in\n    tag_96:\n        /* \"#utility.yul\":1790:1853   */\n      swap2\n      pop\n        /* \"#utility.yul\":1745:1863   */\n      pop\n        /* \"#utility.yul\":1251:1870   */\n      swap3\n      pop\n      swap3\n      pop\n      swap3\n      jump\t// out\n        /* \"#utility.yul\":1876:1991   */\n    tag_97:\n        /* \"#utility.yul\":1961:1984   */\n      tag_99\n        /* \"#utility.yul\":1978:1983   */\n      dup2\n        /* \"#utility.yul\":1961:1984   */\n      tag_100\n      jump\t// in\n    tag_99:\n        /* \"#utility.yul\":1956:1959   */\n      dup3\n        /* \"#utility.yul\":1949:1985   */\n      mstore\n        /* \"#utility.yul\":1876:1991   */\n      pop\n      pop\n      jump\t// out\n        /* \"#utility.yul\":1997:2115   */\n    tag_101:\n        /* \"#utility.yul\":2084:2108   */\n      tag_103\n        /* \"#utility.yul\":2102:2107   */\n      dup2\n        /* \"#utility.yul\":2084:2108   */\n      tag_104\n      jump\t// in\n    tag_103:\n        /* \"#utility.yul\":2079:2082   */\n      dup3\n        /* \"#utility.yul\":2072:2109   */\n      mstore\n        /* \"#utility.yul\":1997:2115   */\n      pop\n      pop\n      jump\t// out\n        /* \"#utility.yul\":2121:2339   */\n    tag_16:\n        /* \"#utility.yul\":2212:2216   */\n      0x00\n        /* \"#utility.yul\":2250:2252   */\n      0x20\n        /* \"#utility.yul\":2239:2248   */\n      dup3\n        /* \"#utility.yul\":2235:2253   */\n      add\n        /* \"#utility.yul\":2227:2253   */\n      swap1\n      pop\n        /* \"#utility.yul\":2263:2332   */\n      tag_106\n        /* \"#utility.yul\":2329:2330   */\n      0x00\n        /* \"#utility.yul\":2318:2327   */\n      dup4\n        /* \"#utility.yul\":2314:2331   */\n      add\n        /* \"#utility.yul\":2305:2311   */\n      dup5\n        /* \"#utility.yul\":2263:2332   */\n      tag_97\n      jump\t// in\n    tag_106:\n        /* \"#utility.yul\":2121:2339   */\n      swap3\n      swap2\n      pop\n      pop\n      jump\t// out\n        /* \"#utility.yul\":2345:2567   */\n    tag_28:\n        /* \"#utility.yul\":2438:2442   */\n      0x00\n        /* \"#utility.yul\":2476:2478   */\n      0x20\n        /* \"#utility.yul\":2465:2474   */\n      dup3\n        /* \"#utility.yul\":2461:2479   */\n      add\n        /* \"#utility.yul\":2453:2479   */\n      swap1\n      pop\n        /* \"#utility.yul\":2489:2560   */\n      tag_108\n        /* \"#utility.yul\":2557:2558   */\n      0x00\n        /* \"#utility.yul\":2546:2555   */\n      dup4\n        /* \"#utility.yul\":2542:2559   */\n      add\n        /* \"#utility.yul\":2533:2539   */\n      dup5\n        /* \"#utility.yul\":2489:2560   */\n      tag_101\n      jump\t// in\n    tag_108:\n        /* \"#utility.yul\":2345:2567   */\n      swap3\n      swap2\n      pop\n      pop\n      jump\t// out\n        /* \"#utility.yul\":2573:2905   */\n    tag_22:\n        /* \"#utility.yul\":2694:2698   */\n      0x00\n        /* \"#utility.yul\":2732:2734   */\n      0x40\n        /* \"#utility.yul\":2721:2730   */\n      dup3\n        /* \"#utility.yul\":2717:2735   */\n      add\n        /* \"#utility.yul\":2709:2735   */\n      swap1\n      pop\n        /* \"#utility.yul\":2745:2816   */\n      tag_110\n        /* \"#utility.yul\":2813:2814   */\n      0x00\n        /* \"#utility.yul\":2802:2811   */\n      dup4\n        /* \"#utility.yul\":2798:2815   */\n      add\n        /* \"#utility.yul\":2789:2795   */\n      dup6\n        /* \"#utility.yul\":2745:2816   */\n      tag_101\n      jump\t// in\n    tag_110:\n        /* \"#utility.yul\":2826:2898   */\n      tag_111\n        /* \"#utility.yul\":2894:2896   */\n      0x20\n        /* \"#utility.yul\":2883:2892   */\n      dup4\n        /* \"#utility.yul\":2879:2897   */\n      add\n        /* \"#utility.yul\":2870:2876   */\n      dup5\n        /* \"#utility.yul\":2826:2898   */\n      tag_101\n      jump\t// in\n    tag_111:\n        /* \"#utility.yul\":2573:2905   */\n      swap4\n      swap3\n      pop\n      pop\n      pop\n      jump\t// out\n        /* \"#utility.yul\":2992:3297   */\n    tag_58:\n        /* \"#utility.yul\":3032:3035   */\n      0x00\n        /* \"#utility.yul\":3051:3071   */\n      tag_115\n        /* \"#utility.yul\":3069:3070   */\n      dup3\n        /* \"#utility.yul\":3051:3071   */\n      tag_104\n      jump\t// in\n    tag_115:\n        /* \"#utility.yul\":3046:3071   */\n      swap2\n      pop\n        /* \"#utility.yul\":3085:3105   */\n      tag_116\n        /* \"#utility.yul\":3103:3104   */\n      dup4\n        /* \"#utility.yul\":3085:3105   */\n      tag_104\n      jump\t// in\n    tag_116:\n        /* \"#utility.yul\":3080:3105   */\n      swap3\n      pop\n        /* \"#utility.yul\":3239:3240   */\n      dup3\n        /* \"#utility.yul\":3171:3237   */\n      0xffffffffffffffffffffffffffffffffffffffffffffffffffffffffffffffff\n        /* \"#utility.yul\":3167:3241   */\n      sub\n        /* \"#utility.yul\":3164:3165   */\n      dup3\n        /* \"#utility.yul\":3161:3242   */\n      gt\n        /* \"#utility.yul\":3158:3265   */\n      iszero\n      tag_117\n      jumpi\n        /* \"#utility.yul\":3245:3263   */\n      tag_118\n      tag_119\n      jump\t// in\n    tag_118:\n        /* \"#utility.yul\":3158:3265   */\n    tag_117:\n        /* \"#utility.yul\":3289:3290   */\n      dup3\n        /* \"#utility.yul\":3286:3287   */\n      dup3\n        /* \"#utility.yul\":3282:3291   */\n      add\n        /* \"#utility.yul\":3275:3291   */\n      swap1\n      pop\n        /* \"#utility.yul\":2992:3297   */\n      swap3\n      swap2\n      pop\n      pop\n      jump\t// out\n        /* \"#utility.yul\":3303:4151   */\n    tag_120:\n        /* \"#utility.yul\":3364:3369   */\n      0x00\n        /* \"#utility.yul\":3371:3375   */\n      dup1\n        /* \"#utility.yul\":3395:3401   */\n      dup3\n        /* \"#utility.yul\":3386:3401   */\n      swap2\n      pop\n        /* \"#utility.yul\":3419:3424   */\n      dup4\n        /* \"#utility.yul\":3410:3424   */\n      swap1\n      pop\n        /* \"#utility.yul\":3433:4145   */\n    tag_122:\n        /* \"#utility.yul\":3454:3455   */\n      0x01\n        /* \"#utility.yul\":3444:3452   */\n      dup6\n        /* \"#utility.yul\":3441:3456   */\n      gt\n        /* \"#utility.yul\":3433:4145   */\n      iszero\n      tag_124\n      jumpi\n        /* \"#utility.yul\":3549:3553   */\n      dup1\n        /* \"#utility.yul\":3544:3547   */\n      dup7\n        /* \"#utility.yul\":3540:3554   */\n      div\n        /* \"#utility.yul\":3534:3538   */\n      dup2\n        /* \"#utility.yul\":3531:3555   */\n      gt\n        /* \"#utility.yul\":3528:3578   */\n      iszero\n      tag_125\n      jumpi\n        /* \"#utility.yul\":3558:3576   */\n      tag_126\n      tag_119\n      jump\t// in\n    tag_126:\n        /* \"#utility.yul\":3528:3578   */\n    tag_125:\n        /* \"#utility.yul\":3608:3609   */\n      0x01\n        /* \"#utility.yul\":3598:3606   */\n      dup6\n        /* \"#utility.yul\":3594:3610   */\n      and\n        /* \"#utility.yul\":3591:4042   */\n      iszero\n      tag_127\n      jumpi\n        /* \"#utility.yul\":4023:4027   */\n      dup1\n        /* \"#utility.yul\":4016:4021   */\n      dup3\n        /* \"#utility.yul\":4012:4028   */\n      mul\n        /* \"#utility.yul\":4003:4028   */\n      swap2\n      pop\n        /* \"#utility.yul\":3591:4042   */\n    tag_127:\n        /* \"#utility.yul\":4073:4077   */\n      dup1\n        /* \"#utility.yul\":4067:4071   */\n      dup2\n        /* \"#utility.yul\":4063:4078   */\n      mul\n        /* \"#utility.yul\":4055:4078   */\n      swap1\n      pop\n        /* \"#utility.yul\":4103:4135   */\n      tag_128\n        /* \"#utility.yul\":4126:4134   */\n      dup6\n        /* \"#utility.yul\":4103:4135   */\n      tag_129\n      jump\t// in\n    tag_128:\n        /* \"#utility.yul\":4091:4135   */\n      swap5\n      pop\n        /* \"#utility.yul\":3433:4145   */\n      jump(tag_122)\n    tag_124:\n        /* \"#utility.yul\":3303:4151   */\n      swap5\n      pop\n      swap5\n      swap3\n      pop\n      pop\n      pop\n      jump\t// out\n        /* \"#utility.yul\":4157:4442   */\n    tag_68:\n        /* \"#utility.yul\":4217:4222   */\n      0x00\n        /* \"#utility.yul\":4241:4264   */\n      tag_131\n        /* \"#utility.yul\":4259:4263   */\n      dup3\n        /* \"#utility.yul\":4241:4264   */\n      tag_104\n      jump\t// in\n    tag_131:\n        /* \"#utility.yul\":4233:4264   */\n      swap2\n      pop\n        /* \"#utility.yul\":4285:4312   */\n      tag_132\n        /* \"#utility.yul\":4303:4311   */\n      dup4\n        /* \"#utility.yul\":4285:4312   */\n      tag_104\n      jump\t// in\n    tag_132:\n        /* \"#utility.yul\":4273:4312   */\n      swap3\n      pop\n        /* \"#utility.yul\":4331:4435   */\n      tag_133\n        /* \"#utility.yul\":4368:4434   */\n      0xffffffffffffffffffffffffffffffffffffffffffffffffffffffffffffffff\n        /* \"#utility.yul\":4358:4366   */\n      dup5\n        /* \"#utility.yul\":4352:4356   */\n      dup5\n        /* \"#utility.yul\":4331:4435   */\n      tag_134\n      jump\t// in\n    tag_133:\n        /* \"#utility.yul\":4322:4435   */\n      swap1\n      pop\n        /* \"#utility.yul\":4157:4442   */\n      swap3\n      swap2\n      pop\n      pop\n      jump\t// out\n        /* \"#utility.yul\":4448:5521   */\n    tag_134:\n        /* \"#utility.yul\":4502:4507   */\n      0x00\n        /* \"#utility.yul\":4693:4701   */\n      dup3\n        /* \"#utility.yul\":4683:4723   */\n      tag_136\n      jumpi\n        /* \"#utility.yul\":4714:4715   */\n      0x01\n        /* \"#utility.yul\":4705:4715   */\n      swap1\n      pop\n        /* \"#utility.yul\":4716:4721   */\n      jump(tag_135)\n        /* \"#utility.yul\":4683:4723   */\n    tag_136:\n        /* \"#utility.yul\":4742:4746   */\n      dup2\n        /* \"#utility.yul\":4732:4768   */\n      tag_137\n      jumpi\n        /* \"#utility.yul\":4759:4760   */\n      0x00\n        /* \"#utility.yul\":4750:4760   */\n      swap1\n      pop\n        /* \"#utility.yul\":4761:4766   */\n      jump(tag_135)\n        /* \"#utility.yul\":4732:4768   */\n    tag_137:\n        /* \"#utility.yul\":4828:4832   */\n      dup2\n        /* \"#utility.yul\":4876:4877   */\n      0x01\n        /* \"#utility.yul\":4871:4898   */\n      dup2\n      eq\n      tag_139\n      jumpi\n        /* \"#utility.yul\":4912:4913   */\n      0x02\n        /* \"#utility.yul\":4907:5098   */\n      dup2\n      eq\n      tag_140\n      jumpi\n        /* \"#utility.yul\":4821:5098   */\n      jump(tag_138)\n        /* \"#utility.yul\":4871:4898   */\n    tag_139:\n        /* \"#utility.yul\":4889:4890   */\n      0x01\n        /* \"#utility.yul\":4880:4890   */\n      swap2\n      pop\n        /* \"#utility.yul\":4891:4896   */\n      pop\n      jump(tag_135)\n        /* \"#utility.yul\":4907:5098   */\n    tag_140:\n        /* \"#utility.yul\":4952:4955   */\n      0xff\n        /* \"#utility.yul\":4942:4950   */\n      dup5\n        /* \"#utility.yul\":4939:4956   */\n      gt\n        /* \"#utility.yul\":4936:4979   */\n      iszero\n      tag_141\n      jumpi\n        /* \"#utility.yul\":4959:4977   */\n      tag_142\n      tag_119\n      jump\t// in\n    tag_142:\n        /* \"#utility.yul\":4936:4979   */\n    tag_141:\n        /* \"#utility.yul\":5008:5016   */\n      dup4\n        /* \"#utility.yul\":5005:5006   */\n      0x02\n        /* \"#utility.yul\":5001:5017   */\n      exp\n        /* \"#utility.yul\":4992:5017   */\n      swap2\n      pop\n        /* \"#utility.yul\":5043:5046   */\n      dup5\n        /* \"#utility.yul\":5036:5041   */\n      dup3\n        /* \"#utility.yul\":5033:5047   */\n      gt\n        /* \"#utility.yul\":5030:5070   */\n      iszero\n      tag_143\n      jumpi\n        /* \"#utility.yul\":5050:5068   */\n      tag_144\n      tag_119\n      jump\t// in\n    tag_144:\n        /* \"#utility.yul\":5030:5070   */\n    tag_143:\n        /* \"#utility.yul\":5083:5088   */\n      pop\n      jump(tag_135)\n        /* \"#utility.yul\":4821:5098   */\n    tag_138:\n      pop\n        /* \"#utility.yul\":5207:5209   */\n      0x20\n        /* \"#utility.yul\":5197:5205   */\n      dup4\n        /* \"#utility.yul\":5194:5210   */\n      lt\n        /* \"#utility.yul\":5188:5191   */\n      0x0133\n        /* \"#utility.yul\":5182:5186   */\n      dup4\n        /* \"#utility.yul\":5179:5192   */\n      lt\n        /* \"#utility.yul\":5175:5211   */\n      and\n        /* \"#utility.yul\":5157:5159   */\n      0x4e\n        /* \"#utility.yul\":5147:5155   */\n      dup5\n        /* \"#utility.yul\":5144:5160   */\n      lt\n        /* \"#utility.yul\":5139:5141   */\n      0x0b\n        /* \"#utility.yul\":5133:5137   */\n      dup5\n        /* \"#utility.yul\":5130:5142   */\n      lt\n        /* \"#utility.yul\":5126:5161   */\n      and\n        /* \"#utility.yul\":5110:5221   */\n      or\n        /* \"#utility.yul\":5107:5353   */\n      iszero\n      tag_145\n      jumpi\n        /* \"#utility.yul\":5263:5271   */\n      dup3\n        /* \"#utility.yul\":5257:5261   */\n      dup3\n        /* \"#utility.yul\":5253:5272   */\n      exp\n        /* \"#utility.yul\":5244:5272   */\n      swap1\n      pop\n        /* \"#utility.yul\":5298:5301   */\n      dup4\n        /* \"#utility.yul\":5291:5296   */\n      dup2\n        /* \"#utility.yul\":5288:5302   */\n      gt\n        /* \"#utility.yul\":5285:5325   */\n      iszero\n      tag_146\n      jumpi\n        /* \"#utility.yul\":5305:5323   */\n      tag_147\n      tag_119\n      jump\t// in\n    tag_147:\n        /* \"#utility.yul\":5285:5325   */\n    tag_146:\n        /* \"#utility.yul\":5338:5343   */\n      jump(tag_135)\n        /* \"#utility.yul\":5107:5353   */\n    tag_145:\n        /* \"#utility.yul\":5378:5420   */\n      tag_148\n        /* \"#utility.yul\":5416:5419   */\n      dup5\n        /* \"#utility.yul\":5406:5414   */\n      dup5\n        /* \"#utility.yul\":5400:5404   */\n      dup5\n        /* \"#utility.yul\":5397:5398   */\n      0x01\n        /* \"#utility.yul\":5378:5420   */\n      tag_120\n      jump\t// in\n    tag_148:\n        /* \"#utility.yul\":5363:5420   */\n      swap3\n      pop\n      swap1\n      pop\n        /* \"#utility.yul\":5452:5456   */\n      dup2\n        /* \"#utility.yul\":5447:5450   */\n      dup5\n        /* \"#utility.yul\":5443:5457   */\n      div\n        /* \"#utility.yul\":5436:5441   */\n      dup2\n        /* \"#utility.yul\":5433:5458   */\n      gt\n        /* \"#utility.yul\":5430:5481   */\n      iszero\n      tag_149\n      jumpi\n        /* \"#utility.yul\":5461:5479   */\n      tag_150\n      tag_119\n      jump\t// in\n    tag_150:\n        /* \"#utility.yul\":5430:5481   */\n    tag_149:\n        /* \"#utility.yul\":5510:5514   */\n      dup2\n        /* \"#utility.yul\":5503:5508   */\n      dup2\n        /* \"#utility.yul\":5499:5515   */\n      mul\n        /* \"#utility.yul\":5490:5515   */\n      swap1\n      pop\n        /* \"#utility.yul\":4448:5521   */\n    tag_135:\n      swap4\n      swap3\n      pop\n      pop\n      pop\n      jump\t// out\n        /* \"#utility.yul\":5527:5875   */\n    tag_53:\n        /* \"#utility.yul\":5567:5574   */\n      0x00\n        /* \"#utility.yul\":5590:5610   */\n      tag_152\n        /* \"#utility.yul\":5608:5609   */\n      dup3\n        /* \"#utility.yul\":5590:5610   */\n      tag_104\n      jump\t// in\n    tag_152:\n        /* \"#utility.yul\":5585:5610   */\n      swap2\n      pop\n        /* \"#utility.yul\":5624:5644   */\n      tag_153\n        /* \"#utility.yul\":5642:5643   */\n      dup4\n        /* \"#utility.yul\":5624:5644   */\n      tag_104\n      jump\t// in\n    tag_153:\n        /* \"#utility.yul\":5619:5644   */\n      swap3\n      pop\n        /* \"#utility.yul\":5812:5813   */\n      dup2\n        /* \"#utility.yul\":5744:5810   */\n      0xffffffffffffffffffffffffffffffffffffffffffffffffffffffffffffffff\n        /* \"#utility.yul\":5740:5814   */\n      div\n        /* \"#utility.yul\":5737:5738   */\n      dup4\n        /* \"#utility.yul\":5734:5815   */\n      gt\n        /* \"#utility.yul\":5729:5730   */\n      dup3\n        /* \"#utility.yul\":5722:5731   */\n      iszero\n        /* \"#utility.yul\":5715:5732   */\n      iszero\n        /* \"#utility.yul\":5711:5816   */\n      and\n        /* \"#utility.yul\":5708:5839   */\n      iszero\n      tag_154\n      jumpi\n        /* \"#utility.yul\":5819:5837   */\n      tag_155\n      tag_119\n      jump\t// in\n    tag_155:\n        /* \"#utility.yul\":5708:5839   */\n    tag_154:\n        /* \"#utility.yul\":5867:5868   */\n      dup3\n        /* \"#utility.yul\":5864:5865   */\n      dup3\n        /* \"#utility.yul\":5860:5869   */\n      mul\n        /* \"#utility.yul\":5849:5869   */\n      swap1\n      pop\n        /* \"#utility.yul\":5527:5875   */\n      swap3\n      swap2\n      pop\n      pop\n      jump\t// out\n        /* \"#utility.yul\":5881:6408   */\n    tag_47:\n        /* \"#utility.yul\":5920:5924   */\n      0x00\n        /* \"#utility.yul\":5940:5959   */\n      tag_157\n        /* \"#utility.yul\":5957:5958   */\n      dup3\n        /* \"#utility.yul\":5940:5959   */\n      tag_100\n      jump\t// in\n    tag_157:\n        /* \"#utility.yul\":5935:5959   */\n      swap2\n      pop\n        /* \"#utility.yul\":5973:5992   */\n      tag_158\n        /* \"#utility.yul\":5990:5991   */\n      dup4\n        /* \"#utility.yul\":5973:5992   */\n      tag_100\n      jump\t// in\n    tag_158:\n        /* \"#utility.yul\":5968:5992   */\n      swap3\n      pop\n        /* \"#utility.yul\":6162:6163   */\n      dup3\n        /* \"#utility.yul\":6094:6160   */\n      0x8000000000000000000000000000000000000000000000000000000000000000\n        /* \"#utility.yul\":6090:6164   */\n      add\n        /* \"#utility.yul\":6087:6088   */\n      dup3\n        /* \"#utility.yul\":6083:6165   */\n      slt\n        /* \"#utility.yul\":6078:6079   */\n      0x00\n        /* \"#utility.yul\":6075:6076   */\n      dup5\n        /* \"#utility.yul\":6071:6080   */\n      slt\n        /* \"#utility.yul\":6064:6081   */\n      iszero\n        /* \"#utility.yul\":6060:6166   */\n      and\n        /* \"#utility.yul\":6057:6189   */\n      iszero\n      tag_159\n      jumpi\n        /* \"#utility.yul\":6169:6187   */\n      tag_160\n      tag_119\n      jump\t// in\n    tag_160:\n        /* \"#utility.yul\":6057:6189   */\n    tag_159:\n        /* \"#utility.yul\":6348:6349   */\n      dup3\n        /* \"#utility.yul\":6280:6346   */\n      0x7fffffffffffffffffffffffffffffffffffffffffffffffffffffffffffffff\n        /* \"#utility.yul\":6276:6350   */\n      add\n        /* \"#utility.yul\":6273:6274   */\n      dup3\n        /* \"#utility.yul\":6269:6351   */\n      sgt\n        /* \"#utility.yul\":6265:6266   */\n      0x00\n        /* \"#utility.yul\":6262:6263   */\n      dup5\n        /* \"#utility.yul\":6258:6267   */\n      slt\n        /* \"#utility.yul\":6254:6352   */\n      and\n        /* \"#utility.yul\":6251:6375   */\n      iszero\n      tag_161\n      jumpi\n        /* \"#utility.yul\":6355:6373   */\n      tag_162\n      tag_119\n      jump\t// in\n    tag_162:\n        /* \"#utility.yul\":6251:6375   */\n    tag_161:\n        /* \"#utility.yul\":6400:6401   */\n      dup3\n        /* \"#utility.yul\":6397:6398   */\n      dup3\n        /* \"#utility.yul\":6393:6402   */\n      sub\n        /* \"#utility.yul\":6385:6402   */\n      swap1\n      pop\n        /* \"#utility.yul\":5881:6408   */\n      swap3\n      swap2\n      pop\n      pop\n      jump\t// out\n        /* \"#utility.yul\":6414:6490   */\n    tag_100:\n        /* \"#utility.yul\":6450:6457   */\n      0x00\n        /* \"#utility.yul\":6479:6484   */\n      dup2\n        /* \"#utility.yul\":6468:6484   */\n      swap1\n      pop\n        /* \"#utility.yul\":6414:6490   */\n      swap2\n      swap1\n      pop\n      jump\t// out\n        /* \"#utility.yul\":6496:6573   */\n    tag_104:\n        /* \"#utility.yul\":6533:6540   */\n      0x00\n        /* \"#utility.yul\":6562:6567   */\n      dup2\n        /* \"#utility.yul\":6551:6567   */\n      swap1\n      pop\n        /* \"#utility.yul\":6496:6573   */\n      swap2\n      swap1\n      pop\n      jump\t// out\n        /* \"#utility.yul\":6579:6755   */\n    tag_55:\n        /* \"#utility.yul\":6611:6612   */\n      0x00\n        /* \"#utility.yul\":6628:6648   */\n      tag_166\n        /* \"#utility.yul\":6646:6647   */\n      dup3\n        /* \"#utility.yul\":6628:6648   */\n      tag_104\n      jump\t// in\n    tag_166:\n        /* \"#utility.yul\":6623:6648   */\n      swap2\n      pop\n        /* \"#utility.yul\":6662:6682   */\n      tag_167\n        /* \"#utility.yul\":6680:6681   */\n      dup4\n        /* \"#utility.yul\":6662:6682   */\n      tag_104\n      jump\t// in\n    tag_167:\n        /* \"#utility.yul\":6657:6682   */\n      swap3\n      pop\n        /* \"#utility.yul\":6701:6702   */\n      dup3\n        /* \"#utility.yul\":6691:6726   */\n      tag_168\n      jumpi\n        /* \"#utility.yul\":6706:6724   */\n      tag_169\n      tag_51\n      jump\t// in\n    tag_169:\n        /* \"#utility.yul\":6691:6726   */\n    tag_168:\n        /* \"#utility.yul\":6747:6748   */\n      dup3\n        /* \"#utility.yul\":6744:6745   */\n      dup3\n        /* \"#utility.yul\":6740:6749   */\n      mod\n        /* \"#utility.yul\":6735:6749   */\n      swap1\n      pop\n        /* \"#utility.yul\":6579:6755   */\n      swap3\n      swap2\n      pop\n      pop\n      jump\t// out\n        /* \"#utility.yul\":6761:6941   */\n    tag_119:\n        /* \"#utility.yul\":6809:6886   */\n      0x4e487b7100000000000000000000000000000000000000000000000000000000\n        /* \"#utility.yul\":6806:6807   */\n      0x00\n        /* \"#utility.yul\":6799:6887   */\n      mstore\n        /* \"#utility.yul\":6906:6910   */\n      0x11\n        /* \"#utility.yul\":6903:6904   */\n      0x04\n        /* \"#utility.yul\":6896:6911   */\n      mstore\n        /* \"#utility.yul\":6930:6934   */\n      0x24\n        /* \"#utility.yul\":6927:6928   */\n      0x00\n        /* \"#utility.yul\":6920:6935   */\n      revert\n        /* \"#utility.yul\":6947:7127   */\n    tag_51:\n        /* \"#utility.yul\":6995:7072   */\n      0x4e487b7100000000000000000000000000000000000000000000000000000000\n        /* \"#utility.yul\":6992:6993   */\n      0x00\n        /* \"#utility.yul\":6985:7073   */\n      mstore\n        /* \"#utility.yul\":7092:7096   */\n      0x12\n        /* \"#utility.yul\":7089:7090   */\n      0x04\n        /* \"#utility.yul\":7082:7097   */\n      mstore\n        /* \"#utility.yul\":7116:7120   */\n      0x24\n        /* \"#utility.yul\":7113:7114   */\n      0x00\n        /* \"#utility.yul\":7106:7121   */\n      revert\n        /* \"#utility.yul\":7256:7373   */\n    tag_83:\n        /* \"#utility.yul\":7365:7366   */\n      0x00\n        /* \"#utility.yul\":7362:7363   */\n      dup1\n        /* \"#utility.yul\":7355:7367   */\n      revert\n        /* \"#utility.yul\":7379:7481   */\n    tag_129:\n        /* \"#utility.yul\":7421:7429   */\n      0x00\n        /* \"#utility.yul\":7468:7473   */\n      dup2\n        /* \"#utility.yul\":7465:7466   */\n      0x01\n        /* \"#utility.yul\":7461:7474   */\n      shr\n        /* \"#utility.yul\":7440:7474   */\n      swap1\n      pop\n        /* \"#utility.yul\":7379:7481   */\n      swap2\n      swap1\n      pop\n      jump\t// out\n        /* \"#utility.yul\":7487:7607   */\n    tag_75:\n        /* \"#utility.yul\":7559:7582   */\n      tag_177\n        /* \"#utility.yul\":7576:7581   */\n      dup2\n        /* \"#utility.yul\":7559:7582   */\n      tag_100\n      jump\t// in\n    tag_177:\n        /* \"#utility.yul\":7552:7557   */\n      dup2\n        /* \"#utility.yul\":7549:7583   */\n      eq\n        /* \"#utility.yul\":7539:7601   */\n      tag_178\n      jumpi\n        /* \"#utility.yul\":7597:7598   */\n      0x00\n        /* \"#utility.yul\":7594:7595   */\n      dup1\n        /* \"#utility.yul\":7587:7599   */\n      revert\n        /* \"#utility.yul\":7539:7601   */\n    tag_178:\n        /* \"#utility.yul\":7487:7607   */\n      pop\n      jump\t// out\n        /* \"#utility.yul\":7613:7735   */\n    tag_79:\n        /* \"#utility.yul\":7686:7710   */\n      tag_180\n        /* \"#utility.yul\":7704:7709   */\n      dup2\n        /* \"#utility.yul\":7686:7710   */\n      tag_104\n      jump\t// in\n    tag_180:\n        /* \"#utility.yul\":7679:7684   */\n      dup2\n        /* \"#utility.yul\":7676:7711   */\n      eq\n        /* \"#utility.yul\":7666:7729   */\n      tag_181\n      jumpi\n        /* \"#utility.yul\":7725:7726   */\n      0x00\n        /* \"#utility.yul\":7722:7723   */\n      dup1\n        /* \"#utility.yul\":7715:7727   */\n      revert\n        /* \"#utility.yul\":7666:7729   */\n    tag_181:\n        /* \"#utility.yul\":7613:7735   */\n      pop\n      jump\t// out\n\n    auxdata: 0xa2646970667358221220c0a1c2a11aaabf0f53a4425fe33608b80260644fd6c5f4cf2db4dd3ec9c1cf4464736f6c63430008070033\n}\n",
				"bytecode": {
					"linkReferences": {},
					"object": "608060405234801561001057600080fd5b506107fa806100206000396000f3fe608060405234801561001057600080fd5b506004361061007d5760003560e01c8063d17fb9ea1161005b578063d17fb9ea14610113578063dd125e3714610143578063e989d9cc14610174578063f43f523a146101a45761007d565b80634c627bad14610082578063871f9af4146100b2578063b1b45b1b146100e3575b600080fd5b61009c600480360381019061009791906102dc565b6101d4565b6040516100a991906103cd565b60405180910390f35b6100cc60048036038101906100c7919061035c565b6101ea565b6040516100da929190610403565b60405180910390f35b6100fd60048036038101906100f8919061031c565b610222565b60405161010a91906103e8565b60405180910390f35b61012d6004803603810190610128919061031c565b610238565b60405161013a91906103e8565b60405180910390f35b61015d6004803603810190610158919061035c565b61024e565b60405161016b929190610403565b60405180910390f35b61018e6004803603810190610189919061031c565b610286565b60405161019b91906103e8565b60405180910390f35b6101be60048036038101906101b9919061031c565b61029c565b6040516101cb91906103e8565b60405180910390f35b600081836101e2919061064d565b905092915050565b60008082806101fc576101fb610755565b5b84860983858761020c91906105f3565b61021691906106f5565b91509150935093915050565b60008183610230919061042c565b905092915050565b6000818361024691906105f3565b905092915050565b60008082806102605761025f610755565b5b848608838587610270919061042c565b61027a91906106f5565b91509150935093915050565b6000818361029491906104d5565b905092915050565b600081836102aa91906106f5565b905092915050565b6000813590506102c181610796565b92915050565b6000813590506102d6816107ad565b92915050565b600080604083850312156102f3576102f2610784565b5b6000610301858286016102b2565b9250506020610312858286016102b2565b9150509250929050565b6000806040838503121561033357610332610784565b5b6000610341858286016102c7565b9250506020610352858286016102c7565b9150509250929050565b60008060006060848603121561037557610374610784565b5b6000610383868287016102c7565b9350506020610394868287016102c7565b92505060406103a5868287016102c7565b9150509250925092565b6103b8816106e1565b82525050565b6103c7816106eb565b82525050565b60006020820190506103e260008301846103af565b92915050565b60006020820190506103fd60008301846103be565b92915050565b600060408201905061041860008301856103be565b61042560208301846103be565b9392505050565b6000610437826106eb565b9150610442836106eb565b9250827fffffffffffffffffffffffffffffffffffffffffffffffffffffffffffffffff0382111561047757610476610726565b5b828201905092915050565b6000808291508390505b60018511156104cc578086048111156104a8576104a7610726565b5b60018516156104b75780820291505b80810290506104c585610789565b945061048c565b94509492505050565b60006104e0826106eb565b91506104eb836106eb565b92506105187fffffffffffffffffffffffffffffffffffffffffffffffffffffffffffffffff8484610520565b905092915050565b60008261053057600190506105ec565b8161053e57600090506105ec565b8160018114610554576002811461055e5761058d565b60019150506105ec565b60ff8411156105705761056f610726565b5b8360020a91508482111561058757610586610726565b5b506105ec565b5060208310610133831016604e8410600b84101617156105c25782820a9050838111156105bd576105bc610726565b5b6105ec565b6105cf8484846001610482565b925090508184048111156105e6576105e5610726565b5b81810290505b9392505050565b60006105fe826106eb565b9150610609836106eb565b9250817fffffffffffffffffffffffffffffffffffffffffffffffffffffffffffffffff048311821515161561064257610641610726565b5b828202905092915050565b6000610658826106e1565b9150610663836106e1565b9250827f80000000000000000000000000000000000000000000000000000000000000000182126000841215161561069e5761069d610726565b5b827f7fffffffffffffffffffffffffffffffffffffffffffffffffffffffffffffff0182136000841216156106d6576106d5610726565b5b828203905092915050565b6000819050919050565b6000819050919050565b6000610700826106eb565b915061070b836106eb565b92508261071b5761071a610755565b5b828206905092915050565b7f4e487b7100000000000000000000000000000000000000000000000000000000600052601160045260246000fd5b7f4e487b7100000000000000000000000000000000000000000000000000000000600052601260045260246000fd5b600080fd5b60008160011c9050919050565b61079f816106e1565b81146107aa57600080fd5b50565b6107b6816106eb565b81146107c157600080fd5b5056fea2646970667358221220c0a1c2a11aaabf0f53a4425fe33608b80260644fd6c5f4cf2db4dd3ec9c1cf4464736f6c63430008070033",
					"opcodes": "PUSH1 0x80 PUSH1 0x40 MSTORE CALLVALUE DUP1 ISZERO PUSH2 0x10 JUMPI PUSH1 0x0 DUP1 REVERT JUMPDEST POP PUSH2 0x7FA DUP1 PUSH2 0x20 PUSH1 0x0 CODECOPY PUSH1 0x0 RETURN INVALID PUSH1 0x80 PUSH1 0x40 MSTORE CALLVALUE DUP1 ISZERO PUSH2 0x10 JUMPI PUSH1 0x0 DUP1 REVERT JUMPDEST POP PUSH1 0x4 CALLDATASIZE LT PUSH2 0x7D JUMPI PUSH1 0x0 CALLDATALOAD PUSH1 0xE0 SHR DUP1 PUSH4 0xD17FB9EA GT PUSH2 0x5B JUMPI DUP1 PUSH4 0xD17FB9EA EQ PUSH2 0x113 JUMPI DUP1 PUSH4 0xDD125E37 EQ PUSH2 0x143 JUMPI DUP1 PUSH4 0xE989D9CC EQ PUSH2 0x174 JUMPI DUP1 PUSH4 0xF43F523A EQ PUSH2 0x1A4 JUMPI PUSH2 0x7D JUMP JUMPDEST DUP1 PUSH4 0x4C627BAD EQ PUSH2 0x82 JUMPI DUP1 PUSH4 0x871F9AF4 EQ PUSH2 0xB2 JUMPI DUP1 PUSH4 0xB1B45B1B EQ PUSH2 0xE3 JUMPI JUMPDEST PUSH1 0x0 DUP1 REVERT JUMPDEST PUSH2 0x9C PUSH1 0x4 DUP1 CALLDATASIZE SUB DUP2 ADD SWAP1 PUSH2 0x97 SWAP2 SWAP1 PUSH2 0x2DC JUMP JUMPDEST PUSH2 0x1D4 JUMP JUMPDEST PUSH1 0x40 MLOAD PUSH2 0xA9 SWAP2 SWAP1 PUSH2 0x3CD JUMP JUMPDEST PUSH1 0x40 MLOAD DUP1 SWAP2 SUB SWAP1 RETURN JUMPDEST PUSH2 0xCC PUSH1 0x4 DUP1 CALLDATASIZE SUB DUP2 ADD SWAP1 PUSH2 0xC7 SWAP2 SWAP1 PUSH2 0x35C JUMP JUMPDEST PUSH2 0x1EA JUMP JUMPDEST PUSH1 0x40 MLOAD PUSH2 0xDA SWAP3 SWAP2 SWAP1 PUSH2 0x403 JUMP JUMPDEST PUSH1 0x40 MLOAD DUP1 SWAP2 SUB SWAP1 RETURN JUMPDEST PUSH2 0xFD PUSH1 0x4 DUP1 CALLDATASIZE SUB DUP2 ADD SWAP1 PUSH2 0xF8 SWAP2 SWAP1 PUSH2 0x31C JUMP JUMPDEST PUSH2 0x222 JUMP JUMPDEST PUSH1 0x40 MLOAD PUSH2 0x10A SWAP2 SWAP1 PUSH2 0x3E8 JUMP JUMPDEST PUSH1 0x40 MLOAD DUP1 SWAP2 SUB SWAP1 RETURN JUMPDEST PUSH2 0x12D PUSH1 0x4 DUP1 CALLDATASIZE SUB DUP2 ADD SWAP1 PUSH2 0x128 SWAP2 SWAP1 PUSH2 0x31C JUMP JUMPDEST PUSH2 0x238 JUMP JUMPDEST PUSH1 0x40 MLOAD PUSH2 0x13A SWAP2 SWAP1 PUSH2 0x3E8 JUMP JUMPDEST PUSH1 0x40 MLOAD DUP1 SWAP2 SUB SWAP1 RETURN JUMPDEST PUSH2 0x15D PUSH1 0x4 DUP1 CALLDATASIZE SUB DUP2 ADD SWAP1 PUSH2 0x158 SWAP2 SWAP1 PUSH2 0x35C JUMP JUMPDEST PUSH2 0x24E JUMP JUMPDEST PUSH1 0x40 MLOAD PUSH2 0x16B SWAP3 SWAP2 SWAP1 PUSH2 0x403 JUMP JUMPDEST PUSH1 0x40 MLOAD DUP1 SWAP2 SUB SWAP1 RETURN JUMPDEST PUSH2 0x18E PUSH1 0x4 DUP1 CALLDATASIZE SUB DUP2 ADD SWAP1 PUSH2 0x189 SWAP2 SWAP1 PUSH2 0x31C JUMP JUMPDEST PUSH2 0x286 JUMP JUMPDEST PUSH1 0x40 MLOAD PUSH2 0x19B SWAP2 SWAP1 PUSH2 0x3E8 JUMP JUMPDEST PUSH1 0x40 MLOAD DUP1 SWAP2 SUB SWAP1 RETURN JUMPDEST PUSH2 0x1BE PUSH1 0x4 DUP1 CALLDATASIZE SUB DUP2 ADD SWAP1 PUSH2 0x1B9 SWAP2 SWAP1 PUSH2 0x31C JUMP JUMPDEST PUSH2 0x29C JUMP JUMPDEST PUSH1 0x40 MLOAD PUSH2 0x1CB SWAP2 SWAP1 PUSH2 0x3E8 JUMP JUMPDEST PUSH1 0x40 MLOAD DUP1 SWAP2 SUB SWAP1 RETURN JUMPDEST PUSH1 0x0 DUP2 DUP4 PUSH2 0x1E2 SWAP2 SWAP1 PUSH2 0x64D JUMP JUMPDEST SWAP1 POP SWAP3 SWAP2 POP POP JUMP JUMPDEST PUSH1 0x0 DUP1 DUP3 DUP1 PUSH2 0x1FC JUMPI PUSH2 0x1FB PUSH2 0x755 JUMP JUMPDEST JUMPDEST DUP5 DUP7 MULMOD DUP4 DUP6 DUP8 PUSH2 0x20C SWAP2 SWAP1 PUSH2 0x5F3 JUMP JUMPDEST PUSH2 0x216 SWAP2 SWAP1 PUSH2 0x6F5 JUMP JUMPDEST SWAP2 POP SWAP2 POP SWAP4 POP SWAP4 SWAP2 POP POP JUMP JUMPDEST PUSH1 0x0 DUP2 DUP4 PUSH2 0x230 SWAP2 SWAP1 PUSH2 0x42C JUMP JUMPDEST SWAP1 POP SWAP3 SWAP2 POP POP JUMP JUMPDEST PUSH1 0x0 DUP2 DUP4 PUSH2 0x246 SWAP2 SWAP1 PUSH2 0x5F3 JUMP JUMPDEST SWAP1 POP SWAP3 SWAP2 POP POP JUMP JUMPDEST PUSH1 0x0 DUP1 DUP3 DUP1 PUSH2 0x260 JUMPI PUSH2 0x25F PUSH2 0x755 JUMP JUMPDEST JUMPDEST DUP5 DUP7 ADDMOD DUP4 DUP6 DUP8 PUSH2 0x270 SWAP2 SWAP1 PUSH2 0x42C JUMP JUMPDEST PUSH2 0x27A SWAP2 SWAP1 PUSH2 0x6F5 JUMP JUMPDEST SWAP2 POP SWAP2 POP SWAP4 POP SWAP4 SWAP2 POP POP JUMP JUMPDEST PUSH1 0x0 DUP2 DUP4 PUSH2 0x294 SWAP2 SWAP1 PUSH2 0x4D5 JUMP JUMPDEST SWAP1 POP SWAP3 SWAP2 POP POP JUMP JUMPDEST PUSH1 0x0 DUP2 DUP4 PUSH2 0x2AA SWAP2 SWAP1 PUSH2 0x6F5 JUMP JUMPDEST SWAP1 POP SWAP3 SWAP2 POP POP JUMP JUMPDEST PUSH1 0x0 DUP2 CALLDATALOAD SWAP1 POP PUSH2 0x2C1 DUP2 PUSH2 0x796 JUMP JUMPDEST SWAP3 SWAP2 POP POP JUMP JUMPDEST PUSH1 0x0 DUP2 CALLDATALOAD SWAP1 POP PUSH2 0x2D6 DUP2 PUSH2 0x7AD JUMP JUMPDEST SWAP3 SWAP2 POP POP JUMP JUMPDEST PUSH1 0x0 DUP1 PUSH1 0x40 DUP4 DUP6 SUB SLT ISZERO PUSH2 0x2F3 JUMPI PUSH2 0x2F2 PUSH2 0x784 JUMP JUMPDEST JUMPDEST PUSH1 0x0 PUSH2 0x301 DUP6 DUP3 DUP7 ADD PUSH2 0x2B2 JUMP JUMPDEST SWAP3 POP POP PUSH1 0x20 PUSH2 0x312 DUP6 DUP3 DUP7 ADD PUSH2 0x2B2 JUMP JUMPDEST SWAP2 POP POP SWAP3 POP SWAP3 SWAP1 POP JUMP JUMPDEST PUSH1 0x0 DUP1 PUSH1 0x40 DUP4 DUP6 SUB SLT ISZERO PUSH2 0x333 JUMPI PUSH2 0x332 PUSH2 0x784 JUMP JUMPDEST JUMPDEST PUSH1 0x0 PUSH2 0x341 DUP6 DUP3 DUP7 ADD PUSH2 0x2C7 JUMP JUMPDEST SWAP3 POP POP PUSH1 0x20 PUSH2 0x352 DUP6 DUP3 DUP7 ADD PUSH2 0x2C7 JUMP JUMPDEST SWAP2 POP POP SWAP3 POP SWAP3 SWAP1 POP JUMP JUMPDEST PUSH1 0x0 DUP1 PUSH1 0x0 PUSH1 0x60 DUP5 DUP7 SUB SLT ISZERO PUSH2 0x375 JUMPI PUSH2 0x374 PUSH2 0x784 JUMP JUMPDEST JUMPDEST PUSH1 0x0 PUSH2 0x383 DUP7 DUP3 DUP8 ADD PUSH2 0x2C7 JUMP JUMPDEST SWAP4 POP POP PUSH1 0x20 PUSH2 0x394 DUP7 DUP3 DUP8 ADD PUSH2 0x2C7 JUMP JUMPDEST SWAP3 POP POP PUSH1 0x40 PUSH2 0x3A5 DUP7 DUP3 DUP8 ADD PUSH2 0x2C7 JUMP JUMPDEST SWAP2 POP POP SWAP3 POP SWAP3 POP SWAP3 JUMP JUMPDEST PUSH2 0x3B8 DUP2 PUSH2 0x6E1 JUMP JUMPDEST DUP3 MSTORE POP POP JUMP JUMPDEST PUSH2 0x3C7 DUP2 PUSH2 0x6EB JUMP JUMPDEST DUP3 MSTORE POP POP JUMP JUMPDEST PUSH1 0x0 PUSH1 0x20 DUP3 ADD SWAP1 POP PUSH2 0x3E2 PUSH1 0x0 DUP4 ADD DUP5 PUSH2 0x3AF JUMP JUMPDEST SWAP3 SWAP2 POP POP JUMP JUMPDEST PUSH1 0x0 PUSH1 0x20 DUP3 ADD SWAP1 POP PUSH2 0x3FD PUSH1 0x0 DUP4 ADD DUP5 PUSH2 0x3BE JUMP JUMPDEST SWAP3 SWAP2 POP POP JUMP JUMPDEST PUSH1 0x0 PUSH1 0x40 DUP3 ADD SWAP1 POP PUSH2 0x418 PUSH1 0x0 DUP4 ADD DUP6 PUSH2 0x3BE JUMP JUMPDEST PUSH2 0x425 PUSH1 0x20 DUP4 ADD DUP5 PUSH2 0x3BE JUMP JUMPDEST SWAP4 SWAP3 POP POP POP JUMP JUMPDEST PUSH1 0x0 PUSH2 0x437 DUP3 PUSH2 0x6EB JUMP JUMPDEST SWAP2 POP PUSH2 0x442 DUP4 PUSH2 0x6EB JUMP JUMPDEST SWAP3 POP DUP3 PUSH32 0xFFFFFFFFFFFFFFFFFFFFFFFFFFFFFFFFFFFFFFFFFFFFFFFFFFFFFFFFFFFFFFFF SUB DUP3 GT ISZERO PUSH2 0x477 JUMPI PUSH2 0x476 PUSH2 0x726 JUMP JUMPDEST JUMPDEST DUP3 DUP3 ADD SWAP1 POP SWAP3 SWAP2 POP POP JUMP JUMPDEST PUSH1 0x0 DUP1 DUP3 SWAP2 POP DUP4 SWAP1 POP JUMPDEST PUSH1 0x1 DUP6 GT ISZERO PUSH2 0x4CC JUMPI DUP1 DUP7 DIV DUP2 GT ISZERO PUSH2 0x4A8 JUMPI PUSH2 0x4A7 PUSH2 0x726 JUMP JUMPDEST JUMPDEST PUSH1 0x1 DUP6 AND ISZERO PUSH2 0x4B7 JUMPI DUP1 DUP3 MUL SWAP2 POP JUMPDEST DUP1 DUP2 MUL SWAP1 POP PUSH2 0x4C5 DUP6 PUSH2 0x789 JUMP JUMPDEST SWAP5 POP PUSH2 0x48C JUMP JUMPDEST SWAP5 POP SWAP5 SWAP3 POP POP POP JUMP JUMPDEST PUSH1 0x0 PUSH2 0x4E0 DUP3 PUSH2 0x6EB JUMP JUMPDEST SWAP2 POP PUSH2 0x4EB DUP4 PUSH2 0x6EB JUMP JUMPDEST SWAP3 POP PUSH2 0x518 PUSH32 0xFFFFFFFFFFFFFFFFFFFFFFFFFFFFFFFFFFFFFFFFFFFFFFFFFFFFFFFFFFFFFFFF DUP5 DUP5 PUSH2 0x520 JUMP JUMPDEST SWAP1 POP SWAP3 SWAP2 POP POP JUMP JUMPDEST PUSH1 0x0 DUP3 PUSH2 0x530 JUMPI PUSH1 0x1 SWAP1 POP PUSH2 0x5EC JUMP JUMPDEST DUP2 PUSH2 0x53E JUMPI PUSH1 0x0 SWAP1 POP PUSH2 0x5EC JUMP JUMPDEST DUP2 PUSH1 0x1 DUP2 EQ PUSH2 0x554 JUMPI PUSH1 0x2 DUP2 EQ PUSH2 0x55E JUMPI PUSH2 0x58D JUMP JUMPDEST PUSH1 0x1 SWAP2 POP POP PUSH2 0x5EC JUMP JUMPDEST PUSH1 0xFF DUP5 GT ISZERO PUSH2 0x570 JUMPI PUSH2 0x56F PUSH2 0x726 JUMP JUMPDEST JUMPDEST DUP4 PUSH1 0x2 EXP SWAP2 POP DUP5 DUP3 GT ISZERO PUSH2 0x587 JUMPI PUSH2 0x586 PUSH2 0x726 JUMP JUMPDEST JUMPDEST POP PUSH2 0x5EC JUMP JUMPDEST POP PUSH1 0x20 DUP4 LT PUSH2 0x133 DUP4 LT AND PUSH1 0x4E DUP5 LT PUSH1 0xB DUP5 LT AND OR ISZERO PUSH2 0x5C2 JUMPI DUP3 DUP3 EXP SWAP1 POP DUP4 DUP2 GT ISZERO PUSH2 0x5BD JUMPI PUSH2 0x5BC PUSH2 0x726 JUMP JUMPDEST JUMPDEST PUSH2 0x5EC JUMP JUMPDEST PUSH2 0x5CF DUP5 DUP5 DUP5 PUSH1 0x1 PUSH2 0x482 JUMP JUMPDEST SWAP3 POP SWAP1 POP DUP2 DUP5 DIV DUP2 GT ISZERO PUSH2 0x5E6 JUMPI PUSH2 0x5E5 PUSH2 0x726 JUMP JUMPDEST JUMPDEST DUP2 DUP2 MUL SWAP1 POP JUMPDEST SWAP4 SWAP3 POP POP POP JUMP JUMPDEST PUSH1 0x0 PUSH2 0x5FE DUP3 PUSH2 0x6EB JUMP JUMPDEST SWAP2 POP PUSH2 0x609 DUP4 PUSH2 0x6EB JUMP JUMPDEST SWAP3 POP DUP2 PUSH32 0xFFFFFFFFFFFFFFFFFFFFFFFFFFFFFFFFFFFFFFFFFFFFFFFFFFFFFFFFFFFFFFFF DIV DUP4 GT DUP3 ISZERO ISZERO AND ISZERO PUSH2 0x642 JUMPI PUSH2 0x641 PUSH2 0x726 JUMP JUMPDEST JUMPDEST DUP3 DUP3 MUL SWAP1 POP SWAP3 SWAP2 POP POP JUMP JUMPDEST PUSH1 0x0 PUSH2 0x658 DUP3 PUSH2 0x6E1 JUMP JUMPDEST SWAP2 POP PUSH2 0x663 DUP4 PUSH2 0x6E1 JUMP JUMPDEST SWAP3 POP DUP3 PUSH32 0x8000000000000000000000000000000000000000000000000000000000000000 ADD DUP3 SLT PUSH1 0x0 DUP5 SLT ISZERO AND ISZERO PUSH2 0x69E JUMPI PUSH2 0x69D PUSH2 0x726 JUMP JUMPDEST JUMPDEST DUP3 PUSH32 0x7FFFFFFFFFFFFFFFFFFFFFFFFFFFFFFFFFFFFFFFFFFFFFFFFFFFFFFFFFFFFFFF ADD DUP3 SGT PUSH1 0x0 DUP5 SLT AND ISZERO PUSH2 0x6D6 JUMPI PUSH2 0x6D5 PUSH2 0x726 JUMP JUMPDEST JUMPDEST DUP3 DUP3 SUB SWAP1 POP SWAP3 SWAP2 POP POP JUMP JUMPDEST PUSH1 0x0 DUP2 SWAP1 POP SWAP2 SWAP1 POP JUMP JUMPDEST PUSH1 0x0 DUP2 SWAP1 POP SWAP2 SWAP1 POP JUMP JUMPDEST PUSH1 0x0 PUSH2 0x700 DUP3 PUSH2 0x6EB JUMP JUMPDEST SWAP2 POP PUSH2 0x70B DUP4 PUSH2 0x6EB JUMP JUMPDEST SWAP3 POP DUP3 PUSH2 0x71B JUMPI PUSH2 0x71A PUSH2 0x755 JUMP JUMPDEST JUMPDEST DUP3 DUP3 MOD SWAP1 POP SWAP3 SWAP2 POP POP JUMP JUMPDEST PUSH32 0x4E487B7100000000000000000000000000000000000000000000000000000000 PUSH1 0x0 MSTORE PUSH1 0x11 PUSH1 0x4 MSTORE PUSH1 0x24 PUSH1 0x0 REVERT JUMPDEST PUSH32 0x4E487B7100000000000000000000000000000000000000000000000000000000 PUSH1 0x0 MSTORE PUSH1 0x12 PUSH1 0x4 MSTORE PUSH1 0x24 PUSH1 0x0 REVERT JUMPDEST PUSH1 0x0 DUP1 REVERT JUMPDEST PUSH1 0x0 DUP2 PUSH1 0x1 SHR SWAP1 POP SWAP2 SWAP1 POP JUMP JUMPDEST PUSH2 0x79F DUP2 PUSH2 0x6E1 JUMP JUMPDEST DUP2 EQ PUSH2 0x7AA JUMPI PUSH1 0x0 DUP1 REVERT JUMPDEST POP JUMP JUMPDEST PUSH2 0x7B6 DUP2 PUSH2 0x6EB JUMP JUMPDEST DUP2 EQ PUSH2 0x7C1 JUMPI PUSH1 0x0 DUP1 REVERT JUMPDEST POP JUMP INVALID LOG2 PUSH5 0x6970667358 0x22 SLT KECCAK256 0xC0 LOG1 0xC2 LOG1 BYTE 0xAA 0xBF 0xF MSTORE8 LOG4 TIMESTAMP 0x5F 0xE3 CALLDATASIZE ADDMOD 0xB8 MUL PUSH1 0x64 0x4F 0xD6 0xC5 DELEGATECALL 0xCF 0x2D 0xB4 0xDD RETURNDATACOPY 0xC9 0xC1 0xCF DIFFICULTY PUSH5 0x736F6C6343 STOP ADDMOD SMOD STOP CALLER "
				},
				"gasEstimates": {
					"creation": {
						"codeDepositCost": "408400",
						"executionCost": "443",
						"totalCost": "408843"
					},
					"external": {
						"_addmod(uint256,uint256,uint256)": "infinite",
						"_mulmod(uint256,uint256,uint256)": "infinite",
						"expon(uint256,uint256)": "infinite",
						"mod(uint256,uint256)": "infinite",
						"multiplicacion(uint256,uint256)": "infinite",
						"resta(int256,int256)": "infinite",
						"suma(uint256,uint256)": "infinite"
					}
				},
				"methodIdentifiers": {
					"_addmod(uint256,uint256,uint256)": "dd125e37",
					"_mulmod(uint256,uint256,uint256)": "871f9af4",
					"expon(uint256,uint256)": "e989d9cc",
					"mod(uint256,uint256)": "f43f523a",
					"multiplicacion(uint256,uint256)": "d17fb9ea",
					"resta(int256,int256)": "4c627bad",
					"suma(uint256,uint256)": "b1b45b1b"
				}
			},
			"storageLayout": {
				"storage": [],
				"types": null
			},
			"userdoc": {
				"kind": "user",
				"methods": {},
				"version": 1
			}
		}
	}
}